{
  "_format": "hh-sol-artifact-1",
  "contractName": "StreamingPlatformTipping",
  "sourceName": "contracts/StreamingPlatformTipping.sol",
  "abi": [
    {
      "inputs": [
        {
          "internalType": "address",
          "name": "_businessOwner",
          "type": "address"
        },
        {
          "internalType": "address",
          "name": "_tippingChainTreasury",
          "type": "address"
        },
        {
          "internalType": "address",
          "name": "_owner",
          "type": "address"
        },
        {
          "internalType": "address[]",
          "name": "_supportedTokens",
          "type": "address[]"
        },
        {
          "internalType": "address",
          "name": "_relayReceiver",
          "type": "address"
        },
        {
          "internalType": "address[]",
          "name": "_initialRelayers",
          "type": "address[]"
        }
      ],
      "stateMutability": "nonpayable",
      "type": "constructor"
    },
    {
      "inputs": [],
      "name": "EnforcedPause",
      "type": "error"
    },
    {
      "inputs": [],
      "name": "ExpectedPause",
      "type": "error"
    },
    {
      "inputs": [
        {
          "internalType": "address",
          "name": "owner",
          "type": "address"
        }
      ],
      "name": "OwnableInvalidOwner",
      "type": "error"
    },
    {
      "inputs": [
        {
          "internalType": "address",
          "name": "account",
          "type": "address"
        }
      ],
      "name": "OwnableUnauthorizedAccount",
      "type": "error"
    },
    {
      "inputs": [],
      "name": "ReentrancyGuardReentrantCall",
      "type": "error"
    },
    {
      "inputs": [
        {
          "internalType": "address",
          "name": "token",
          "type": "address"
        }
      ],
      "name": "SafeERC20FailedOperation",
      "type": "error"
    },
    {
      "anonymous": false,
      "inputs": [
        {
          "indexed": true,
          "internalType": "address",
          "name": "admin",
          "type": "address"
        },
        {
          "indexed": false,
          "internalType": "bool",
          "name": "granted",
          "type": "bool"
        }
      ],
      "name": "AdminStatusChanged",
      "type": "event"
    },
    {
      "anonymous": false,
      "inputs": [
        {
          "indexed": true,
          "internalType": "uint256",
          "name": "creatorId",
          "type": "uint256"
        },
        {
          "indexed": true,
          "internalType": "address",
          "name": "wallet",
          "type": "address"
        },
        {
          "indexed": false,
          "internalType": "string",
          "name": "thirdwebId",
          "type": "string"
        },
        {
          "indexed": false,
          "internalType": "uint256",
          "name": "timestamp",
          "type": "uint256"
        }
      ],
      "name": "CreatorAdded",
      "type": "event"
    },
    {
      "anonymous": false,
      "inputs": [
        {
          "indexed": true,
          "internalType": "uint256",
          "name": "creatorId",
          "type": "uint256"
        },
        {
          "indexed": false,
          "internalType": "bool",
          "name": "active",
          "type": "bool"
        },
        {
          "indexed": false,
          "internalType": "uint256",
          "name": "timestamp",
          "type": "uint256"
        }
      ],
      "name": "CreatorStatusUpdated",
      "type": "event"
    },
    {
      "anonymous": false,
      "inputs": [
        {
          "indexed": true,
          "internalType": "uint256",
          "name": "creatorId",
          "type": "uint256"
        },
        {
          "indexed": false,
          "internalType": "enum StreamingPlatformTipping.MembershipTier",
          "name": "oldTier",
          "type": "uint8"
        },
        {
          "indexed": false,
          "internalType": "enum StreamingPlatformTipping.MembershipTier",
          "name": "newTier",
          "type": "uint8"
        },
        {
          "indexed": false,
          "internalType": "uint256",
          "name": "timestamp",
          "type": "uint256"
        }
      ],
      "name": "CreatorTierUpdated",
      "type": "event"
    },
    {
      "anonymous": false,
      "inputs": [
        {
          "indexed": true,
          "internalType": "uint256",
          "name": "creatorId",
          "type": "uint256"
        },
        {
          "indexed": true,
          "internalType": "address",
          "name": "oldWallet",
          "type": "address"
        },
        {
          "indexed": true,
          "internalType": "address",
          "name": "newWallet",
          "type": "address"
        },
        {
          "indexed": false,
          "internalType": "uint256",
          "name": "timestamp",
          "type": "uint256"
        }
      ],
      "name": "CreatorWalletUpdated",
      "type": "event"
    },
    {
      "anonymous": false,
      "inputs": [
        {
          "indexed": true,
          "internalType": "address",
          "name": "previousOwner",
          "type": "address"
        },
        {
          "indexed": true,
          "internalType": "address",
          "name": "newOwner",
          "type": "address"
        }
      ],
      "name": "OwnershipTransferStarted",
      "type": "event"
    },
    {
      "anonymous": false,
      "inputs": [
        {
          "indexed": true,
          "internalType": "address",
          "name": "previousOwner",
          "type": "address"
        },
        {
          "indexed": true,
          "internalType": "address",
          "name": "newOwner",
          "type": "address"
        }
      ],
      "name": "OwnershipTransferred",
      "type": "event"
    },
    {
      "anonymous": false,
      "inputs": [
        {
          "indexed": false,
          "internalType": "address",
          "name": "account",
          "type": "address"
        }
      ],
      "name": "Paused",
      "type": "event"
    },
    {
      "anonymous": false,
      "inputs": [
        {
          "indexed": true,
          "internalType": "address",
          "name": "recipient",
          "type": "address"
        },
        {
          "indexed": true,
          "internalType": "address",
          "name": "token",
          "type": "address"
        },
        {
          "indexed": false,
          "internalType": "uint256",
          "name": "amount",
          "type": "uint256"
        },
        {
          "indexed": false,
          "internalType": "string",
          "name": "reason",
          "type": "string"
        }
      ],
      "name": "RelayFailed",
      "type": "event"
    },
    {
      "anonymous": false,
      "inputs": [
        {
          "indexed": true,
          "internalType": "address",
          "name": "recipient",
          "type": "address"
        },
        {
          "indexed": true,
          "internalType": "address",
          "name": "token",
          "type": "address"
        },
        {
          "indexed": false,
          "internalType": "uint256",
          "name": "amount",
          "type": "uint256"
        },
        {
          "indexed": true,
          "internalType": "bytes32",
          "name": "relayId",
          "type": "bytes32"
        }
      ],
      "name": "RelayInitiated",
      "type": "event"
    },
    {
      "anonymous": false,
      "inputs": [
        {
          "indexed": true,
          "internalType": "address",
          "name": "relayer",
          "type": "address"
        },
        {
          "indexed": false,
          "internalType": "bool",
          "name": "authorized",
          "type": "bool"
        }
      ],
      "name": "RelayerAuthorized",
      "type": "event"
    },
    {
      "anonymous": false,
      "inputs": [
        {
          "indexed": true,
          "internalType": "address",
          "name": "tipper",
          "type": "address"
        },
        {
          "indexed": true,
          "internalType": "uint256",
          "name": "creatorId",
          "type": "uint256"
        },
        {
          "indexed": true,
          "internalType": "address",
          "name": "token",
          "type": "address"
        },
        {
          "indexed": false,
          "internalType": "uint256",
          "name": "totalAmount",
          "type": "uint256"
        },
        {
          "indexed": false,
          "internalType": "uint256",
          "name": "platformFee",
          "type": "uint256"
        },
        {
          "indexed": false,
          "internalType": "uint256",
          "name": "businessAmount",
          "type": "uint256"
        },
        {
          "indexed": false,
          "internalType": "uint256",
          "name": "creatorAmount",
          "type": "uint256"
        },
        {
          "indexed": false,
          "internalType": "bool",
          "name": "relayedToApeChain",
          "type": "bool"
        },
        {
          "indexed": false,
          "internalType": "uint256",
          "name": "timestamp",
          "type": "uint256"
        }
      ],
      "name": "TipReceived",
      "type": "event"
    },
    {
      "anonymous": false,
      "inputs": [
        {
          "indexed": true,
          "internalType": "address",
          "name": "recipient",
          "type": "address"
        },
        {
          "indexed": false,
          "internalType": "uint256",
          "name": "amount",
          "type": "uint256"
        },
        {
          "indexed": true,
          "internalType": "uint32",
          "name": "sourceChainId",
          "type": "uint32"
        },
        {
          "indexed": true,
          "internalType": "bytes32",
          "name": "relayId",
          "type": "bytes32"
        },
        {
          "indexed": false,
          "internalType": "uint256",
          "name": "timestamp",
          "type": "uint256"
        }
      ],
      "name": "TipReceivedFromRelay",
      "type": "event"
    },
    {
      "anonymous": false,
      "inputs": [
        {
          "indexed": false,
          "internalType": "address",
          "name": "account",
          "type": "address"
        }
      ],
      "name": "Unpaused",
      "type": "event"
    },
    {
      "anonymous": false,
      "inputs": [
        {
          "indexed": true,
          "internalType": "address",
          "name": "recipient",
          "type": "address"
        },
        {
          "indexed": false,
          "internalType": "uint256",
          "name": "amount",
          "type": "uint256"
        },
        {
          "indexed": false,
          "internalType": "uint256",
          "name": "timestamp",
          "type": "uint256"
        }
      ],
      "name": "UsdcWithdrawn",
      "type": "event"
    },
    {
      "anonymous": false,
      "inputs": [
        {
          "indexed": true,
          "internalType": "uint256",
          "name": "viewerId",
          "type": "uint256"
        },
        {
          "indexed": true,
          "internalType": "address",
          "name": "wallet",
          "type": "address"
        },
        {
          "indexed": false,
          "internalType": "string",
          "name": "thirdwebId",
          "type": "string"
        },
        {
          "indexed": false,
          "internalType": "uint256",
          "name": "timestamp",
          "type": "uint256"
        }
      ],
      "name": "ViewerRegistered",
      "type": "event"
    },
    {
      "anonymous": false,
      "inputs": [
        {
          "indexed": true,
          "internalType": "address",
          "name": "creator",
          "type": "address"
        },
        {
          "indexed": true,
          "internalType": "address",
          "name": "viewer",
          "type": "address"
        },
        {
          "indexed": false,
          "internalType": "address",
          "name": "token",
          "type": "address"
        },
        {
          "indexed": false,
          "internalType": "uint256",
          "name": "amount",
          "type": "uint256"
        },
        {
          "indexed": false,
          "internalType": "uint256",
          "name": "platformFee",
          "type": "uint256"
        },
        {
          "indexed": false,
          "internalType": "string",
          "name": "reason",
          "type": "string"
        },
        {
          "indexed": false,
          "internalType": "bool",
          "name": "relayedToApeChain",
          "type": "bool"
        },
        {
          "indexed": false,
          "internalType": "uint256",
          "name": "timestamp",
          "type": "uint256"
        }
      ],
      "name": "ViewerRewarded",
      "type": "event"
    },
    {
      "anonymous": false,
      "inputs": [
        {
          "indexed": false,
          "internalType": "bool",
          "name": "enabled",
          "type": "bool"
        },
        {
          "indexed": false,
          "internalType": "uint256",
          "name": "timestamp",
          "type": "uint256"
        }
      ],
      "name": "ViewerRewardsStatusChanged",
      "type": "event"
    },
    {
      "anonymous": false,
      "inputs": [
        {
          "indexed": true,
          "internalType": "uint256",
          "name": "viewerId",
          "type": "uint256"
        },
        {
          "indexed": true,
          "internalType": "address",
          "name": "oldWallet",
          "type": "address"
        },
        {
          "indexed": true,
          "internalType": "address",
          "name": "newWallet",
          "type": "address"
        },
        {
          "indexed": false,
          "internalType": "uint256",
          "name": "timestamp",
          "type": "uint256"
        }
      ],
      "name": "ViewerWalletUpdated",
      "type": "event"
    },
    {
      "inputs": [],
      "name": "APECHAIN_ID",
      "outputs": [
        {
          "internalType": "uint256",
          "name": "",
          "type": "uint256"
        }
      ],
      "stateMutability": "view",
      "type": "function"
    },
    {
      "inputs": [],
      "name": "APECHAIN_USDC",
      "outputs": [
        {
          "internalType": "address",
          "name": "",
          "type": "address"
        }
      ],
      "stateMutability": "view",
      "type": "function"
    },
    {
      "inputs": [],
      "name": "BASIS_POINTS",
      "outputs": [
        {
          "internalType": "uint256",
          "name": "",
          "type": "uint256"
        }
      ],
      "stateMutability": "view",
      "type": "function"
    },
    {
      "inputs": [],
      "name": "MIN_TIP_AMOUNT",
      "outputs": [
        {
          "internalType": "uint256",
          "name": "",
          "type": "uint256"
        }
      ],
      "stateMutability": "view",
      "type": "function"
    },
    {
      "inputs": [],
      "name": "MIN_VIEWER_REWARD",
      "outputs": [
        {
          "internalType": "uint256",
          "name": "",
          "type": "uint256"
        }
      ],
      "stateMutability": "view",
      "type": "function"
    },
    {
      "inputs": [],
      "name": "RELAY_ERC20_ROUTER",
      "outputs": [
        {
          "internalType": "address",
          "name": "",
          "type": "address"
        }
      ],
      "stateMutability": "view",
      "type": "function"
    },
    {
      "inputs": [],
      "name": "TIPPINGCHAIN_FEE",
      "outputs": [
        {
          "internalType": "uint256",
          "name": "",
          "type": "uint256"
        }
      ],
      "stateMutability": "view",
      "type": "function"
    },
    {
      "inputs": [],
      "name": "VIEWER_REWARD_FEE",
      "outputs": [
        {
          "internalType": "uint256",
          "name": "",
          "type": "uint256"
        }
      ],
      "stateMutability": "view",
      "type": "function"
    },
    {
      "inputs": [],
      "name": "acceptOwnership",
      "outputs": [],
      "stateMutability": "nonpayable",
      "type": "function"
    },
    {
      "inputs": [],
      "name": "activeCreatorCount",
      "outputs": [
        {
          "internalType": "uint256",
          "name": "",
          "type": "uint256"
        }
      ],
      "stateMutability": "view",
      "type": "function"
    },
    {
      "inputs": [
        {
          "internalType": "uint256",
          "name": "",
          "type": "uint256"
        }
      ],
      "name": "activeCreatorIds",
      "outputs": [
        {
          "internalType": "uint256",
          "name": "",
          "type": "uint256"
        }
      ],
      "stateMutability": "view",
      "type": "function"
    },
    {
      "inputs": [
        {
          "internalType": "uint256",
          "name": "",
          "type": "uint256"
        }
      ],
      "name": "activeCreatorIndex",
      "outputs": [
        {
          "internalType": "uint256",
          "name": "",
          "type": "uint256"
        }
      ],
      "stateMutability": "view",
      "type": "function"
    },
    {
      "inputs": [
        {
          "internalType": "address",
          "name": "relayer",
          "type": "address"
        }
      ],
      "name": "addAuthorizedRelayer",
      "outputs": [],
      "stateMutability": "nonpayable",
      "type": "function"
    },
    {
      "inputs": [
        {
          "internalType": "address",
          "name": "creatorWallet",
          "type": "address"
        },
        {
          "internalType": "enum StreamingPlatformTipping.MembershipTier",
          "name": "tier",
          "type": "uint8"
        },
        {
          "internalType": "string",
          "name": "thirdwebId",
          "type": "string"
        }
      ],
      "name": "addCreator",
      "outputs": [
        {
          "internalType": "uint256",
          "name": "creatorId",
          "type": "uint256"
        }
      ],
      "stateMutability": "nonpayable",
      "type": "function"
    },
    {
      "inputs": [
        {
          "internalType": "address",
          "name": "token",
          "type": "address"
        }
      ],
      "name": "addSupportedToken",
      "outputs": [],
      "stateMutability": "nonpayable",
      "type": "function"
    },
    {
      "inputs": [
        {
          "internalType": "address",
          "name": "",
          "type": "address"
        }
      ],
      "name": "admins",
      "outputs": [
        {
          "internalType": "bool",
          "name": "",
          "type": "bool"
        }
      ],
      "stateMutability": "view",
      "type": "function"
    },
    {
      "inputs": [
        {
          "internalType": "address",
          "name": "",
          "type": "address"
        }
      ],
      "name": "authorizedRelayers",
      "outputs": [
        {
          "internalType": "bool",
          "name": "",
          "type": "bool"
        }
      ],
      "stateMutability": "view",
      "type": "function"
    },
    {
      "inputs": [],
      "name": "autoRelayEnabled",
      "outputs": [
        {
          "internalType": "bool",
          "name": "",
          "type": "bool"
        }
      ],
      "stateMutability": "view",
      "type": "function"
    },
    {
      "inputs": [
        {
          "internalType": "address[]",
          "name": "creatorWallets",
          "type": "address[]"
        },
        {
          "internalType": "enum StreamingPlatformTipping.MembershipTier[]",
          "name": "tiers",
          "type": "uint8[]"
        }
      ],
      "name": "batchAddCreators",
      "outputs": [
        {
          "internalType": "uint256[]",
          "name": "creatorIds",
          "type": "uint256[]"
        }
      ],
      "stateMutability": "nonpayable",
      "type": "function"
    },
    {
      "inputs": [
        {
          "internalType": "uint256[]",
          "name": "targetViewerIds",
          "type": "uint256[]"
        },
        {
          "internalType": "uint256[]",
          "name": "amounts",
          "type": "uint256[]"
        },
        {
          "internalType": "string[]",
          "name": "reasons",
          "type": "string[]"
        }
      ],
      "name": "batchRewardViewersByIdETH",
      "outputs": [],
      "stateMutability": "payable",
      "type": "function"
    },
    {
      "inputs": [
        {
          "internalType": "address[]",
          "name": "viewerAddresses",
          "type": "address[]"
        },
        {
          "internalType": "uint256[]",
          "name": "amounts",
          "type": "uint256[]"
        },
        {
          "internalType": "string[]",
          "name": "reasons",
          "type": "string[]"
        }
      ],
      "name": "batchRewardViewersETH",
      "outputs": [],
      "stateMutability": "payable",
      "type": "function"
    },
    {
      "inputs": [],
      "name": "businessOwner",
      "outputs": [
        {
          "internalType": "address",
          "name": "",
          "type": "address"
        }
      ],
      "stateMutability": "view",
      "type": "function"
    },
    {
      "inputs": [
        {
          "internalType": "uint256",
          "name": "creatorId",
          "type": "uint256"
        },
        {
          "internalType": "uint256",
          "name": "tipAmount",
          "type": "uint256"
        }
      ],
      "name": "calculateTipSplits",
      "outputs": [
        {
          "internalType": "uint256",
          "name": "platformFee",
          "type": "uint256"
        },
        {
          "internalType": "uint256",
          "name": "creatorAmount",
          "type": "uint256"
        },
        {
          "internalType": "uint256",
          "name": "businessAmount",
          "type": "uint256"
        }
      ],
      "stateMutability": "view",
      "type": "function"
    },
    {
      "inputs": [
        {
          "internalType": "uint256",
          "name": "",
          "type": "uint256"
        }
      ],
      "name": "creatorTiers",
      "outputs": [
        {
          "internalType": "enum StreamingPlatformTipping.MembershipTier",
          "name": "",
          "type": "uint8"
        }
      ],
      "stateMutability": "view",
      "type": "function"
    },
    {
      "inputs": [
        {
          "internalType": "uint256",
          "name": "",
          "type": "uint256"
        }
      ],
      "name": "creators",
      "outputs": [
        {
          "internalType": "address",
          "name": "wallet",
          "type": "address"
        },
        {
          "internalType": "bool",
          "name": "active",
          "type": "bool"
        },
        {
          "internalType": "uint256",
          "name": "totalTipsReceived",
          "type": "uint256"
        },
        {
          "internalType": "uint256",
          "name": "tipCount",
          "type": "uint256"
        },
        {
          "internalType": "enum StreamingPlatformTipping.MembershipTier",
          "name": "tier",
          "type": "uint8"
        }
      ],
      "stateMutability": "view",
      "type": "function"
    },
    {
      "inputs": [],
      "name": "emergencyWithdraw",
      "outputs": [],
      "stateMutability": "nonpayable",
      "type": "function"
    },
    {
      "inputs": [],
      "name": "getActiveCreatorIds",
      "outputs": [
        {
          "internalType": "uint256[]",
          "name": "",
          "type": "uint256[]"
        }
      ],
      "stateMutability": "view",
      "type": "function"
    },
    {
      "inputs": [
        {
          "internalType": "uint256",
          "name": "offset",
          "type": "uint256"
        },
        {
          "internalType": "uint256",
          "name": "limit",
          "type": "uint256"
        }
      ],
      "name": "getAllActiveCreators",
      "outputs": [
        {
          "internalType": "uint256[]",
          "name": "creatorIds",
          "type": "uint256[]"
        },
        {
          "internalType": "address[]",
          "name": "wallets",
          "type": "address[]"
        },
        {
          "internalType": "uint256[]",
          "name": "tipAmounts",
          "type": "uint256[]"
        },
        {
          "internalType": "uint256",
          "name": "totalActive",
          "type": "uint256"
        }
      ],
      "stateMutability": "view",
      "type": "function"
    },
    {
      "inputs": [],
      "name": "getApeChainStats",
      "outputs": [
        {
          "internalType": "uint256",
          "name": "totalUsdc",
          "type": "uint256"
        },
        {
          "internalType": "uint256",
          "name": "totalFromChain",
          "type": "uint256"
        }
      ],
      "stateMutability": "view",
      "type": "function"
    },
    {
      "inputs": [
        {
          "internalType": "address",
          "name": "user",
          "type": "address"
        }
      ],
      "name": "getBalances",
      "outputs": [
        {
          "internalType": "uint256",
          "name": "ethBalance",
          "type": "uint256"
        },
        {
          "internalType": "uint256",
          "name": "usdcBalance",
          "type": "uint256"
        }
      ],
      "stateMutability": "view",
      "type": "function"
    },
    {
      "inputs": [
        {
          "internalType": "string",
          "name": "thirdwebId",
          "type": "string"
        }
      ],
      "name": "getCreatorByThirdwebId",
      "outputs": [
        {
          "internalType": "uint256",
          "name": "",
          "type": "uint256"
        }
      ],
      "stateMutability": "view",
      "type": "function"
    },
    {
      "inputs": [
        {
          "internalType": "address",
          "name": "wallet",
          "type": "address"
        }
      ],
      "name": "getCreatorByWallet",
      "outputs": [
        {
          "internalType": "uint256",
          "name": "creatorId",
          "type": "uint256"
        }
      ],
      "stateMutability": "view",
      "type": "function"
    },
    {
      "inputs": [
        {
          "internalType": "uint256",
          "name": "creatorId",
          "type": "uint256"
        }
      ],
      "name": "getCreatorInfo",
      "outputs": [
        {
          "internalType": "address",
          "name": "wallet",
          "type": "address"
        },
        {
          "internalType": "bool",
          "name": "active",
          "type": "bool"
        },
        {
          "internalType": "uint256",
          "name": "totalTips",
          "type": "uint256"
        },
        {
          "internalType": "uint256",
          "name": "tipCount",
          "type": "uint256"
        },
        {
          "internalType": "enum StreamingPlatformTipping.MembershipTier",
          "name": "tier",
          "type": "uint8"
        },
        {
          "internalType": "uint256",
          "name": "creatorShareBps",
          "type": "uint256"
        }
      ],
      "stateMutability": "view",
      "type": "function"
    },
    {
      "inputs": [
        {
          "internalType": "uint256[]",
          "name": "creatorIdList",
          "type": "uint256[]"
        }
      ],
      "name": "getCreatorsByIds",
      "outputs": [
        {
          "internalType": "uint256[]",
          "name": "tipAmounts",
          "type": "uint256[]"
        },
        {
          "internalType": "address[]",
          "name": "wallets",
          "type": "address[]"
        },
        {
          "internalType": "bool[]",
          "name": "activeStatus",
          "type": "bool[]"
        }
      ],
      "stateMutability": "view",
      "type": "function"
    },
    {
      "inputs": [],
      "name": "getPlatformStats",
      "outputs": [
        {
          "internalType": "uint256",
          "name": "_totalTips",
          "type": "uint256"
        },
        {
          "internalType": "uint256",
          "name": "_totalCount",
          "type": "uint256"
        },
        {
          "internalType": "uint256",
          "name": "_totalRelayed",
          "type": "uint256"
        },
        {
          "internalType": "uint256",
          "name": "_activeCreators",
          "type": "uint256"
        },
        {
          "internalType": "bool",
          "name": "_autoRelayEnabled",
          "type": "bool"
        }
      ],
      "stateMutability": "view",
      "type": "function"
    },
    {
      "inputs": [
        {
          "internalType": "address",
          "name": "user",
          "type": "address"
        },
        {
          "internalType": "address",
          "name": "token",
          "type": "address"
        }
      ],
      "name": "getTokenBalance",
      "outputs": [
        {
          "internalType": "uint256",
          "name": "",
          "type": "uint256"
        }
      ],
      "stateMutability": "view",
      "type": "function"
    },
    {
      "inputs": [
        {
          "internalType": "string",
          "name": "thirdwebId",
          "type": "string"
        }
      ],
      "name": "getViewerByThirdwebId",
      "outputs": [
        {
          "internalType": "uint256",
          "name": "",
          "type": "uint256"
        }
      ],
      "stateMutability": "view",
      "type": "function"
    },
    {
      "inputs": [
        {
          "internalType": "address",
          "name": "wallet",
          "type": "address"
        }
      ],
      "name": "getViewerByWallet",
      "outputs": [
        {
          "internalType": "uint256",
          "name": "",
          "type": "uint256"
        }
      ],
      "stateMutability": "view",
      "type": "function"
    },
    {
      "inputs": [
        {
          "internalType": "uint256",
          "name": "viewerId",
          "type": "uint256"
        }
      ],
      "name": "getViewerInfo",
      "outputs": [
        {
          "internalType": "address",
          "name": "wallet",
          "type": "address"
        },
        {
          "internalType": "uint256",
          "name": "totalReceived",
          "type": "uint256"
        }
      ],
      "stateMutability": "view",
      "type": "function"
    },
    {
      "inputs": [
        {
          "internalType": "address",
          "name": "user",
          "type": "address"
        }
      ],
      "name": "getViewerRewardStats",
      "outputs": [
        {
          "internalType": "uint256",
          "name": "rewardsGiven",
          "type": "uint256"
        },
        {
          "internalType": "uint256",
          "name": "rewardsReceived",
          "type": "uint256"
        },
        {
          "internalType": "uint256",
          "name": "rewardsSent",
          "type": "uint256"
        }
      ],
      "stateMutability": "view",
      "type": "function"
    },
    {
      "inputs": [],
      "name": "getViewerRewardsPlatformStats",
      "outputs": [
        {
          "internalType": "uint256",
          "name": "totalRewards",
          "type": "uint256"
        },
        {
          "internalType": "bool",
          "name": "rewardsEnabled",
          "type": "bool"
        },
        {
          "internalType": "uint256",
          "name": "platformFeeRate",
          "type": "uint256"
        }
      ],
      "stateMutability": "view",
      "type": "function"
    },
    {
      "inputs": [
        {
          "internalType": "address",
          "name": "admin",
          "type": "address"
        }
      ],
      "name": "grantAdmin",
      "outputs": [],
      "stateMutability": "nonpayable",
      "type": "function"
    },
    {
      "inputs": [
        {
          "internalType": "address",
          "name": "admin",
          "type": "address"
        }
      ],
      "name": "isAdmin",
      "outputs": [
        {
          "internalType": "bool",
          "name": "",
          "type": "bool"
        }
      ],
      "stateMutability": "view",
      "type": "function"
    },
    {
      "inputs": [
        {
          "internalType": "uint256",
          "name": "creatorId",
          "type": "uint256"
        },
        {
          "internalType": "address",
          "name": "token",
          "type": "address"
        }
      ],
      "name": "isTokenSupportedForCreator",
      "outputs": [
        {
          "internalType": "bool",
          "name": "",
          "type": "bool"
        }
      ],
      "stateMutability": "view",
      "type": "function"
    },
    {
      "inputs": [],
      "name": "manualRelayETH",
      "outputs": [],
      "stateMutability": "nonpayable",
      "type": "function"
    },
    {
      "inputs": [
        {
          "internalType": "address",
          "name": "token",
          "type": "address"
        }
      ],
      "name": "manualRelayToken",
      "outputs": [],
      "stateMutability": "nonpayable",
      "type": "function"
    },
    {
      "inputs": [],
      "name": "nextCreatorId",
      "outputs": [
        {
          "internalType": "uint256",
          "name": "",
          "type": "uint256"
        }
      ],
      "stateMutability": "view",
      "type": "function"
    },
    {
      "inputs": [],
      "name": "nextViewerId",
      "outputs": [
        {
          "internalType": "uint256",
          "name": "",
          "type": "uint256"
        }
      ],
      "stateMutability": "view",
      "type": "function"
    },
    {
      "inputs": [],
      "name": "owner",
      "outputs": [
        {
          "internalType": "address",
          "name": "",
          "type": "address"
        }
      ],
      "stateMutability": "view",
      "type": "function"
    },
    {
      "inputs": [],
      "name": "pause",
      "outputs": [],
      "stateMutability": "nonpayable",
      "type": "function"
    },
    {
      "inputs": [],
      "name": "paused",
      "outputs": [
        {
          "internalType": "bool",
          "name": "",
          "type": "bool"
        }
      ],
      "stateMutability": "view",
      "type": "function"
    },
    {
      "inputs": [],
      "name": "pendingOwner",
      "outputs": [
        {
          "internalType": "address",
          "name": "",
          "type": "address"
        }
      ],
      "stateMutability": "view",
      "type": "function"
    },
    {
      "inputs": [
        {
          "internalType": "address",
          "name": "recipient",
          "type": "address"
        },
        {
          "internalType": "uint32",
          "name": "originChainId",
          "type": "uint32"
        },
        {
          "internalType": "bytes32",
          "name": "relayId",
          "type": "bytes32"
        },
        {
          "internalType": "uint256",
          "name": "usdcAmount",
          "type": "uint256"
        }
      ],
      "name": "receiveTipFromRelay",
      "outputs": [],
      "stateMutability": "nonpayable",
      "type": "function"
    },
    {
      "inputs": [
        {
          "internalType": "address",
          "name": "viewerWallet",
          "type": "address"
        },
        {
          "internalType": "string",
          "name": "thirdwebId",
          "type": "string"
        }
      ],
      "name": "registerViewer",
      "outputs": [
        {
          "internalType": "uint256",
          "name": "",
          "type": "uint256"
        }
      ],
      "stateMutability": "nonpayable",
      "type": "function"
    },
    {
      "inputs": [],
      "name": "relayReceiver",
      "outputs": [
        {
          "internalType": "address",
          "name": "",
          "type": "address"
        }
      ],
      "stateMutability": "view",
      "type": "function"
    },
    {
      "inputs": [
        {
          "internalType": "address",
          "name": "relayer",
          "type": "address"
        }
      ],
      "name": "removeAuthorizedRelayer",
      "outputs": [],
      "stateMutability": "nonpayable",
      "type": "function"
    },
    {
      "inputs": [
        {
          "internalType": "address",
          "name": "token",
          "type": "address"
        }
      ],
      "name": "removeSupportedToken",
      "outputs": [],
      "stateMutability": "nonpayable",
      "type": "function"
    },
    {
      "inputs": [],
      "name": "renounceOwnership",
      "outputs": [],
      "stateMutability": "nonpayable",
      "type": "function"
    },
    {
      "inputs": [
        {
          "internalType": "address",
          "name": "admin",
          "type": "address"
        }
      ],
      "name": "revokeAdmin",
      "outputs": [],
      "stateMutability": "nonpayable",
      "type": "function"
    },
    {
      "inputs": [
        {
          "internalType": "address",
          "name": "",
          "type": "address"
        }
      ],
      "name": "rewardCount",
      "outputs": [
        {
          "internalType": "uint256",
          "name": "",
          "type": "uint256"
        }
      ],
      "stateMutability": "view",
      "type": "function"
    },
    {
      "inputs": [
        {
          "internalType": "uint256",
          "name": "viewerId",
          "type": "uint256"
        },
        {
          "internalType": "string",
          "name": "reason",
          "type": "string"
        }
      ],
      "name": "rewardViewerByIdETH",
      "outputs": [],
      "stateMutability": "payable",
      "type": "function"
    },
    {
      "inputs": [
        {
          "internalType": "address",
          "name": "viewer",
          "type": "address"
        },
        {
          "internalType": "string",
          "name": "reason",
          "type": "string"
        }
      ],
      "name": "rewardViewerETH",
      "outputs": [],
      "stateMutability": "payable",
      "type": "function"
    },
    {
      "inputs": [
        {
          "internalType": "address",
          "name": "viewer",
          "type": "address"
        },
        {
          "internalType": "address",
          "name": "token",
          "type": "address"
        },
        {
          "internalType": "uint256",
          "name": "amount",
          "type": "uint256"
        },
        {
          "internalType": "string",
          "name": "reason",
          "type": "string"
        }
      ],
      "name": "rewardViewerToken",
      "outputs": [],
      "stateMutability": "nonpayable",
      "type": "function"
    },
    {
      "inputs": [
        {
          "internalType": "bool",
          "name": "_enabled",
          "type": "bool"
        }
      ],
      "name": "setAutoRelay",
      "outputs": [],
      "stateMutability": "nonpayable",
      "type": "function"
    },
    {
      "inputs": [
        {
          "internalType": "uint256",
          "name": "creatorId",
          "type": "uint256"
        },
        {
          "internalType": "bool",
          "name": "active",
          "type": "bool"
        }
      ],
      "name": "setCreatorStatus",
      "outputs": [],
      "stateMutability": "nonpayable",
      "type": "function"
    },
    {
      "inputs": [
        {
          "internalType": "uint256",
          "name": "creatorId",
          "type": "uint256"
        },
        {
          "internalType": "address",
          "name": "token",
          "type": "address"
        },
        {
          "internalType": "bool",
          "name": "supported",
          "type": "bool"
        }
      ],
      "name": "setCreatorTokenSupport",
      "outputs": [],
      "stateMutability": "nonpayable",
      "type": "function"
    },
    {
      "inputs": [
        {
          "internalType": "address",
          "name": "_relayReceiver",
          "type": "address"
        }
      ],
      "name": "setRelayReceiver",
      "outputs": [],
      "stateMutability": "nonpayable",
      "type": "function"
    },
    {
      "inputs": [
        {
          "internalType": "bool",
          "name": "enabled",
          "type": "bool"
        }
      ],
      "name": "setViewerRewardsEnabled",
      "outputs": [],
      "stateMutability": "nonpayable",
      "type": "function"
    },
    {
      "inputs": [],
      "name": "sourceChainId",
      "outputs": [
        {
          "internalType": "uint256",
          "name": "",
          "type": "uint256"
        }
      ],
      "stateMutability": "view",
      "type": "function"
    },
    {
      "inputs": [
        {
          "internalType": "address",
          "name": "",
          "type": "address"
        }
      ],
      "name": "supportedTokens",
      "outputs": [
        {
          "internalType": "bool",
          "name": "",
          "type": "bool"
        }
      ],
      "stateMutability": "view",
      "type": "function"
    },
    {
      "inputs": [
        {
          "internalType": "string",
          "name": "",
          "type": "string"
        }
      ],
      "name": "thirdwebIdToCreatorId",
      "outputs": [
        {
          "internalType": "uint256",
          "name": "",
          "type": "uint256"
        }
      ],
      "stateMutability": "view",
      "type": "function"
    },
    {
      "inputs": [
        {
          "internalType": "string",
          "name": "",
          "type": "string"
        }
      ],
      "name": "thirdwebIdToViewerId",
      "outputs": [
        {
          "internalType": "uint256",
          "name": "",
          "type": "uint256"
        }
      ],
      "stateMutability": "view",
      "type": "function"
    },
    {
      "inputs": [
        {
          "internalType": "enum StreamingPlatformTipping.MembershipTier",
          "name": "",
          "type": "uint8"
        }
      ],
      "name": "tierCreatorShares",
      "outputs": [
        {
          "internalType": "uint256",
          "name": "",
          "type": "uint256"
        }
      ],
      "stateMutability": "view",
      "type": "function"
    },
    {
      "inputs": [
        {
          "internalType": "uint256",
          "name": "creatorId",
          "type": "uint256"
        }
      ],
      "name": "tipCreatorETH",
      "outputs": [],
      "stateMutability": "payable",
      "type": "function"
    },
    {
      "inputs": [
        {
          "internalType": "uint256",
          "name": "creatorId",
          "type": "uint256"
        },
        {
          "internalType": "address",
          "name": "token",
          "type": "address"
        },
        {
          "internalType": "uint256",
          "name": "amount",
          "type": "uint256"
        }
      ],
      "name": "tipCreatorToken",
      "outputs": [],
      "stateMutability": "nonpayable",
      "type": "function"
    },
    {
      "inputs": [
        {
          "internalType": "address",
          "name": "",
          "type": "address"
        }
      ],
      "name": "tipperCount",
      "outputs": [
        {
          "internalType": "uint256",
          "name": "",
          "type": "uint256"
        }
      ],
      "stateMutability": "view",
      "type": "function"
    },
    {
      "inputs": [],
      "name": "tippingChainTreasury",
      "outputs": [
        {
          "internalType": "address",
          "name": "",
          "type": "address"
        }
      ],
      "stateMutability": "view",
      "type": "function"
    },
    {
      "inputs": [
        {
          "internalType": "uint256",
          "name": "",
          "type": "uint256"
        }
      ],
      "name": "tipsFromChain",
      "outputs": [
        {
          "internalType": "uint256",
          "name": "",
          "type": "uint256"
        }
      ],
      "stateMutability": "view",
      "type": "function"
    },
    {
      "inputs": [],
      "name": "totalRelayedToApeChain",
      "outputs": [
        {
          "internalType": "uint256",
          "name": "",
          "type": "uint256"
        }
      ],
      "stateMutability": "view",
      "type": "function"
    },
    {
      "inputs": [
        {
          "internalType": "address",
          "name": "",
          "type": "address"
        }
      ],
      "name": "totalRewardsGiven",
      "outputs": [
        {
          "internalType": "uint256",
          "name": "",
          "type": "uint256"
        }
      ],
      "stateMutability": "view",
      "type": "function"
    },
    {
      "inputs": [
        {
          "internalType": "address",
          "name": "",
          "type": "address"
        }
      ],
      "name": "totalRewardsReceived",
      "outputs": [
        {
          "internalType": "uint256",
          "name": "",
          "type": "uint256"
        }
      ],
      "stateMutability": "view",
      "type": "function"
    },
    {
      "inputs": [],
      "name": "totalTipCount",
      "outputs": [
        {
          "internalType": "uint256",
          "name": "",
          "type": "uint256"
        }
      ],
      "stateMutability": "view",
      "type": "function"
    },
    {
      "inputs": [],
      "name": "totalTipsReceived",
      "outputs": [
        {
          "internalType": "uint256",
          "name": "",
          "type": "uint256"
        }
      ],
      "stateMutability": "view",
      "type": "function"
    },
    {
      "inputs": [],
      "name": "totalUsdcReceived",
      "outputs": [
        {
          "internalType": "uint256",
          "name": "",
          "type": "uint256"
        }
      ],
      "stateMutability": "view",
      "type": "function"
    },
    {
      "inputs": [],
      "name": "totalViewerRewards",
      "outputs": [
        {
          "internalType": "uint256",
          "name": "",
          "type": "uint256"
        }
      ],
      "stateMutability": "view",
      "type": "function"
    },
    {
      "inputs": [],
      "name": "totalViewers",
      "outputs": [
        {
          "internalType": "uint256",
          "name": "",
          "type": "uint256"
        }
      ],
      "stateMutability": "view",
      "type": "function"
    },
    {
      "inputs": [
        {
          "internalType": "address",
          "name": "newOwner",
          "type": "address"
        }
      ],
      "name": "transferOwnership",
      "outputs": [],
      "stateMutability": "nonpayable",
      "type": "function"
    },
    {
      "inputs": [],
      "name": "unpause",
      "outputs": [],
      "stateMutability": "nonpayable",
      "type": "function"
    },
    {
      "inputs": [
        {
          "internalType": "uint256",
          "name": "creatorId",
          "type": "uint256"
        },
        {
          "internalType": "enum StreamingPlatformTipping.MembershipTier",
          "name": "newTier",
          "type": "uint8"
        }
      ],
      "name": "updateCreatorTier",
      "outputs": [],
      "stateMutability": "nonpayable",
      "type": "function"
    },
    {
      "inputs": [
        {
          "internalType": "uint256",
          "name": "creatorId",
          "type": "uint256"
        },
        {
          "internalType": "address",
          "name": "newWallet",
          "type": "address"
        }
      ],
      "name": "updateCreatorWallet",
      "outputs": [],
      "stateMutability": "nonpayable",
      "type": "function"
    },
    {
      "inputs": [
        {
          "internalType": "uint256",
          "name": "viewerId",
          "type": "uint256"
        },
        {
          "internalType": "address",
          "name": "newWallet",
          "type": "address"
        }
      ],
      "name": "updateViewerWallet",
      "outputs": [],
      "stateMutability": "nonpayable",
      "type": "function"
    },
    {
      "inputs": [
        {
          "internalType": "address",
          "name": "",
          "type": "address"
        }
      ],
      "name": "usdcBalances",
      "outputs": [
        {
          "internalType": "uint256",
          "name": "",
          "type": "uint256"
        }
      ],
      "stateMutability": "view",
      "type": "function"
    },
    {
      "inputs": [
        {
          "internalType": "address",
          "name": "",
          "type": "address"
        }
      ],
      "name": "viewerIds",
      "outputs": [
        {
          "internalType": "uint256",
          "name": "",
          "type": "uint256"
        }
      ],
      "stateMutability": "view",
      "type": "function"
    },
    {
      "inputs": [],
      "name": "viewerRewardsEnabled",
      "outputs": [
        {
          "internalType": "bool",
          "name": "",
          "type": "bool"
        }
      ],
      "stateMutability": "view",
      "type": "function"
    },
    {
      "inputs": [
        {
          "internalType": "uint256",
          "name": "",
          "type": "uint256"
        }
      ],
      "name": "viewers",
      "outputs": [
        {
          "internalType": "address",
          "name": "",
          "type": "address"
        }
      ],
      "stateMutability": "view",
      "type": "function"
    },
    {
      "inputs": [
        {
          "internalType": "address",
          "name": "",
          "type": "address"
        }
      ],
      "name": "walletToCreatorId",
      "outputs": [
        {
          "internalType": "uint256",
          "name": "",
          "type": "uint256"
        }
      ],
      "stateMutability": "view",
      "type": "function"
    },
    {
      "inputs": [],
      "name": "withdrawETH",
      "outputs": [],
      "stateMutability": "nonpayable",
      "type": "function"
    },
    {
      "inputs": [
        {
          "internalType": "address",
          "name": "token",
          "type": "address"
        }
      ],
      "name": "withdrawToken",
      "outputs": [],
      "stateMutability": "nonpayable",
      "type": "function"
    },
    {
      "inputs": [],
      "name": "withdrawUSDC",
      "outputs": [],
      "stateMutability": "nonpayable",
      "type": "function"
    },
    {
      "inputs": [
        {
          "internalType": "uint256",
          "name": "amount",
          "type": "uint256"
        }
      ],
      "name": "withdrawUSDCAmount",
      "outputs": [],
      "stateMutability": "nonpayable",
      "type": "function"
    }
  ],
  "bytecode": "0x604060e0815234620003c45762005b9e803803806200001e81620003c9565b92833981019060c081830312620003c4576200003a8162000405565b906020906200004b82820162000405565b906200005986820162000405565b606082015190946001600160401b03929091838111620003c45787620000819183016200041a565b96620000906080830162000405565b9360a0830151908111620003c457620000aa92016200041a565b9160019660009188835560018060a01b039586891615620003ac57620000d089620004dd565b89600a5560ff19948a86601d541617601d558a60215587811615620003685787821615620003315760805260a0524660c052600580546001600160a81b03191660089290921b610100600160a81b03169190911789179055600688905581805260038087528983206117709055888352898320611b58905560028352898320611f40905582528882206123289055879082825b620002ef575b505081905b6200026d575b886200018088620004dd565b5161565490816200054a823960805181818161082d015281816108e4015281816109f0015281816110d701528181611320015281816118e4015281816119be01528181611d5d015281816128ea015281816133950152614554015260a0518181816107f40152818161089101528181610ac101528181610d7c0152818161188b0152818161196d01528181611c3701528181611cd401528181611e2f015281816126da015281816127e601528181612d3901528181612dad015281816136f90152818161392801528181613a43015261457e015260c05181818161115801528181613af50152614eb40152f35b8351811015620002e95790620002de82866200028e8796958c9998620004b2565b51168352601688528a8320878582541617905585620002ae8287620004b2565b51167f5afe4db7a7f6fb62654cf58aa1c5b48bf792e80667fd0480625d1e5d52744937898d518a8152a26200048c565b90919293946200016e565b62000174565b81518110156200032b5780876200030b620003249385620004b2565b51168552600e89528b852084878254161790556200048c565b8262000163565b62000169565b8b5162461bcd60e51b8152600481018a9052601060248201526f496e76616c696420747265617375727960801b6044820152606490fd5b8b5162461bcd60e51b8152600481018a9052601660248201527f496e76616c696420627573696e657373206f776e6572000000000000000000006044820152606490fd5b8a51631e4fbdf760e01b815260048101859052602490fd5b600080fd5b6040519190601f01601f191682016001600160401b03811183821017620003ef57604052565b634e487b7160e01b600052604160045260246000fd5b51906001600160a01b0382168203620003c457565b81601f82011215620003c4578051916001600160401b038311620003ef578260051b60209283806200044e818501620003c9565b809781520192820101928311620003c4578301905b82821062000472575050505090565b838091620004808462000405565b81520191019062000463565b60001981146200049c5760010190565b634e487b7160e01b600052601160045260246000fd5b8051821015620004c75760209160051b010190565b634e487b7160e01b600052603260045260246000fd5b600280546001600160a01b031916905560018054610100600160a81b03198116600884811b610100600160a81b0316919091179092556001600160a01b0392831692911c167f8be0079c531659141344cd1fd0a4f28419497f9722a3daafe3b4186f6b6457e0600080a356fe6101408060405260048036101561001557600080fd5b60e0600035811c9283630362109014613dd357508263086533da14613d795782630f43b38c14613b8857826312e4cd9514613b5d578263136d888314613b185782631544298e14613add57826318c48d2b1461374d57826319738b92146135875782631b8c0f9e146134e957826324d7806c14612a9c5782632516f8e61461344f57826326ab875f1461338057826326b5ee0d1461335d57826326de54881461330d578263273d4241146132bc578263275dec08146131a457826329e295c5146131655782632d345670146130bb5782632ea169c81461304c5782632fd232ed1461300457826330e38a6714612fd25782633308d35f14612f9857826335bb3e1614612eae57826339c0931514612e7f5782633a57cb3214612e0a5782633b78012e14612b925782633df77f1e14612b755782633f4ba83a14612b1e5782634043790014612af8578263429895ac14612adb578263429b62e514612a9c57826345163c5414612a245782634687d393146129ea5782634bb22c721461224a5782634d3fd506146129bf5782634eacff20146128c25782635155cb161461288f5782635603fe5f146124d0575081635943da56146122e15781635a71e2f8146124345781635a9f462f1461233e5781635c975abb1461231b578163663222c5146122e157816366b55126146122ac57816368c4ac261461226d57816369a277561461224f5781636c590e6f1461224a5781636d69fcaf146122055781636fa75ec5146121e7578163715018a614612188578163763191901461214657816379ba5097146120b95781638456cb5914612060578163845e4fc014611e8c57816385b5741114611e565781638947606914611d2c5781638ad3ffe214611a505781638cdb0b70146116745781638da5cb5b146116475781638f747f7b146114aa5781639559896f146113c757816396a8374b146112a3578163981886a7146112765781639961bbf3146111dd57816399a95de0146111ae5781639a06904614610f86578163a0dddf9514611190578163a1b13f5914611140578163a6a7829514611106578163a73ebd71146110c1578163a99c68c514611087578163aa2b440214611058578163ae8cea1414611035578163b5af960d14610ffb578163beaba56c14610fde578163bf67cd1a14610fc0578163c0cad1fd14610f86578163c137ae6e14610f30578163c265316914610ecc578163c489744b14610e7b578163c84aae1714610e34578163cd53d08e14610dc9578163cf51bfdd14610dab578163d5760a4114610d66578163d8fc063d14610cb7578163db2e21bc14610c22578163dda0053f14610b07578163df9e842214610ae9578163e086e5ec146109cd578163e18b8e6f1461096e578163e1f1c4a714610951578163e30c397814610928578163e49107ad1461065b578163efe8c0841461063d578163f05db44f1461061f578163f2fde38b146105ac578163f60db4371461058e578163f8277b14146104e157508063f8325606146104a75763fbed8fce1461047057600080fd5b346104a25760003660031901126104a2576060601c5460ff601d54166040519182521515602082015260646040820152f35b600080fd5b346104a25760203660031901126104a2576001600160a01b036104c8613fa3565b1660005260196020526020604060002054604051908152f35b346104a2576104ef3661433f565b909182151580610583575b610503906147fa565b6101f49081830291838304148315171561056e575061055e61056a9161052f6127108092048095614506565b94600052600760205261055661054f60ff600360406000200154166142f5565b54866148bf565b048094614506565b6040519384938461430e565b0390f35b601190634e487b7160e01b6000525260246000fd5b50600a5483106104fa565b346104a25760003660031901126104a2576020600a54604051908152f35b346104a25760203660031901126104a2576105c5613fa3565b6105cd614355565b600280546001600160a01b0319166001600160a01b03928316908117909155600154909160089190911c167f38d16b8cac22d99fc7c124b9cd0de2d3fa1faef420bfe791d8c362d765e22700600080a3005b346104a25760003660031901126104a2576020602154604051908152f35b346104a25760003660031901126104a2576020601154604051908152f35b6020806003193601126104a257813590610673614927565b61067b614909565b8115158061091d575b61068d906147fa565b81600052600781526106a960ff60406000205460a01c1661483b565b6106b76103e834101561487c565b816000526007815260018060a01b03928360406000205416916101f49182340292348404143415171561056e57509360008051602061559f833981519152916000956127108092049061072b61070d8334614506565b93888a526007835261055661054f60ff600360408e200154166142f5565b9588946005548160ff8216918261090e575b5050610882575b916014916107d3949387156107f1575b5050888a5260078152600160408b200161076f3482546148d2565b9055888a5260078152600260408b200161078981546144a4565b9055610797346011546148d2565b6011556107a56012546144a4565b601255338a525283604089206107bb81546144a4565b90556107dd575b6040519384933397429334876148df565b0390a46001600055005b6107e9346013546148d2565b6013556107c2565b807f0000000000000000000000000000000000000000000000000000000000000000168c52600f835260408c206108298682546148d2565b90557f0000000000000000000000000000000000000000000000000000000000000000168b52600f825260408b206108628a82546148d2565b90558a52600f815260408a206108798682546148d2565b90558a80610754565b94506107d392916014916108b67f000000000000000000000000000000000000000000000000000000000000000085614b32565b806108de575b806108ce575b96919394509150610744565b506108d98187614b32565b6108c2565b506109097f00000000000000000000000000000000000000000000000000000000000000008a614b32565b6108bc565b60081c1615159050818c61073d565b50600a548210610684565b346104a25760003660031901126104a2576002546040516001600160a01b039091168152602090f35b346104a25760003660031901126104a25760206040516127108152f35b346104a2576109a76109b56109c361098e6109883661433f565b90615312565b9392949091604051968796608088526080880190614102565b9086820360208801526142b8565b908482036040860152614102565b9060608301520390f35b346104a25760003660031901126104a2576109e6614927565b60018060a01b03807f0000000000000000000000000000000000000000000000000000000000000000163314908115610abd575b508015610aa5575b610a2b9061477a565b33600052600f60205260008080806040812054610a49811515614f0b565b338252600f602052816040812055335af1610a62614b02565b5015610a6f576001600055005b60649060206040519162461bcd60e51b8352820152600f60248201526e151c985b9cd9995c8819985a5b1959608a1b6044820152fd5b50336000908152600860205260409020541515610a22565b90507f000000000000000000000000000000000000000000000000000000000000000016331482610a1a565b346104a25760003660031901126104a2576020602254604051908152f35b346104a257610b15366140a0565b90916001600160a01b0316610b2b8115156147b5565b80600052602092601f8452610b4560406000205415614410565b7f66b7819a3ec972e9aa3637fad1f894ccb6ee5db81053440f50180cfa9d5e24668315159182610c00575b602154948593610b7f856144a4565b6021556000858152601e8952604080822080546001600160a01b03191689179055878252601f8a529020859055610be6575b610bbc6022546144a4565b602255610bd6604051928392604084526040840191615111565b42888301520390a3604051908152f35b836040518284823788818481018281520301902055610bb1565b610c1d604051868382378781888101828152030190205415614458565b610b70565b346104a25760003660031901126104a257610c3b614355565b610c43615296565b600080808047610c54811515614f0b565b60015460081c6001600160a01b03165af1610c6d614b02565b5015610c7557005b60649060206040519162461bcd60e51b8352820152601b60248201527a115b595c99d95b98de481dda5d1a191c985dd85b0819985a5b1959602a1b6044820152fd5b346104a25760003660031901126104a257610cd0614927565b610cd8614909565b336000526015602052604060002054908115610d30575033600052601560205260006040812055610d098133614f44565b6040519081524260208201526000805160206155df83398151915260403392a26001600055005b60649060206040519162461bcd60e51b8352820152600f60248201526e4e6f20555344432062616c616e636560881b6044820152fd5b346104a25760003660031901126104a2576040517f00000000000000000000000000000000000000000000000000000000000000006001600160a01b03168152602090f35b346104a25760003660031901126104a2576020601754604051908152f35b346104a25760203660031901126104a25735600052600760205260a06040600020610e3281549160018101549060ff60036002830154920154169160ff60405195600180891b0381168752871c16151560208601526040850152606084015260808301906140df565bf35b346104a25760203660031901126104a2576001600160a01b03610e55613fa3565b16600052600f602052604080600020546015602052816000205482519182526020820152f35b346104a25760403660031901126104a257610e94613fa3565b610e9c613fb9565b9060018060a01b038091166000526010602052604060002091166000526020526020604060002054604051908152f35b346104a25760203660031901126104a2573580151580610f25575b610ef09061547f565b600052601e60205260018060a01b036040600020541680600052601a6020526040600020549061056a60405192839283614324565b506021548110610ee7565b346104a25760203660031901126104a2576001600160a01b03610f51613fa3565b166000526019602052604060002054601a60205260406000205490601b60205261056a6040600020546040519384938461430e565b346104a25760203660031901126104a2576001600160a01b03610fa7613fa3565b16600052601f6020526020604060002054604051908152f35b346104a25760003660031901126104a2576020601c54604051908152f35b346104a25760003660031901126104a25760206040516181738152f35b346104a25760203660031901126104a2576001600160a01b0361101c613fa3565b16600052601b6020526020604060002054604051908152f35b346104a25760003660031901126104a257602060ff600554166040519015158152f35b346104a25760003660031901126104a257602060405173f5042e6ffac5a625d4e7848e0b01373d8eb9e2228152f35b346104a25760203660031901126104a2576001600160a01b036110a8613fa3565b1660005260156020526020604060002054604051908152f35b346104a25760003660031901126104a2576040517f00000000000000000000000000000000000000000000000000000000000000006001600160a01b03168152602090f35b346104a257602061112d8161111a3661420a565b8160405193828580945193849201614248565b8101600981520301902054604051908152f35b346104a25760003660031901126104a25760406017547f00000000000000000000000000000000000000000000000000000000000000006000526018602052816000205482519182526020820152f35b346104a25760003660031901126104a2576020601254604051908152f35b346104a25760203660031901126104a2578035908110156104a2576111d46020916142f5565b54604051908152f35b346104a25760603660031901126104a25780356111f8613fb9565b90604435928315158094036104a2576000828152600760205260409020546001600160a01b039290831633148015611261575b6112349061477a565b6000526007602052604060002001911660005260205260406000209060ff80198354169116179055600080f35b506112348360015460081c163314905061122b565b346104a25760003660031901126104a25760055460405160089190911c6001600160a01b03168152602090f35b346104a25760403660031901126104a257356112bd613fb9565b9080600052602090600782527fd724124b989ca2e386201a32c8915b75b3a4aaa37cbf16d69d79d886646c439760018060a01b0380948160406000205416331480156113b2575b61130d9061477a565b169361131a8515156147b5565b611348817f0000000000000000000000000000000000000000000000000000000000000000168614156143c5565b846000526008845261135f60406000205415614410565b82600052600784526040600020541692836000526008815260006040812055826000526007815260406000208560018060a01b0319825416179055846000526008815282604060002055604051428152a4005b5061130d8260015460081c1633149050611304565b346104a25760403660031901126104a257803590602435818110156104a2576113ee614355565b8215158061149f575b611400906147fa565b82600052600760205260ff60036040600020015416918083101561148a575080820361142857005b7f09008ba0853e609e7a75bea6fc2d06cef00276c9ff99b3fae802e293164408ee9161148160609285600052600760205261146a8160036040600020016144c9565b61147760405180946140df565b60208301906140df565b426040820152a2005b602190634e487b7160e01b6000525260246000fd5b50600a5483106113f7565b346104a25760403660031901126104a25780356114c5613fb9565b908015158061163c575b6114d89061547f565b80600052602091601e835260018060a01b0390816040600020541633036116075781169384156115ce5784600052601f845260406000205461158a57507f587b8d1a4c4a4a9fefa5c2f976a033ea6b0525861ae3bc112b3f8ba6206ba7c49082600052601e8452604060002054169283600052601f81526000604081205582600052601e815260406000208560018060a01b031982541617905584600052601f815282604060002055604051428152a4005b60405162461bcd60e51b8152908101849052601d60248201527f4e65772077616c6c657420616c726561647920726567697374657265640000006044820152606490fd5b60405162461bcd60e51b81529081018490526012602482015271125b9d985b1a59081b995dc81dd85b1b195d60721b6044820152606490fd5b60405162461bcd60e51b8152808601859052600e60248201526d139bdd08185d5d1a1bdc9a5e995960921b6044820152606490fd5b5060215481106114cf565b346104a25760003660031901126104a25760015460405160089190911c6001600160a01b03168152602090f35b346104a25760603660031901126104a25761168d613fb9565b611695614927565b61169d614909565b8135151580611a44575b6116b0906147fa565b813560005260076020526116ce60ff60406000205460a01c1661483b565b6116e26001600160a01b038216151561494a565b6116f26103e8604435101561487c565b6001600160a01b0381166000908152600e602052604090205460ff168015611a14575b61171e9061498e565b8135600052600760205260018060a01b03604060002054169061174d604435303360018060a01b0385166149d0565b6101f48060443502906044358204146044351517156119ff5760008051602061559f83398151915290612710926107d361178b858404604435614506565b92873560005260076020526117c0866117b86117b160ff600360406000200154166142f5565b54876148bf565b048095614506565b9660009060055460ff811690816119e9575b50611966575b8115611882575b508835600052600760205260016040600020016117ff60443582546148d2565b905588356000526007602052600260406000200161181d81546144a4565b905561182a6012546144a4565b60125533600052601460205280604060002061184681546144a4565b905561186c575b60405194859460018060a01b03169935983398429404604435876148df565b61187a6044356013546148d2565b60135561184d565b60018060a01b037f0000000000000000000000000000000000000000000000000000000000000000166000526010602052604060002060018060a01b03861660005260205260406000206118d989850482546148d2565b905560018060a01b037f0000000000000000000000000000000000000000000000000000000000000000166000526010602052604060002060018060a01b03861660005260205260406000206119308a82546148d2565b90556000526010602052604060002060018060a01b038516600052602052604060002061195e8682546148d2565b9055896117df565b90506119957f000000000000000000000000000000000000000000000000000000000000000088840486614c9a565b806119b8575b806119a7575b906117d8565b506119b3818686614c9a565b6119a1565b506119e47f00000000000000000000000000000000000000000000000000000000000000008986614c9a565b61199b565b60081c6001600160a01b0316151590508b6117d2565b601184634e487b7160e01b6000525260246000fd5b50813560009081526007602090815260408083206001600160a01b0385168452850190915290205460ff16611715565b50600a548235106116a7565b346104a25760803660031901126104a257611a69613fa3565b90611a72613fb9565b604435929091906064356001600160401b0381116104a257611a979036908401614073565b9091611aa1614927565b611aa9614909565b3360005260209560088752604060002054611ac5811515614fbb565b60005260078752611ae060ff60406000205460a01c1661483b565b611aee60ff601d5416615002565b6001600160a01b038281169790611b06891515615048565b611b12338a141561508d565b80881696611b2188151561494a565b611b2e60648510156150d2565b87600052600e8352611b4760ff6040600020541661498e565b611b538430338b6149d0565b60648402908482046064148515171561056e575091611c9b9593916127106000805160206154ff833981519152999896940493611b908585614506565b9a33600052601984526040600020611ba98682546148d2565b90558c600052601a84526040600020611bc38d82546148d2565b905533600052601b84526040600020611bdc81546144a4565b9055611bea85601c546148d2565b601c556000916005548460ff82169182611d1d575b5050611ccb575b505015998a15611cb5578b600052601083526040600020896000528352611c3360406000209182546148d2565b90557f0000000000000000000000000000000000000000000000000000000000000000166000526010815260406000208760005281526040600020611c798482546148d2565b90555b604051968752860152604085015260c0606085015260c0840191615111565b921560808201524260a08201528033930390a36001600055005b5050611cc3826013546148d2565b601355611c7c565b9091508b611cfa7f00000000000000000000000000000000000000000000000000000000000000008885614c9a565b9283611d0b575b5050508c80611c06565b611d159350614c9a565b8c8b81611d01565b60081c16151590508438611bff565b346104a2576020806003193601126104a257611e0d90611d4a613fa3565b611d52614927565b6001600160a01b03337f00000000000000000000000000000000000000000000000000000000000000008216148015611e2b575b8015611e14575b611d969061477a565b33600052601083526040600020911690816000528252611e0860406000205492611dc1841515614f0b565b3360005260108152604060002083600052815260006040812055611dfa60405194859263a9059cbb60e01b908401523360248401614324565b03601f198101845283614195565b614a7a565b6001600055005b503360009081526008845260409020541515611d8d565b50807f0000000000000000000000000000000000000000000000000000000000000000163314611d86565b346104a25760203660031901126104a257611e6f613fcf565b611e77614355565b60ff8019600554169115151617600555600080f35b346104a257602090816003193601126104a25780356001600160401b0381116104a257611ebc9036908301613fde565b916064831161201e57509190611ed1816152cc565b91611edb826152cc565b611ee4836152b5565b94611ef26040519687614195565b838652611efe846152b5565b8684019490601f190136863760005b818110611f7d575050509381611f41611f3496604051978897606089526060890190614102565b90878203848901526142b8565b918583036040870152519182815201929160005b828110611f6457505050500390f35b8351151585528695509381019392810192600101611f55565b80611f90611fa59284869b999a9b6151ee565b3580151580612013575b611fae575b506144a4565b96959496611f0d565b80600052600790818852600160406000200154611fcb848d6152fe565b52600081815282895260409020546001600160a01b0316611fec84896152fe565b52600052865260ff60406000205460a01c1661200882896152fe565b901515905289611f9f565b50600a548110611f9a565b60405162461bcd60e51b8152908101849052601b60248201527a151bdbc81b585b9e4818dc99585d1bdc9cc81c995c5d595cdd1959602a1b6044820152606490fd5b346104a25760003660031901126104a257612079614355565b612081614909565b600160ff19815416176001557f62e78cea01bee320cd4e420270b5ea74000d11b0c9f74754ebdbfc544b05a2586020604051338152a1005b346104a25760003660031901126104a2576002546001600160a01b0391338383160361212e57506001600160a01b03191660025560018054610100600160a81b0319811633600881811b610100600160a81b0316929092179093559192911c166000805160206155bf833981519152600080a3005b6024906040519063118cdaa760e01b82523390820152fd5b346104a25760203660031901126104a25761215f613fa3565b612167614355565b6001600160a01b03166000908152600e60205260409020805460ff19169055005b346104a25760003660031901126104a2576121a1614355565b600280546001600160a01b031916905560018054610100600160a81b0319811690915560009060081c6001600160a01b03166000805160206155bf8339815191528280a3005b346104a25760003660031901126104a2576020600b54604051908152f35b346104a25760203660031901126104a25761221e613fa3565b612226614355565b6001600160a01b03166000908152600e60205260409020805460ff19166001179055005b61426b565b346104a25760003660031901126104a2576020601354604051908152f35b346104a25760203660031901126104a2576001600160a01b0361228e613fa3565b16600052600e602052602060ff604060002054166040519015158152f35b346104a25760203660031901126104a25735600c548110156104a2576122d3602091614287565b90546040519160031b1c8152f35b346104a25760203660031901126104a2576001600160a01b03612302613fa3565b1660005260086020526020604060002054604051908152f35b346104a25760003660031901126104a257602060ff600154166040519015158152f35b346104a2576020806003193601126104a25781359161235b614927565b612363614909565b821561240157336000526015825282604060002054106123c8575033600052601581526040600020612396838254614506565b90556123a28233614f44565b60405191825242908201526000805160206155df83398151915260403392a26001600055005b6064916040519162461bcd60e51b83528201526014602482015273496e73756666696369656e742062616c616e636560601b6044820152fd5b6064916040519162461bcd60e51b8352820152600e60248201526d125b9d985b1a5908185b5bdd5b9d60921b6044820152fd5b346104a25760203660031901126104a25761244d613fa3565b612455614355565b6001600160a01b031690811561249a57508060005260166020526040600020600160ff198254161790556000805160206155ff833981519152602060405160018152a2005b60649060206040519162461bcd60e51b8352820152600f60248201526e24b73b30b634b2103932b630bcb2b960891b6044820152fd5b6124d93661400e565b60c0979397969295965261012094855260809687526124f6614927565b6124fe614909565b336000526101006008815260209160088352604060002054612521811515614fbb565b6000526007835260ff84526040600020549361254360ff60a096871c1661483b565b6125518151601d5416615002565b61255d8851881461516b565b61256a60c051881461516b565b61257760328811156151af565b600097885b8151808b10156125ad576125a79161259a8c8f936125a194516151ee565b35906148d2565b996144a4565b9861257c565b508a896125bc8e9334146151fe565b600089525b88518181101561286d576125d69082846151ee565b35151580612851575b6125e89061547f565b6125f4895182846151ee565b356000908152601e895260409020546001600160a01b039081169061261a8215156154bf565b6126263383141561508d565b61263c6126448c6064928391518a518a516151ee565b3510156150d2565b6126528c51885188516151ee565b3581810291818304149015171561283c578b888b8d8a956126988b6126926127106000805160206154ff8339815191529904998a928951915190516151ee565b35614506565b928160009560055490518116928361282a575b5050506127dc575b601a9190846127b85788600052600f9081835260406000206126d68682546148d2565b90557f0000000000000000000000000000000000000000000000000000000000000000166000528152604060002061270f8882546148d2565b90555b61272085518d518d516151ee565b35336000526019825261273960406000209182546148d2565b9055876000525261275060406000209182546148d2565b905561276082518a518a516151ee565b3561276e601c9182546148d2565b90556127a461279161278484518c518c516151ee565b3593518d60c05190615255565b9390926040519485943398429487615132565b0390a36127b189516144a4565b89526125c1565b506127c785518d518d516151ee565b356127d560139182546148d2565b9055612712565b9250601a9061280b7f000000000000000000000000000000000000000000000000000000000000000088614b32565b8061281a575b939091506126b3565b506128258884614b32565b612811565b90919250511c1615158f3883916126ab565b60118d634e487b7160e01b6000525260246000fd5b506125e86128618a5183856151ee565b356021541190506125df565b50601b88336000525261288660406000209182546148d2565b90556001600055005b50346104a25760203660031901126104a25735600052601e602052602060018060a01b0360406000205416604051908152f35b50346104a257602090816003193601126104a2576128de613fa3565b906001600160a01b03337f000000000000000000000000000000000000000000000000000000000000000082161480156129a8575b61291c9061477a565b33600052601084526040600020908316908160005284526040600020549182156129715761296f61296a85858589336000526010815260406000209160005252600060408120553391614c9a565b614f79565b005b60405162461bcd60e51b8152908101859052601060248201526f4e6f20746f6b656e2062616c616e636560801b6044820152606490fd5b503360009081526008855260409020541515612913565b50346104a25760203660031901126104a25735600052600d6020526020604060002054604051908152f35b346104a25760203660031901126104a2576001600160a01b03612a0b613fa3565b16600052601a6020526020604060002054604051908152f35b346104a25760203660031901126104a2577f127e7000860e147537565064385997c3085650c31b251451c0c7e198613e74d3612a97612a61613fcf565b612a69614355565b60ff19601d541660ff8215151617601d55604051918291429083602090939291936040810194151581520152565b0390a1005b346104a25760203660031901126104a2576001600160a01b03612abd613fa3565b166000526023602052602060ff604060002054166040519015158152f35b346104a25760003660031901126104a25760206040516103e88152f35b346104a2576020612b0c8161111a3661420a565b81018281520301902054604051908152f35b346104a25760003660031901126104a257612b37614355565b612b3f615296565b60ff19600154166001557f5db9ee0a495bf2e6ff9c91a7834c1ba4fdd244a5e8aa4e537bd38aeae4b073aa6020604051338152a1005b346104a25760003660031901126104a25760206040516101f48152f35b5060403660031901126104a25780356024356001600160401b0381116104a257612bbf9036908401614073565b91612bc8614927565b612bd0614909565b3360005260209060088252604060002054612bec811515614fbb565b60005260078252612c0760ff60406000205460a01c1661483b565b612c1560ff601d5416615002565b80151580612dff575b612c279061547f565b600052601e815260018060a01b0390816040600020541693612c4a8515156154bf565b612c563386141561508d565b612c6360643410156150d2565b60643402953487046064143415171561056e57506127106000805160206154ff83398151915294959604612c978134614506565b33600052601984526040600020612caf3482546148d2565b905587600052601a84526040600020612cc98282546148d2565b905533600052601b84526040600020612ce281546144a4565b9055612cf034601c546148d2565b601c556000936005548660ff82169182612df0575b5050612da2575b8495612d81949515600014612d8b57600f928a600052838352612d3560406000209182546148d2565b90557f000000000000000000000000000000000000000000000000000000000000000016600052526040600020612d6d8282546148d2565b90555b604051938493339742933487615132565b0390a36001600055005b505050612d9a346013546148d2565b601355612d70565b612d81939450612dd27f000000000000000000000000000000000000000000000000000000000000000084614b32565b80612de0575b949350612d0c565b50612deb8983614b32565b612dd8565b60081c1615159050868b612d05565b506021548110612c1e565b50346104a25760403660031901126104a2576001600160a01b03612e2c613fb9565b169081600052600e60205260ff60406000205416908115612e55575b6020826040519015158152f35b80915035600052600760205260406000200190600052602052602060ff6040600020541682612e48565b346104a25760003660031901126104a2576020604051733c499c542cef5e3811e1192ce70d8cc03d5c33598152f35b50346104a2576020806003193601126104a257612ec9613fa3565b612ed1614355565b6001600160a01b0316918215612f5e57826000526023825260ff60406000205416612f29575060008051602061555f8339815191529082600052602381526040600020600160ff1982541617905560405160018152a2005b6064916040519162461bcd60e51b8352820152601060248201526f20b63932b0b23c9030b71030b236b4b760811b6044820152fd5b6064916040519162461bcd60e51b83528201526015602482015274496e76616c69642061646d696e206164647265737360581b6044820152fd5b346104a25760203660031901126104a2576001600160a01b03612fb9613fa3565b1660005260146020526020604060002054604051908152f35b50346104a25760203660031901126104a2578035600052602052602060ff60406000205416610e3260405180926140df565b346104a25760203660031901126104a25761301d613fa3565b613025614355565b60058054610100600160a81b03191660089290921b610100600160a81b0316919091179055005b346104a25760003660031901126104a25760405180600c54808252826020809301600c600052836000209260005b858282106130a55750505061309192500383614195565b61056a604051928284938452830190614102565b855484526001958601958895509301920161307a565b50346104a25760203660031901126104a2576130d5613fa3565b6130dd614355565b6001600160a01b031660008181526023602052604090205490919060ff16156131325750806000526023602052604060002060ff19815416905560008051602061555f833981519152602060405160008152a2005b60649060206040519162461bcd60e51b8352820152600c60248201526b2737ba1030b71030b236b4b760a11b6044820152fd5b346104a25760203660031901126104a2576001600160a01b03613186613fa3565b166000526016602052602060ff604060002054166040519015158152f35b50346104a25760403660031901126104a2576001600160401b0381358181116104a2576131d49036908401613fde565b916024359081116104a2576131ec9036908501613fde565b6001549194913360089190911c6001600160a01b03161480156132a3575b61321390614384565b61321e81851461516b565b613227846152cc565b9360005b818110613248576040516020808252819061056a90820189614102565b61325b6132568284886151ee565b615241565b9061326781858a6151ee565b35858110156104a25761329e9261328e91604051916132858361417a565b60008352614538565b61329882896152fe565b526144a4565b61322b565b503360009081526023602052604090205460ff1661320a565b50346104a25760203660031901126104a2578035906001600160401b0382116104a25760206132ef819284369101614073565b91908260405193849283378101600981520301902054604051908152f35b50346104a25760203660031901126104a2578035906001600160401b0382116104a2576020613340819284369101614073565b919082604051938492833781018281520301902054604051908152f35b346104a25760003660031901126104a257602060ff601d54166040519015158152f35b50346104a25760003660031901126104a257337f00000000000000000000000000000000000000000000000000000000000000006001600160a01b0316148015613437575b6133ce9061477a565b33600052600f6020526040600020549081156134025761296f61296a8333600052600f602052600060408120553390614b32565b60649060206040519162461bcd60e51b8352820152600e60248201526d4e6f204554482062616c616e636560901b6044820152fd5b503360009081526008602052604090205415156133c5565b50346104a25760203660031901126104a25735801515806134de575b613474906147fa565b600052600760205260c0604060002060ff6003820154166134d7613497826142f5565b5491835493600260018201549101549060ff6040519660018060a01b038116885260a01c16151560208701526040860152606085015260808401906140df565b60a0820152f35b50600a54811061346b565b50346104a25760603660031901126104a257613503613fa3565b60243590828210156104a257604435916001600160401b0383116104a25761356161353660209561356795369101614073565b6001543360089190911c6001600160a01b031614801561356f575b61355a90614384565b36916141d3565b91614538565b604051908152f35b5033600090815260238852604090205460ff16613551565b50613591366140a0565b613599614927565b6135a1614909565b33600052602092600884526040600020546135bd811515614fbb565b600052600784526135d860ff60406000205460a01c1661483b565b6135e660ff601d5416615002565b6001600160a01b0381811694909290613600861515615048565b61360c3387141561508d565b61361960643410156150d2565b60643402963488046064143415171561056e57506127106000805160206154ff833981519152959697049061364e8234614506565b90336000526019815260406000206136673482546148d2565b905588600052601a815260406000206136818382546148d2565b905533600052601b8152604060002061369a81546144a4565b90556136a834601c546148d2565b601c556000946005548760ff8216918261373e575b50506136ee575b508495612d81949515600014612d8b57600f928a600052838352612d3560406000209182546148d2565b612d8194955061371e7f000000000000000000000000000000000000000000000000000000000000000085614b32565b908161372d575b5094936136c4565b613738915083614b32565b8a613725565b60081c1615159050878c6136bd565b506137573661400e565b94926137669691929496614927565b61376e614909565b336000526008602052604060002054613788811515614fbb565b60005260076020526137a460ff60406000205460a01c1661483b565b6137b260ff601d5416615002565b6137bd85881461516b565b6137c886881461516b565b6137d560328811156151af565b6000805b868210613abf576137ec915034146151fe565b60005b878110613810578733600052601b60205261288660406000209182546148d2565b6138316001600160a01b03613829613256848c8a6151ee565b161515615048565b613853336001600160a01b0361384b613256858d8b6151ee565b16141561508d565b60646138648161263c848a876151ee565b61386f8288856151ee565b358181029181830414901517156119ff579081886138976127108c9504612692858c896151ee565b9189898760009560055460ff81169081613aa9575b50613a2e575b876139d7816139d061325682613a089e8a996139c28f8e9d6000805160206154ff8339815191529f9c6139df9c613a009e889415600014613a0d576001600160a01b03613903613256878b8b6151ee565b16600052600f80602052604060002061391d8482546148d2565b905560018060a01b037f0000000000000000000000000000000000000000000000000000000000000000166000526020526139626127106040600020920482546148d2565b90555b6139708484846151ee565b3533600052601960205261398a60406000209182546148d2565b90556001600160a01b036139a2613256868a8a6151ee565b16600052601a6020526139bb60406000209182546148d2565b90556151ee565b356139bb601c9182546148d2565b958d6151ee565b35968d615255565b93909660405194859460018060a01b03169833986127104295049087615132565b0390a36144a4565b6137ef565b50613a198484846151ee565b35613a2760139182546148d2565b9055613965565b8780975080928186959796938789838f613a6c7f00000000000000000000000000000000000000000000000000000000000000006127108604614b32565b9283613a88575b5050509b5050935050925050939192936138b2565b613aa193509161325691613a9b936151ee565b83614b32565b838f8c613a73565b60081c6001600160a01b031615159050386138ac565b613ad1613ad79161259a848a876151ee565b916144a4565b906137d9565b346104a25760003660031901126104a25760206040517f00000000000000000000000000000000000000000000000000000000000000008152f35b346104a25760003660031901126104a25760a0601154601254601354600b549060ff600554169260405194855260208501526040840152606083015215156080820152f35b50346104a25760203660031901126104a2573560005260186020526020604060002054604051908152f35b50346104a25760403660031901126104a257803590602435908115158083036104a257613bb3614355565b83151580613d6e575b613bc5906147fa565b8360005260076020526040600020908154908060ff8360a01c16151503613be857005b60ff60a01b1990911660a09190911b60ff60a01b161790558115613c6f57613c11600b546144a4565b600b55613c1d836144e1565b600c5460001981019190821161056e575060008051602061551f83398151915291613c6a9184600052600d6020526040600020555b60408051911515825242602083015290918291820190565b0390a2005b600b5490811561056e57600019809201600b5583600052600d602052604060002054600c54838101908111613d5957808203613d0e575b5050600c54908115613cf957509181613c6a9260008051602061551f833981519152940190613cd482614287565b909182549160031b1b19169055600c5583600052600d60205260006040812055613c52565b603190634e487b7160e01b6000525260246000fd5b613d1790614287565b90549060031b1c613d4481613d2b84614287565b90919082549060031b91821b91600019901b1916179055565b600052600d6020526040600020558480613ca6565b601183634e487b7160e01b6000525260246000fd5b50600a548410613bbc565b346104a25760203660031901126104a257613d92613fa3565b613d9a614355565b6001600160a01b03166000818152601660209081526040808320805460ff19169055519182526000805160206155ff83398151915291a2005b9050346104a25760803660031901126104a257613dee613fa3565b916024359163ffffffff83168093036104a2576064803594336000526020926016845260ff6040600020541615613f6c5750613e28614927565b613e30614909565b8515613f2f576001600160a01b0316928315613efa57506040516323b872dd60e01b83820152336024820152306044820152808201869052908152613e7d90613e788161415f565b614a12565b81600052601581526040600020613e958582546148d2565b9055613ea3846017546148d2565b60175582600052601881526040600020613ebe8582546148d2565b905560405193845242908401527f9d580963f6995529c22257725491b9d27d903d9b0901dca02b6599964b6933d3604060443594a46001600055005b60405162461bcd60e51b81529081018390526011602482015270125b9d985b1a59081c9958da5c1a595b9d607a1b6044820152fd5b5092506040519162461bcd60e51b83528201526018602482015277139bc81554d110c8185b5bdd5b9d081cdc1958da599a595960421b6044820152fd5b62461bcd60e51b815284810184905260146024820152732ab730baba3437b934bd32b2103932b630bcb2b960611b60448201529050fd5b600435906001600160a01b03821682036104a257565b602435906001600160a01b03821682036104a257565b6004359081151582036104a257565b9181601f840112156104a2578235916001600160401b0383116104a2576020808501948460051b0101116104a257565b9060606003198301126104a2576001600160401b036004358181116104a2578361403a91600401613fde565b939093926024358381116104a2578261405591600401613fde565b939093926044359182116104a25761406f91600401613fde565b9091565b9181601f840112156104a2578235916001600160401b0383116104a257602083818601950101116104a257565b9060406003198301126104a2576004356001600160a01b03811681036104a25791602435906001600160401b0382116104a25761406f91600401614073565b9060048210156140ec5752565b634e487b7160e01b600052602160045260246000fd5b90815180825260208080930193019160005b828110614122575050505090565b835185529381019392810192600101614114565b6001600160401b03811161414957604052565b634e487b7160e01b600052604160045260246000fd5b60a081019081106001600160401b0382111761414957604052565b602081019081106001600160401b0382111761414957604052565b601f909101601f19168101906001600160401b0382119082101761414957604052565b6001600160401b03811161414957601f01601f191660200190565b9291926141df826141b8565b916141ed6040519384614195565b8294818452818301116104a2578281602093846000960137010152565b60206003198201126104a257600435906001600160401b0382116104a257806023830112156104a257816024614245936004013591016141d3565b90565b60005b83811061425b5750506000910152565b818101518382015260200161424b565b346104a25760003660031901126104a257602060405160648152f35b600c548110156142a257600c60005260206000200190600090565b634e487b7160e01b600052603260045260246000fd5b90815180825260208080930193019160005b8281106142d8575050505090565b83516001600160a01b0316855293810193928101926001016142ca565b60048110156140ec576000526003602052604060002090565b6040919493926060820195825260208201520152565b6001600160a01b039091168152602081019190915260400190565b60409060031901126104a2576004359060243590565b60015460081c6001600160a01b0316330361436c57565b60405163118cdaa760e01b8152336004820152602490fd5b1561438b57565b60405162461bcd60e51b81526020600482015260126024820152712737ba1037bbb732b91037b91030b236b4b760711b6044820152606490fd5b156143cc57565b606460405162461bcd60e51b815260206004820152602060248201527f43726561746f722063616e6e6f7420626520627573696e657373206f776e65726044820152fd5b1561441757565b60405162461bcd60e51b815260206004820152601960248201527815d85b1b195d08185b1c9958591e481c9959da5cdd195c9959603a1b6044820152606490fd5b1561445f57565b60405162461bcd60e51b815260206004820152601e60248201527f546869726477656220494420616c7265616479207265676973746572656400006044820152606490fd5b60001981146144b35760010190565b634e487b7160e01b600052601160045260246000fd5b9060048110156140ec5760ff80198354169116179055565b600c5490600160401b82101561414957613d2b8260016145049401600c55614287565b565b919082039182116144b357565b9060209161452c81518092818552858086019101614248565b601f01601f1916010190565b919290916001600160a01b0390811690811561473c5761457c817f0000000000000000000000000000000000000000000000000000000000000000168314156143c5565b7f00000000000000000000000000000000000000000000000000000000000000001681146146fa576000938185526020906008825260406145c08188205415614410565b8151806146cd575b50600a54926145d6846144a4565b600a558388526007815281882080546001600160a81b0319168617600160a01b1781559396879461460a91906003016144c9565b848852600881528382892055838351806146a9575b505061462c600b546144a4565b600b55614638846144e1565b600c546000198101908111614695578289867f90ea86c33c9ce72bef7f8f17db2963616fc000739b9079b4c54d06467c8473639798999a9b52600d8452205561468a8251938385948552840190614513565b9042908301520390a3565b634e487b7160e01b89526011600452602489fd5b828451826146bb829483858b01614248565b8101600981520301902055833861461f565b6146f490848351826146e3829483858a01614248565b810160098152030190205415614458565b386145c8565b60405162461bcd60e51b815260206004820152601a60248201527943726561746f722063616e6e6f7420626520747265617375727960301b6044820152606490fd5b60405162461bcd60e51b8152602060048201526016602482015275125b9d985b1a590818dc99585d1bdc881dd85b1b195d60521b6044820152606490fd5b1561478157565b60405162461bcd60e51b815260206004820152600c60248201526b155b985d5d1a1bdc9a5e995960a21b6044820152606490fd5b156147bc57565b60405162461bcd60e51b8152602060048201526016602482015275496e76616c69642077616c6c6574206164647265737360501b6044820152606490fd5b1561480157565b60405162461bcd60e51b8152602060048201526012602482015271125b9d985b1a590818dc99585d1bdc88125160721b6044820152606490fd5b1561484257565b60405162461bcd60e51b815260206004820152601260248201527143726561746f72206e6f742061637469766560701b6044820152606490fd5b1561488357565b60405162461bcd60e51b8152602060048201526014602482015273151a5c08185b5bdd5b9d081d1bdbc81cdb585b1b60621b6044820152606490fd5b818102929181159184041417156144b357565b919082018092116144b357565b9260a094919796959260c08501988552602085015260408401526060830152151560808201520152565b60ff6001541661491557565b60405163d93c066560e01b8152600490fd5b600260005414614938576002600055565b604051633ee5aeb560e01b8152600490fd5b1561495157565b60405162461bcd60e51b8152602060048201526015602482015274496e76616c696420746f6b656e206164647265737360581b6044820152606490fd5b1561499557565b60405162461bcd60e51b8152602060048201526013602482015272151bdad95b881b9bdd081cdd5c1c1bdc9d1959606a1b6044820152606490fd5b6040516323b872dd60e01b60208201526001600160a01b03928316602482015292909116604483015260648083019390935291815261450491611e088261415f565b60206000825182733c499c542cef5e3811e1192ce70d8cc03d5c3359940182855af115614a6e576000513d614a655750803b155b614a4d5750565b60249060405190635274afe760e01b82526004820152fd5b60011415614a46565b6040513d6000823e3d90fd5b906000602091828151910182855af115614a6e576000513d614acd57506001600160a01b0381163b155b614aab5750565b604051635274afe760e01b81526001600160a01b039091166004820152602490fd5b60011415614aa4565b6142459392608092618173835260018060a01b0316602083015260408201528160608201520190614513565b3d15614b2d573d90614b13826141b8565b91614b216040519384614195565b82523d6000602084013e565b606090565b906005549060009160ff811615908115614c85575b50614c7f57614b54614e95565b6005546040805163cd18f0bd60e01b60208201526001600160a01b03948516602482018190526044808301869052825291969194919392608082019260089190911c166001600160401b03831182841017614c6b5782885273f5042e6ffac5a625d4e7848e0b01373d8eb9e22291823b15614c675791838681938a95632260147f60e11b8452614bec8184607f199460848301614ad6565b0301925af19081614c54575b50614c365750829360008051602061553f83398151915291614c30614c1b614b02565b83519384938452806020850152830190614513565b0390a390565b9360008051602061557f8339815191529160209151908152a4600190565b614c6090959195614136565b9338614bf8565b8780fd5b634e487b7160e01b87526041600452602487fd5b50905090565b60081c6001600160a01b031615905038614b47565b6005549260009360ff811615908115614e80575b50614e7a57614cbb614e95565b6040805163095ea7b360e01b815273f5042e6ffac5a625d4e7848e0b01373d8eb9e22260048201819052602482018790526001600160a01b039586169660209590949290919086816044818d8d5af18015614e7057614e35575b508660055460081c1696845192631a0177e960e11b888501528960248501521696876044840152856064840152733c499c542cef5e3811e1192ce70d8cc03d5c335960848401528360a484015260a4835260e083019280841060018060401b03851117614e2157838652823b15614e1d5791838b81938195632260147f60e11b8452614da9818c60df199460e48301614ad6565b0301925af19081614e0a575b50614dec575090614c3060008051602061553f8339815191529392614dd8614b02565b908080519586958652850152830190614513565b95509060008051602061557f833981519152929151908152a4600190565b614e1690989198614136565b9638614db5565b8a80fd5b634e487b7160e01b8b52604160045260248bfd5b8681813d8311614e69575b614e4a8183614195565b81010312614e65575180151503614e615738614d15565b8880fd5b8980fd5b503d614e40565b85513d8c823e3d90fd5b50505090565b60081c6001600160a01b031615905038614cae565b600654614ea1816144a4565b60065560405160208101913060601b83527f0000000000000000000000000000000000000000000000000000000000000000603483015242605483015243607483015260948201526094815260c0810181811060018060401b038211176141495760405251902090565b15614f1257565b60405162461bcd60e51b815260206004820152600a6024820152694e6f2062616c616e636560b01b6044820152606490fd5b90613e7861450492614f6b60405193849263a9059cbb60e01b602085015260248401614324565b03601f198101835282614195565b15614f8057565b60405162461bcd60e51b815260206004820152601360248201527213585b9d585b081c995b185e4819985a5b1959606a1b6044820152606490fd5b15614fc257565b60405162461bcd60e51b81526020600482015260186024820152772737ba1030903932b3b4b9ba32b932b21031b932b0ba37b960411b6044820152606490fd5b1561500957565b60405162461bcd60e51b8152602060048201526017602482015276159a595dd95c881c995dd85c991cc8191a5cd8589b1959604a1b6044820152606490fd5b1561504f57565b60405162461bcd60e51b8152602060048201526016602482015275496e76616c696420766965776572206164647265737360501b6044820152606490fd5b1561509457565b60405162461bcd60e51b815260206004820152601660248201527521b0b73737ba103932bbb0b932103cb7bab939b2b63360511b6044820152606490fd5b156150d957565b60405162461bcd60e51b815260206004820152601060248201526f14995dd85c99081d1bdbc81cdb585b1b60821b6044820152606490fd5b908060209392818452848401376000828201840152601f01601f1916010190565b92909361515f9260a09598979698600086526020860152604085015260c0606085015260c0840191615111565b94151560808201520152565b1561517257565b60405162461bcd60e51b8152602060048201526015602482015274082e4e4c2f240d8cadccee8d040dad2e6dac2e8c6d605b1b6044820152606490fd5b156151b657565b60405162461bcd60e51b815260206004820152601060248201526f546f6f206d616e79207669657765727360801b6044820152606490fd5b91908110156142a25760051b0190565b1561520557565b60405162461bcd60e51b8152602060048201526014602482015273125b98dbdc9c9958dd0811551208185b5bdd5b9d60621b6044820152606490fd5b356001600160a01b03811681036104a25790565b91908110156142a25760051b81013590601e19813603018212156104a25701803591906001600160401b0383116104a25760200182360381136104a2579190565b60ff60015416156152a357565b604051638dfc202b60e01b8152600490fd5b6001600160401b0381116141495760051b60200190565b906152d6826152b5565b6152e36040519182614195565b82815280926152f4601f19916152b5565b0190602036910137565b80518210156142a25760209160051b010190565b81151580615474575b1561542f57600c549182158015615425575b6153e55761533b8284614506565b90808210156153dd5750915b615350836152cc565b9361535a846152cc565b93615364816152cc565b9360005b82811061537457505050565b80600161538c6153876153d894866148d2565b614287565b90549060031b1c8061539e848d6152fe565b5280600052600760208181526040928c6153c487878060a01b03876000205416926152fe565b5260005252600020015461329882896152fe565b615368565b905091615347565b5050604051906153f48261417a565b60008252604051926154058461417a565b60008452604051926154168461417a565b60008452600036813793929190565b508282101561532d565b60405162461bcd60e51b815260206004820152601f60248201527f4c696d6974206d757374206265206265747765656e203120616e6420313030006044820152606490fd5b50606482111561531b565b1561548657565b60405162461bcd60e51b8152602060048201526011602482015270125b9d985b1a59081d9a595dd95c881251607a1b6044820152606490fd5b156154c657565b60405162461bcd60e51b815260206004820152601060248201526f159a595dd95c881b9bdd08199bdd5b9960821b6044820152606490fdfeaf11b1af7805b69d336f156459fa0d2b2d9d8667f59d8e09daf371b8a6803c10d9518d7736fcf52ce591f2d7253f1a915bc7badc5bb6d8fd12e82b558740c2f8810138935087cd01a0f779bb09731b8983197ec5525fba5930153152102cb830c63c72d6995119c079ef24c02679d49838905c8e81df9e632011b914e6f592f6f29fd77720852d18ddbb832831b2035a198271cad48b8ec9a15865b4946b4690410afedaeb9f0af3ce32a27e5bde5901396e730489fe03cadeeafbb0a0345f988be0079c531659141344cd1fd0a4f28419497f9722a3daafe3b4186f6b6457e06694a0cb8a19b254bcf47ffa7eb3894be05cb092d54823f77c3523b4c373b1665afe4db7a7f6fb62654cf58aa1c5b48bf792e80667fd0480625d1e5d52744937a26469706673582212205b30687ac9c3ad07c6e1412cc73f8591c99006b9f7280574053a34a3842f862064736f6c63430008140033",
  "linkReferences": {},
  "deployedLinkReferences": {}
}