{
  "_format": "hh-sol-artifact-1",
  "contractName": "StreamingPlatformTipping",
  "sourceName": "contracts/StreamingPlatformTipping.sol",
  "abi": [
    {
      "inputs": [
        {
          "internalType": "address",
          "name": "_businessOwner",
          "type": "address"
        },
        {
          "internalType": "address",
          "name": "_tippingChainTreasury",
          "type": "address"
        },
        {
          "internalType": "address",
          "name": "_owner",
          "type": "address"
        },
        {
          "internalType": "address[]",
          "name": "_supportedTokens",
          "type": "address[]"
        },
        {
          "internalType": "address",
          "name": "_relayReceiver",
          "type": "address"
        },
        {
          "internalType": "address[]",
          "name": "_initialRelayers",
          "type": "address[]"
        }
      ],
      "stateMutability": "nonpayable",
      "type": "constructor"
    },
    {
      "inputs": [],
      "name": "EnforcedPause",
      "type": "error"
    },
    {
      "inputs": [],
      "name": "ExpectedPause",
      "type": "error"
    },
    {
      "inputs": [
        {
          "internalType": "address",
          "name": "owner",
          "type": "address"
        }
      ],
      "name": "OwnableInvalidOwner",
      "type": "error"
    },
    {
      "inputs": [
        {
          "internalType": "address",
          "name": "account",
          "type": "address"
        }
      ],
      "name": "OwnableUnauthorizedAccount",
      "type": "error"
    },
    {
      "inputs": [],
      "name": "ReentrancyGuardReentrantCall",
      "type": "error"
    },
    {
      "inputs": [
        {
          "internalType": "address",
          "name": "token",
          "type": "address"
        }
      ],
      "name": "SafeERC20FailedOperation",
      "type": "error"
    },
    {
      "anonymous": false,
      "inputs": [
        {
          "indexed": true,
          "internalType": "uint256",
          "name": "creatorId",
          "type": "uint256"
        },
        {
          "indexed": true,
          "internalType": "address",
          "name": "wallet",
          "type": "address"
        },
        {
          "indexed": false,
          "internalType": "string",
          "name": "thirdwebId",
          "type": "string"
        },
        {
          "indexed": false,
          "internalType": "uint256",
          "name": "timestamp",
          "type": "uint256"
        }
      ],
      "name": "CreatorAdded",
      "type": "event"
    },
    {
      "anonymous": false,
      "inputs": [
        {
          "indexed": true,
          "internalType": "uint256",
          "name": "creatorId",
          "type": "uint256"
        },
        {
          "indexed": false,
          "internalType": "bool",
          "name": "active",
          "type": "bool"
        },
        {
          "indexed": false,
          "internalType": "uint256",
          "name": "timestamp",
          "type": "uint256"
        }
      ],
      "name": "CreatorStatusUpdated",
      "type": "event"
    },
    {
      "anonymous": false,
      "inputs": [
        {
          "indexed": true,
          "internalType": "uint256",
          "name": "creatorId",
          "type": "uint256"
        },
        {
          "indexed": false,
          "internalType": "enum StreamingPlatformTipping.MembershipTier",
          "name": "oldTier",
          "type": "uint8"
        },
        {
          "indexed": false,
          "internalType": "enum StreamingPlatformTipping.MembershipTier",
          "name": "newTier",
          "type": "uint8"
        },
        {
          "indexed": false,
          "internalType": "uint256",
          "name": "timestamp",
          "type": "uint256"
        }
      ],
      "name": "CreatorTierUpdated",
      "type": "event"
    },
    {
      "anonymous": false,
      "inputs": [
        {
          "indexed": true,
          "internalType": "uint256",
          "name": "creatorId",
          "type": "uint256"
        },
        {
          "indexed": true,
          "internalType": "address",
          "name": "oldWallet",
          "type": "address"
        },
        {
          "indexed": true,
          "internalType": "address",
          "name": "newWallet",
          "type": "address"
        },
        {
          "indexed": false,
          "internalType": "uint256",
          "name": "timestamp",
          "type": "uint256"
        }
      ],
      "name": "CreatorWalletUpdated",
      "type": "event"
    },
    {
      "anonymous": false,
      "inputs": [
        {
          "indexed": true,
          "internalType": "address",
          "name": "previousOwner",
          "type": "address"
        },
        {
          "indexed": true,
          "internalType": "address",
          "name": "newOwner",
          "type": "address"
        }
      ],
      "name": "OwnershipTransferStarted",
      "type": "event"
    },
    {
      "anonymous": false,
      "inputs": [
        {
          "indexed": true,
          "internalType": "address",
          "name": "previousOwner",
          "type": "address"
        },
        {
          "indexed": true,
          "internalType": "address",
          "name": "newOwner",
          "type": "address"
        }
      ],
      "name": "OwnershipTransferred",
      "type": "event"
    },
    {
      "anonymous": false,
      "inputs": [
        {
          "indexed": false,
          "internalType": "address",
          "name": "account",
          "type": "address"
        }
      ],
      "name": "Paused",
      "type": "event"
    },
    {
      "anonymous": false,
      "inputs": [
        {
          "indexed": true,
          "internalType": "address",
          "name": "recipient",
          "type": "address"
        },
        {
          "indexed": true,
          "internalType": "address",
          "name": "token",
          "type": "address"
        },
        {
          "indexed": false,
          "internalType": "uint256",
          "name": "amount",
          "type": "uint256"
        },
        {
          "indexed": false,
          "internalType": "string",
          "name": "reason",
          "type": "string"
        }
      ],
      "name": "RelayFailed",
      "type": "event"
    },
    {
      "anonymous": false,
      "inputs": [
        {
          "indexed": true,
          "internalType": "address",
          "name": "recipient",
          "type": "address"
        },
        {
          "indexed": true,
          "internalType": "address",
          "name": "token",
          "type": "address"
        },
        {
          "indexed": false,
          "internalType": "uint256",
          "name": "amount",
          "type": "uint256"
        },
        {
          "indexed": true,
          "internalType": "bytes32",
          "name": "relayId",
          "type": "bytes32"
        }
      ],
      "name": "RelayInitiated",
      "type": "event"
    },
    {
      "anonymous": false,
      "inputs": [
        {
          "indexed": true,
          "internalType": "address",
          "name": "relayer",
          "type": "address"
        },
        {
          "indexed": false,
          "internalType": "bool",
          "name": "authorized",
          "type": "bool"
        }
      ],
      "name": "RelayerAuthorized",
      "type": "event"
    },
    {
      "anonymous": false,
      "inputs": [
        {
          "indexed": true,
          "internalType": "address",
          "name": "tipper",
          "type": "address"
        },
        {
          "indexed": true,
          "internalType": "uint256",
          "name": "creatorId",
          "type": "uint256"
        },
        {
          "indexed": true,
          "internalType": "address",
          "name": "token",
          "type": "address"
        },
        {
          "indexed": false,
          "internalType": "uint256",
          "name": "totalAmount",
          "type": "uint256"
        },
        {
          "indexed": false,
          "internalType": "uint256",
          "name": "platformFee",
          "type": "uint256"
        },
        {
          "indexed": false,
          "internalType": "uint256",
          "name": "businessAmount",
          "type": "uint256"
        },
        {
          "indexed": false,
          "internalType": "uint256",
          "name": "creatorAmount",
          "type": "uint256"
        },
        {
          "indexed": false,
          "internalType": "bool",
          "name": "relayedToApeChain",
          "type": "bool"
        },
        {
          "indexed": false,
          "internalType": "uint256",
          "name": "timestamp",
          "type": "uint256"
        }
      ],
      "name": "TipReceived",
      "type": "event"
    },
    {
      "anonymous": false,
      "inputs": [
        {
          "indexed": true,
          "internalType": "address",
          "name": "recipient",
          "type": "address"
        },
        {
          "indexed": false,
          "internalType": "uint256",
          "name": "amount",
          "type": "uint256"
        },
        {
          "indexed": true,
          "internalType": "uint32",
          "name": "sourceChainId",
          "type": "uint32"
        },
        {
          "indexed": true,
          "internalType": "bytes32",
          "name": "relayId",
          "type": "bytes32"
        },
        {
          "indexed": false,
          "internalType": "uint256",
          "name": "timestamp",
          "type": "uint256"
        }
      ],
      "name": "TipReceivedFromRelay",
      "type": "event"
    },
    {
      "anonymous": false,
      "inputs": [
        {
          "indexed": false,
          "internalType": "address",
          "name": "account",
          "type": "address"
        }
      ],
      "name": "Unpaused",
      "type": "event"
    },
    {
      "anonymous": false,
      "inputs": [
        {
          "indexed": true,
          "internalType": "address",
          "name": "recipient",
          "type": "address"
        },
        {
          "indexed": false,
          "internalType": "uint256",
          "name": "amount",
          "type": "uint256"
        },
        {
          "indexed": false,
          "internalType": "uint256",
          "name": "timestamp",
          "type": "uint256"
        }
      ],
      "name": "UsdcWithdrawn",
      "type": "event"
    },
    {
      "anonymous": false,
      "inputs": [
        {
          "indexed": true,
          "internalType": "uint256",
          "name": "viewerId",
          "type": "uint256"
        },
        {
          "indexed": true,
          "internalType": "address",
          "name": "wallet",
          "type": "address"
        },
        {
          "indexed": false,
          "internalType": "string",
          "name": "thirdwebId",
          "type": "string"
        },
        {
          "indexed": false,
          "internalType": "uint256",
          "name": "timestamp",
          "type": "uint256"
        }
      ],
      "name": "ViewerRegistered",
      "type": "event"
    },
    {
      "anonymous": false,
      "inputs": [
        {
          "indexed": true,
          "internalType": "address",
          "name": "creator",
          "type": "address"
        },
        {
          "indexed": true,
          "internalType": "address",
          "name": "viewer",
          "type": "address"
        },
        {
          "indexed": false,
          "internalType": "address",
          "name": "token",
          "type": "address"
        },
        {
          "indexed": false,
          "internalType": "uint256",
          "name": "amount",
          "type": "uint256"
        },
        {
          "indexed": false,
          "internalType": "uint256",
          "name": "platformFee",
          "type": "uint256"
        },
        {
          "indexed": false,
          "internalType": "string",
          "name": "reason",
          "type": "string"
        },
        {
          "indexed": false,
          "internalType": "bool",
          "name": "relayedToApeChain",
          "type": "bool"
        },
        {
          "indexed": false,
          "internalType": "uint256",
          "name": "timestamp",
          "type": "uint256"
        }
      ],
      "name": "ViewerRewarded",
      "type": "event"
    },
    {
      "anonymous": false,
      "inputs": [
        {
          "indexed": false,
          "internalType": "bool",
          "name": "enabled",
          "type": "bool"
        },
        {
          "indexed": false,
          "internalType": "uint256",
          "name": "timestamp",
          "type": "uint256"
        }
      ],
      "name": "ViewerRewardsStatusChanged",
      "type": "event"
    },
    {
      "anonymous": false,
      "inputs": [
        {
          "indexed": true,
          "internalType": "uint256",
          "name": "viewerId",
          "type": "uint256"
        },
        {
          "indexed": true,
          "internalType": "address",
          "name": "oldWallet",
          "type": "address"
        },
        {
          "indexed": true,
          "internalType": "address",
          "name": "newWallet",
          "type": "address"
        },
        {
          "indexed": false,
          "internalType": "uint256",
          "name": "timestamp",
          "type": "uint256"
        }
      ],
      "name": "ViewerWalletUpdated",
      "type": "event"
    },
    {
      "inputs": [],
      "name": "APECHAIN_ID",
      "outputs": [
        {
          "internalType": "uint256",
          "name": "",
          "type": "uint256"
        }
      ],
      "stateMutability": "view",
      "type": "function"
    },
    {
      "inputs": [],
      "name": "APECHAIN_USDC",
      "outputs": [
        {
          "internalType": "address",
          "name": "",
          "type": "address"
        }
      ],
      "stateMutability": "view",
      "type": "function"
    },
    {
      "inputs": [],
      "name": "BASIS_POINTS",
      "outputs": [
        {
          "internalType": "uint256",
          "name": "",
          "type": "uint256"
        }
      ],
      "stateMutability": "view",
      "type": "function"
    },
    {
      "inputs": [],
      "name": "MIN_TIP_AMOUNT",
      "outputs": [
        {
          "internalType": "uint256",
          "name": "",
          "type": "uint256"
        }
      ],
      "stateMutability": "view",
      "type": "function"
    },
    {
      "inputs": [],
      "name": "MIN_VIEWER_REWARD",
      "outputs": [
        {
          "internalType": "uint256",
          "name": "",
          "type": "uint256"
        }
      ],
      "stateMutability": "view",
      "type": "function"
    },
    {
      "inputs": [],
      "name": "RELAY_ERC20_ROUTER",
      "outputs": [
        {
          "internalType": "address",
          "name": "",
          "type": "address"
        }
      ],
      "stateMutability": "view",
      "type": "function"
    },
    {
      "inputs": [],
      "name": "TIPPINGCHAIN_FEE",
      "outputs": [
        {
          "internalType": "uint256",
          "name": "",
          "type": "uint256"
        }
      ],
      "stateMutability": "view",
      "type": "function"
    },
    {
      "inputs": [],
      "name": "VIEWER_REWARD_FEE",
      "outputs": [
        {
          "internalType": "uint256",
          "name": "",
          "type": "uint256"
        }
      ],
      "stateMutability": "view",
      "type": "function"
    },
    {
      "inputs": [],
      "name": "acceptOwnership",
      "outputs": [],
      "stateMutability": "nonpayable",
      "type": "function"
    },
    {
      "inputs": [],
      "name": "activeCreatorCount",
      "outputs": [
        {
          "internalType": "uint256",
          "name": "",
          "type": "uint256"
        }
      ],
      "stateMutability": "view",
      "type": "function"
    },
    {
      "inputs": [
        {
          "internalType": "uint256",
          "name": "",
          "type": "uint256"
        }
      ],
      "name": "activeCreatorIds",
      "outputs": [
        {
          "internalType": "uint256",
          "name": "",
          "type": "uint256"
        }
      ],
      "stateMutability": "view",
      "type": "function"
    },
    {
      "inputs": [
        {
          "internalType": "uint256",
          "name": "",
          "type": "uint256"
        }
      ],
      "name": "activeCreatorIndex",
      "outputs": [
        {
          "internalType": "uint256",
          "name": "",
          "type": "uint256"
        }
      ],
      "stateMutability": "view",
      "type": "function"
    },
    {
      "inputs": [
        {
          "internalType": "address",
          "name": "relayer",
          "type": "address"
        }
      ],
      "name": "addAuthorizedRelayer",
      "outputs": [],
      "stateMutability": "nonpayable",
      "type": "function"
    },
    {
      "inputs": [
        {
          "internalType": "address",
          "name": "creatorWallet",
          "type": "address"
        },
        {
          "internalType": "enum StreamingPlatformTipping.MembershipTier",
          "name": "tier",
          "type": "uint8"
        },
        {
          "internalType": "string",
          "name": "thirdwebId",
          "type": "string"
        }
      ],
      "name": "addCreator",
      "outputs": [
        {
          "internalType": "uint256",
          "name": "creatorId",
          "type": "uint256"
        }
      ],
      "stateMutability": "nonpayable",
      "type": "function"
    },
    {
      "inputs": [
        {
          "internalType": "address",
          "name": "token",
          "type": "address"
        }
      ],
      "name": "addSupportedToken",
      "outputs": [],
      "stateMutability": "nonpayable",
      "type": "function"
    },
    {
      "inputs": [
        {
          "internalType": "address",
          "name": "",
          "type": "address"
        }
      ],
      "name": "authorizedRelayers",
      "outputs": [
        {
          "internalType": "bool",
          "name": "",
          "type": "bool"
        }
      ],
      "stateMutability": "view",
      "type": "function"
    },
    {
      "inputs": [],
      "name": "autoRelayEnabled",
      "outputs": [
        {
          "internalType": "bool",
          "name": "",
          "type": "bool"
        }
      ],
      "stateMutability": "view",
      "type": "function"
    },
    {
      "inputs": [
        {
          "internalType": "address[]",
          "name": "creatorWallets",
          "type": "address[]"
        },
        {
          "internalType": "enum StreamingPlatformTipping.MembershipTier[]",
          "name": "tiers",
          "type": "uint8[]"
        }
      ],
      "name": "batchAddCreators",
      "outputs": [
        {
          "internalType": "uint256[]",
          "name": "creatorIds",
          "type": "uint256[]"
        }
      ],
      "stateMutability": "nonpayable",
      "type": "function"
    },
    {
      "inputs": [
        {
          "internalType": "uint256[]",
          "name": "viewerIds",
          "type": "uint256[]"
        },
        {
          "internalType": "uint256[]",
          "name": "amounts",
          "type": "uint256[]"
        },
        {
          "internalType": "string[]",
          "name": "reasons",
          "type": "string[]"
        }
      ],
      "name": "batchRewardViewersByIdETH",
      "outputs": [],
      "stateMutability": "payable",
      "type": "function"
    },
    {
      "inputs": [
        {
          "internalType": "address[]",
          "name": "viewers",
          "type": "address[]"
        },
        {
          "internalType": "uint256[]",
          "name": "amounts",
          "type": "uint256[]"
        },
        {
          "internalType": "string[]",
          "name": "reasons",
          "type": "string[]"
        }
      ],
      "name": "batchRewardViewersETH",
      "outputs": [],
      "stateMutability": "payable",
      "type": "function"
    },
    {
      "inputs": [],
      "name": "businessOwner",
      "outputs": [
        {
          "internalType": "address",
          "name": "",
          "type": "address"
        }
      ],
      "stateMutability": "view",
      "type": "function"
    },
    {
      "inputs": [
        {
          "internalType": "uint256",
          "name": "creatorId",
          "type": "uint256"
        },
        {
          "internalType": "uint256",
          "name": "tipAmount",
          "type": "uint256"
        }
      ],
      "name": "calculateTipSplits",
      "outputs": [
        {
          "internalType": "uint256",
          "name": "platformFee",
          "type": "uint256"
        },
        {
          "internalType": "uint256",
          "name": "creatorAmount",
          "type": "uint256"
        },
        {
          "internalType": "uint256",
          "name": "businessAmount",
          "type": "uint256"
        }
      ],
      "stateMutability": "view",
      "type": "function"
    },
    {
      "inputs": [
        {
          "internalType": "uint256",
          "name": "",
          "type": "uint256"
        }
      ],
      "name": "creatorTiers",
      "outputs": [
        {
          "internalType": "enum StreamingPlatformTipping.MembershipTier",
          "name": "",
          "type": "uint8"
        }
      ],
      "stateMutability": "view",
      "type": "function"
    },
    {
      "inputs": [
        {
          "internalType": "uint256",
          "name": "",
          "type": "uint256"
        }
      ],
      "name": "creators",
      "outputs": [
        {
          "internalType": "address",
          "name": "wallet",
          "type": "address"
        },
        {
          "internalType": "bool",
          "name": "active",
          "type": "bool"
        },
        {
          "internalType": "uint256",
          "name": "totalTipsReceived",
          "type": "uint256"
        },
        {
          "internalType": "uint256",
          "name": "tipCount",
          "type": "uint256"
        },
        {
          "internalType": "enum StreamingPlatformTipping.MembershipTier",
          "name": "tier",
          "type": "uint8"
        }
      ],
      "stateMutability": "view",
      "type": "function"
    },
    {
      "inputs": [],
      "name": "emergencyWithdraw",
      "outputs": [],
      "stateMutability": "nonpayable",
      "type": "function"
    },
    {
      "inputs": [],
      "name": "getActiveCreatorIds",
      "outputs": [
        {
          "internalType": "uint256[]",
          "name": "",
          "type": "uint256[]"
        }
      ],
      "stateMutability": "view",
      "type": "function"
    },
    {
      "inputs": [
        {
          "internalType": "uint256",
          "name": "offset",
          "type": "uint256"
        },
        {
          "internalType": "uint256",
          "name": "limit",
          "type": "uint256"
        }
      ],
      "name": "getAllActiveCreators",
      "outputs": [
        {
          "internalType": "uint256[]",
          "name": "creatorIds",
          "type": "uint256[]"
        },
        {
          "internalType": "address[]",
          "name": "wallets",
          "type": "address[]"
        },
        {
          "internalType": "uint256[]",
          "name": "tipAmounts",
          "type": "uint256[]"
        },
        {
          "internalType": "uint256",
          "name": "totalActive",
          "type": "uint256"
        }
      ],
      "stateMutability": "view",
      "type": "function"
    },
    {
      "inputs": [],
      "name": "getApeChainStats",
      "outputs": [
        {
          "internalType": "uint256",
          "name": "totalUsdc",
          "type": "uint256"
        },
        {
          "internalType": "uint256",
          "name": "totalFromChain",
          "type": "uint256"
        }
      ],
      "stateMutability": "view",
      "type": "function"
    },
    {
      "inputs": [
        {
          "internalType": "address",
          "name": "user",
          "type": "address"
        }
      ],
      "name": "getBalances",
      "outputs": [
        {
          "internalType": "uint256",
          "name": "ethBalance",
          "type": "uint256"
        },
        {
          "internalType": "uint256",
          "name": "usdcBalance",
          "type": "uint256"
        }
      ],
      "stateMutability": "view",
      "type": "function"
    },
    {
      "inputs": [
        {
          "internalType": "string",
          "name": "thirdwebId",
          "type": "string"
        }
      ],
      "name": "getCreatorByThirdwebId",
      "outputs": [
        {
          "internalType": "uint256",
          "name": "",
          "type": "uint256"
        }
      ],
      "stateMutability": "view",
      "type": "function"
    },
    {
      "inputs": [
        {
          "internalType": "address",
          "name": "wallet",
          "type": "address"
        }
      ],
      "name": "getCreatorByWallet",
      "outputs": [
        {
          "internalType": "uint256",
          "name": "creatorId",
          "type": "uint256"
        }
      ],
      "stateMutability": "view",
      "type": "function"
    },
    {
      "inputs": [
        {
          "internalType": "uint256",
          "name": "creatorId",
          "type": "uint256"
        }
      ],
      "name": "getCreatorInfo",
      "outputs": [
        {
          "internalType": "address",
          "name": "wallet",
          "type": "address"
        },
        {
          "internalType": "bool",
          "name": "active",
          "type": "bool"
        },
        {
          "internalType": "uint256",
          "name": "totalTips",
          "type": "uint256"
        },
        {
          "internalType": "uint256",
          "name": "tipCount",
          "type": "uint256"
        },
        {
          "internalType": "enum StreamingPlatformTipping.MembershipTier",
          "name": "tier",
          "type": "uint8"
        },
        {
          "internalType": "uint256",
          "name": "creatorShareBps",
          "type": "uint256"
        }
      ],
      "stateMutability": "view",
      "type": "function"
    },
    {
      "inputs": [
        {
          "internalType": "uint256[]",
          "name": "creatorIdList",
          "type": "uint256[]"
        }
      ],
      "name": "getCreatorsByIds",
      "outputs": [
        {
          "internalType": "uint256[]",
          "name": "tipAmounts",
          "type": "uint256[]"
        },
        {
          "internalType": "address[]",
          "name": "wallets",
          "type": "address[]"
        },
        {
          "internalType": "bool[]",
          "name": "activeStatus",
          "type": "bool[]"
        }
      ],
      "stateMutability": "view",
      "type": "function"
    },
    {
      "inputs": [],
      "name": "getPlatformStats",
      "outputs": [
        {
          "internalType": "uint256",
          "name": "_totalTips",
          "type": "uint256"
        },
        {
          "internalType": "uint256",
          "name": "_totalCount",
          "type": "uint256"
        },
        {
          "internalType": "uint256",
          "name": "_totalRelayed",
          "type": "uint256"
        },
        {
          "internalType": "uint256",
          "name": "_activeCreators",
          "type": "uint256"
        },
        {
          "internalType": "bool",
          "name": "_autoRelayEnabled",
          "type": "bool"
        }
      ],
      "stateMutability": "view",
      "type": "function"
    },
    {
      "inputs": [
        {
          "internalType": "address",
          "name": "user",
          "type": "address"
        },
        {
          "internalType": "address",
          "name": "token",
          "type": "address"
        }
      ],
      "name": "getTokenBalance",
      "outputs": [
        {
          "internalType": "uint256",
          "name": "",
          "type": "uint256"
        }
      ],
      "stateMutability": "view",
      "type": "function"
    },
    {
      "inputs": [
        {
          "internalType": "string",
          "name": "thirdwebId",
          "type": "string"
        }
      ],
      "name": "getViewerByThirdwebId",
      "outputs": [
        {
          "internalType": "uint256",
          "name": "",
          "type": "uint256"
        }
      ],
      "stateMutability": "view",
      "type": "function"
    },
    {
      "inputs": [
        {
          "internalType": "address",
          "name": "wallet",
          "type": "address"
        }
      ],
      "name": "getViewerByWallet",
      "outputs": [
        {
          "internalType": "uint256",
          "name": "",
          "type": "uint256"
        }
      ],
      "stateMutability": "view",
      "type": "function"
    },
    {
      "inputs": [
        {
          "internalType": "uint256",
          "name": "viewerId",
          "type": "uint256"
        }
      ],
      "name": "getViewerInfo",
      "outputs": [
        {
          "internalType": "address",
          "name": "wallet",
          "type": "address"
        },
        {
          "internalType": "uint256",
          "name": "totalReceived",
          "type": "uint256"
        }
      ],
      "stateMutability": "view",
      "type": "function"
    },
    {
      "inputs": [
        {
          "internalType": "address",
          "name": "user",
          "type": "address"
        }
      ],
      "name": "getViewerRewardStats",
      "outputs": [
        {
          "internalType": "uint256",
          "name": "rewardsGiven",
          "type": "uint256"
        },
        {
          "internalType": "uint256",
          "name": "rewardsReceived",
          "type": "uint256"
        },
        {
          "internalType": "uint256",
          "name": "rewardsSent",
          "type": "uint256"
        }
      ],
      "stateMutability": "view",
      "type": "function"
    },
    {
      "inputs": [],
      "name": "getViewerRewardsPlatformStats",
      "outputs": [
        {
          "internalType": "uint256",
          "name": "totalRewards",
          "type": "uint256"
        },
        {
          "internalType": "bool",
          "name": "rewardsEnabled",
          "type": "bool"
        },
        {
          "internalType": "uint256",
          "name": "platformFeeRate",
          "type": "uint256"
        }
      ],
      "stateMutability": "view",
      "type": "function"
    },
    {
      "inputs": [
        {
          "internalType": "uint256",
          "name": "creatorId",
          "type": "uint256"
        },
        {
          "internalType": "address",
          "name": "token",
          "type": "address"
        }
      ],
      "name": "isTokenSupportedForCreator",
      "outputs": [
        {
          "internalType": "bool",
          "name": "",
          "type": "bool"
        }
      ],
      "stateMutability": "view",
      "type": "function"
    },
    {
      "inputs": [],
      "name": "manualRelayETH",
      "outputs": [],
      "stateMutability": "nonpayable",
      "type": "function"
    },
    {
      "inputs": [
        {
          "internalType": "address",
          "name": "token",
          "type": "address"
        }
      ],
      "name": "manualRelayToken",
      "outputs": [],
      "stateMutability": "nonpayable",
      "type": "function"
    },
    {
      "inputs": [],
      "name": "nextCreatorId",
      "outputs": [
        {
          "internalType": "uint256",
          "name": "",
          "type": "uint256"
        }
      ],
      "stateMutability": "view",
      "type": "function"
    },
    {
      "inputs": [],
      "name": "nextViewerId",
      "outputs": [
        {
          "internalType": "uint256",
          "name": "",
          "type": "uint256"
        }
      ],
      "stateMutability": "view",
      "type": "function"
    },
    {
      "inputs": [],
      "name": "owner",
      "outputs": [
        {
          "internalType": "address",
          "name": "",
          "type": "address"
        }
      ],
      "stateMutability": "view",
      "type": "function"
    },
    {
      "inputs": [],
      "name": "pause",
      "outputs": [],
      "stateMutability": "nonpayable",
      "type": "function"
    },
    {
      "inputs": [],
      "name": "paused",
      "outputs": [
        {
          "internalType": "bool",
          "name": "",
          "type": "bool"
        }
      ],
      "stateMutability": "view",
      "type": "function"
    },
    {
      "inputs": [],
      "name": "pendingOwner",
      "outputs": [
        {
          "internalType": "address",
          "name": "",
          "type": "address"
        }
      ],
      "stateMutability": "view",
      "type": "function"
    },
    {
      "inputs": [
        {
          "internalType": "address",
          "name": "recipient",
          "type": "address"
        },
        {
          "internalType": "uint32",
          "name": "sourceChainId",
          "type": "uint32"
        },
        {
          "internalType": "bytes32",
          "name": "relayId",
          "type": "bytes32"
        },
        {
          "internalType": "uint256",
          "name": "usdcAmount",
          "type": "uint256"
        }
      ],
      "name": "receiveTipFromRelay",
      "outputs": [],
      "stateMutability": "nonpayable",
      "type": "function"
    },
    {
      "inputs": [
        {
          "internalType": "address",
          "name": "viewerWallet",
          "type": "address"
        },
        {
          "internalType": "string",
          "name": "thirdwebId",
          "type": "string"
        }
      ],
      "name": "registerViewer",
      "outputs": [
        {
          "internalType": "uint256",
          "name": "",
          "type": "uint256"
        }
      ],
      "stateMutability": "nonpayable",
      "type": "function"
    },
    {
      "inputs": [],
      "name": "relayReceiver",
      "outputs": [
        {
          "internalType": "address",
          "name": "",
          "type": "address"
        }
      ],
      "stateMutability": "view",
      "type": "function"
    },
    {
      "inputs": [
        {
          "internalType": "address",
          "name": "relayer",
          "type": "address"
        }
      ],
      "name": "removeAuthorizedRelayer",
      "outputs": [],
      "stateMutability": "nonpayable",
      "type": "function"
    },
    {
      "inputs": [
        {
          "internalType": "address",
          "name": "token",
          "type": "address"
        }
      ],
      "name": "removeSupportedToken",
      "outputs": [],
      "stateMutability": "nonpayable",
      "type": "function"
    },
    {
      "inputs": [],
      "name": "renounceOwnership",
      "outputs": [],
      "stateMutability": "nonpayable",
      "type": "function"
    },
    {
      "inputs": [
        {
          "internalType": "address",
          "name": "",
          "type": "address"
        }
      ],
      "name": "rewardCount",
      "outputs": [
        {
          "internalType": "uint256",
          "name": "",
          "type": "uint256"
        }
      ],
      "stateMutability": "view",
      "type": "function"
    },
    {
      "inputs": [
        {
          "internalType": "uint256",
          "name": "viewerId",
          "type": "uint256"
        },
        {
          "internalType": "string",
          "name": "reason",
          "type": "string"
        }
      ],
      "name": "rewardViewerByIdETH",
      "outputs": [],
      "stateMutability": "payable",
      "type": "function"
    },
    {
      "inputs": [
        {
          "internalType": "address",
          "name": "viewer",
          "type": "address"
        },
        {
          "internalType": "string",
          "name": "reason",
          "type": "string"
        }
      ],
      "name": "rewardViewerETH",
      "outputs": [],
      "stateMutability": "payable",
      "type": "function"
    },
    {
      "inputs": [
        {
          "internalType": "address",
          "name": "viewer",
          "type": "address"
        },
        {
          "internalType": "address",
          "name": "token",
          "type": "address"
        },
        {
          "internalType": "uint256",
          "name": "amount",
          "type": "uint256"
        },
        {
          "internalType": "string",
          "name": "reason",
          "type": "string"
        }
      ],
      "name": "rewardViewerToken",
      "outputs": [],
      "stateMutability": "nonpayable",
      "type": "function"
    },
    {
      "inputs": [
        {
          "internalType": "bool",
          "name": "_enabled",
          "type": "bool"
        }
      ],
      "name": "setAutoRelay",
      "outputs": [],
      "stateMutability": "nonpayable",
      "type": "function"
    },
    {
      "inputs": [
        {
          "internalType": "uint256",
          "name": "creatorId",
          "type": "uint256"
        },
        {
          "internalType": "bool",
          "name": "active",
          "type": "bool"
        }
      ],
      "name": "setCreatorStatus",
      "outputs": [],
      "stateMutability": "nonpayable",
      "type": "function"
    },
    {
      "inputs": [
        {
          "internalType": "uint256",
          "name": "creatorId",
          "type": "uint256"
        },
        {
          "internalType": "address",
          "name": "token",
          "type": "address"
        },
        {
          "internalType": "bool",
          "name": "supported",
          "type": "bool"
        }
      ],
      "name": "setCreatorTokenSupport",
      "outputs": [],
      "stateMutability": "nonpayable",
      "type": "function"
    },
    {
      "inputs": [
        {
          "internalType": "address",
          "name": "_relayReceiver",
          "type": "address"
        }
      ],
      "name": "setRelayReceiver",
      "outputs": [],
      "stateMutability": "nonpayable",
      "type": "function"
    },
    {
      "inputs": [
        {
          "internalType": "bool",
          "name": "enabled",
          "type": "bool"
        }
      ],
      "name": "setViewerRewardsEnabled",
      "outputs": [],
      "stateMutability": "nonpayable",
      "type": "function"
    },
    {
      "inputs": [],
      "name": "sourceChainId",
      "outputs": [
        {
          "internalType": "uint256",
          "name": "",
          "type": "uint256"
        }
      ],
      "stateMutability": "view",
      "type": "function"
    },
    {
      "inputs": [
        {
          "internalType": "address",
          "name": "",
          "type": "address"
        }
      ],
      "name": "supportedTokens",
      "outputs": [
        {
          "internalType": "bool",
          "name": "",
          "type": "bool"
        }
      ],
      "stateMutability": "view",
      "type": "function"
    },
    {
      "inputs": [
        {
          "internalType": "string",
          "name": "",
          "type": "string"
        }
      ],
      "name": "thirdwebIdToCreatorId",
      "outputs": [
        {
          "internalType": "uint256",
          "name": "",
          "type": "uint256"
        }
      ],
      "stateMutability": "view",
      "type": "function"
    },
    {
      "inputs": [
        {
          "internalType": "string",
          "name": "",
          "type": "string"
        }
      ],
      "name": "thirdwebIdToViewerId",
      "outputs": [
        {
          "internalType": "uint256",
          "name": "",
          "type": "uint256"
        }
      ],
      "stateMutability": "view",
      "type": "function"
    },
    {
      "inputs": [
        {
          "internalType": "enum StreamingPlatformTipping.MembershipTier",
          "name": "",
          "type": "uint8"
        }
      ],
      "name": "tierCreatorShares",
      "outputs": [
        {
          "internalType": "uint256",
          "name": "",
          "type": "uint256"
        }
      ],
      "stateMutability": "view",
      "type": "function"
    },
    {
      "inputs": [
        {
          "internalType": "uint256",
          "name": "creatorId",
          "type": "uint256"
        }
      ],
      "name": "tipCreatorETH",
      "outputs": [],
      "stateMutability": "payable",
      "type": "function"
    },
    {
      "inputs": [
        {
          "internalType": "uint256",
          "name": "creatorId",
          "type": "uint256"
        },
        {
          "internalType": "address",
          "name": "token",
          "type": "address"
        },
        {
          "internalType": "uint256",
          "name": "amount",
          "type": "uint256"
        }
      ],
      "name": "tipCreatorToken",
      "outputs": [],
      "stateMutability": "nonpayable",
      "type": "function"
    },
    {
      "inputs": [
        {
          "internalType": "address",
          "name": "",
          "type": "address"
        }
      ],
      "name": "tipperCount",
      "outputs": [
        {
          "internalType": "uint256",
          "name": "",
          "type": "uint256"
        }
      ],
      "stateMutability": "view",
      "type": "function"
    },
    {
      "inputs": [],
      "name": "tippingChainTreasury",
      "outputs": [
        {
          "internalType": "address",
          "name": "",
          "type": "address"
        }
      ],
      "stateMutability": "view",
      "type": "function"
    },
    {
      "inputs": [
        {
          "internalType": "uint256",
          "name": "",
          "type": "uint256"
        }
      ],
      "name": "tipsFromChain",
      "outputs": [
        {
          "internalType": "uint256",
          "name": "",
          "type": "uint256"
        }
      ],
      "stateMutability": "view",
      "type": "function"
    },
    {
      "inputs": [],
      "name": "totalRelayedToApeChain",
      "outputs": [
        {
          "internalType": "uint256",
          "name": "",
          "type": "uint256"
        }
      ],
      "stateMutability": "view",
      "type": "function"
    },
    {
      "inputs": [
        {
          "internalType": "address",
          "name": "",
          "type": "address"
        }
      ],
      "name": "totalRewardsGiven",
      "outputs": [
        {
          "internalType": "uint256",
          "name": "",
          "type": "uint256"
        }
      ],
      "stateMutability": "view",
      "type": "function"
    },
    {
      "inputs": [
        {
          "internalType": "address",
          "name": "",
          "type": "address"
        }
      ],
      "name": "totalRewardsReceived",
      "outputs": [
        {
          "internalType": "uint256",
          "name": "",
          "type": "uint256"
        }
      ],
      "stateMutability": "view",
      "type": "function"
    },
    {
      "inputs": [],
      "name": "totalTipCount",
      "outputs": [
        {
          "internalType": "uint256",
          "name": "",
          "type": "uint256"
        }
      ],
      "stateMutability": "view",
      "type": "function"
    },
    {
      "inputs": [],
      "name": "totalTipsReceived",
      "outputs": [
        {
          "internalType": "uint256",
          "name": "",
          "type": "uint256"
        }
      ],
      "stateMutability": "view",
      "type": "function"
    },
    {
      "inputs": [],
      "name": "totalUsdcReceived",
      "outputs": [
        {
          "internalType": "uint256",
          "name": "",
          "type": "uint256"
        }
      ],
      "stateMutability": "view",
      "type": "function"
    },
    {
      "inputs": [],
      "name": "totalViewerRewards",
      "outputs": [
        {
          "internalType": "uint256",
          "name": "",
          "type": "uint256"
        }
      ],
      "stateMutability": "view",
      "type": "function"
    },
    {
      "inputs": [],
      "name": "totalViewers",
      "outputs": [
        {
          "internalType": "uint256",
          "name": "",
          "type": "uint256"
        }
      ],
      "stateMutability": "view",
      "type": "function"
    },
    {
      "inputs": [
        {
          "internalType": "address",
          "name": "newOwner",
          "type": "address"
        }
      ],
      "name": "transferOwnership",
      "outputs": [],
      "stateMutability": "nonpayable",
      "type": "function"
    },
    {
      "inputs": [],
      "name": "unpause",
      "outputs": [],
      "stateMutability": "nonpayable",
      "type": "function"
    },
    {
      "inputs": [
        {
          "internalType": "uint256",
          "name": "creatorId",
          "type": "uint256"
        },
        {
          "internalType": "enum StreamingPlatformTipping.MembershipTier",
          "name": "newTier",
          "type": "uint8"
        }
      ],
      "name": "updateCreatorTier",
      "outputs": [],
      "stateMutability": "nonpayable",
      "type": "function"
    },
    {
      "inputs": [
        {
          "internalType": "uint256",
          "name": "creatorId",
          "type": "uint256"
        },
        {
          "internalType": "address",
          "name": "newWallet",
          "type": "address"
        }
      ],
      "name": "updateCreatorWallet",
      "outputs": [],
      "stateMutability": "nonpayable",
      "type": "function"
    },
    {
      "inputs": [
        {
          "internalType": "uint256",
          "name": "viewerId",
          "type": "uint256"
        },
        {
          "internalType": "address",
          "name": "newWallet",
          "type": "address"
        }
      ],
      "name": "updateViewerWallet",
      "outputs": [],
      "stateMutability": "nonpayable",
      "type": "function"
    },
    {
      "inputs": [
        {
          "internalType": "address",
          "name": "",
          "type": "address"
        }
      ],
      "name": "usdcBalances",
      "outputs": [
        {
          "internalType": "uint256",
          "name": "",
          "type": "uint256"
        }
      ],
      "stateMutability": "view",
      "type": "function"
    },
    {
      "inputs": [
        {
          "internalType": "address",
          "name": "",
          "type": "address"
        }
      ],
      "name": "viewerIds",
      "outputs": [
        {
          "internalType": "uint256",
          "name": "",
          "type": "uint256"
        }
      ],
      "stateMutability": "view",
      "type": "function"
    },
    {
      "inputs": [],
      "name": "viewerRewardsEnabled",
      "outputs": [
        {
          "internalType": "bool",
          "name": "",
          "type": "bool"
        }
      ],
      "stateMutability": "view",
      "type": "function"
    },
    {
      "inputs": [
        {
          "internalType": "uint256",
          "name": "",
          "type": "uint256"
        }
      ],
      "name": "viewers",
      "outputs": [
        {
          "internalType": "address",
          "name": "",
          "type": "address"
        }
      ],
      "stateMutability": "view",
      "type": "function"
    },
    {
      "inputs": [
        {
          "internalType": "address",
          "name": "",
          "type": "address"
        }
      ],
      "name": "walletToCreatorId",
      "outputs": [
        {
          "internalType": "uint256",
          "name": "",
          "type": "uint256"
        }
      ],
      "stateMutability": "view",
      "type": "function"
    },
    {
      "inputs": [],
      "name": "withdrawETH",
      "outputs": [],
      "stateMutability": "nonpayable",
      "type": "function"
    },
    {
      "inputs": [
        {
          "internalType": "address",
          "name": "token",
          "type": "address"
        }
      ],
      "name": "withdrawToken",
      "outputs": [],
      "stateMutability": "nonpayable",
      "type": "function"
    },
    {
      "inputs": [],
      "name": "withdrawUSDC",
      "outputs": [],
      "stateMutability": "nonpayable",
      "type": "function"
    },
    {
      "inputs": [
        {
          "internalType": "uint256",
          "name": "amount",
          "type": "uint256"
        }
      ],
      "name": "withdrawUSDCAmount",
      "outputs": [],
      "stateMutability": "nonpayable",
      "type": "function"
    }
  ],
  "bytecode": "0x60e06040526001600a556001601d60006101000a81548160ff02191690831515021790555060016021553480156200003657600080fd5b506040516200c9993803806200c99983398181016040528101906200005c91906200085d565b836001600081905550600073ffffffffffffffffffffffffffffffffffffffff168173ffffffffffffffffffffffffffffffffffffffff1603620000da5760006040517f1e4fbdf7000000000000000000000000000000000000000000000000000000008152600401620000d1919062000948565b60405180910390fd5b620000eb816200057360201b60201c565b50600073ffffffffffffffffffffffffffffffffffffffff168673ffffffffffffffffffffffffffffffffffffffff16036200015e576040517f08c379a00000000000000000000000000000000000000000000000000000000081526004016200015590620009c6565b60405180910390fd5b600073ffffffffffffffffffffffffffffffffffffffff168573ffffffffffffffffffffffffffffffffffffffff1603620001d0576040517f08c379a0000000000000000000000000000000000000000000000000000000008152600401620001c79062000a38565b60405180910390fd5b8573ffffffffffffffffffffffffffffffffffffffff1660808173ffffffffffffffffffffffffffffffffffffffff16815250508473ffffffffffffffffffffffffffffffffffffffff1660a08173ffffffffffffffffffffffffffffffffffffffff16815250504660c0818152505081600560016101000a81548173ffffffffffffffffffffffffffffffffffffffff021916908373ffffffffffffffffffffffffffffffffffffffff1602179055506001600560006101000a81548160ff021916908315150217905550600160068190555061177060036000806003811115620002c157620002c062000a5a565b5b6003811115620002d657620002d562000a5a565b5b815260200190815260200160002081905550611b58600360006001600381111562000306576200030562000a5a565b5b60038111156200031b576200031a62000a5a565b5b815260200190815260200160002081905550611f4060036000600260038111156200034b576200034a62000a5a565b5b600381111562000360576200035f62000a5a565b5b815260200190815260200160002081905550612328600360006003808111156200038f576200038e62000a5a565b5b6003811115620003a457620003a362000a5a565b5b81526020019081526020016000208190555060005b83518110156200044e576001600e6000868481518110620003df57620003de62000a89565b5b602002602001015173ffffffffffffffffffffffffffffffffffffffff1673ffffffffffffffffffffffffffffffffffffffff16815260200190815260200160002060006101000a81548160ff0219169083151502179055508080620004459062000af1565b915050620003b9565b5060005b8151811015620005555760016016600084848151811062000478576200047762000a89565b5b602002602001015173ffffffffffffffffffffffffffffffffffffffff1673ffffffffffffffffffffffffffffffffffffffff16815260200190815260200160002060006101000a81548160ff021916908315150217905550818181518110620004e757620004e662000a89565b5b602002602001015173ffffffffffffffffffffffffffffffffffffffff167f5afe4db7a7f6fb62654cf58aa1c5b48bf792e80667fd0480625d1e5d52744937600160405162000537919062000b5b565b60405180910390a280806200054c9062000af1565b91505062000452565b5062000567846200057360201b60201c565b50505050505062000b78565b600260006101000a81549073ffffffffffffffffffffffffffffffffffffffff0219169055620005a981620005ac60201b60201c565b50565b600060018054906101000a900473ffffffffffffffffffffffffffffffffffffffff169050816001806101000a81548173ffffffffffffffffffffffffffffffffffffffff021916908373ffffffffffffffffffffffffffffffffffffffff1602179055508173ffffffffffffffffffffffffffffffffffffffff168173ffffffffffffffffffffffffffffffffffffffff167f8be0079c531659141344cd1fd0a4f28419497f9722a3daafe3b4186f6b6457e060405160405180910390a35050565b6000604051905090565b600080fd5b600080fd5b600073ffffffffffffffffffffffffffffffffffffffff82169050919050565b6000620006b08262000683565b9050919050565b620006c281620006a3565b8114620006ce57600080fd5b50565b600081519050620006e281620006b7565b92915050565b600080fd5b6000601f19601f8301169050919050565b7f4e487b7100000000000000000000000000000000000000000000000000000000600052604160045260246000fd5b6200073882620006ed565b810181811067ffffffffffffffff821117156200075a5762000759620006fe565b5b80604052505050565b60006200076f6200066f565b90506200077d82826200072d565b919050565b600067ffffffffffffffff821115620007a0576200079f620006fe565b5b602082029050602081019050919050565b600080fd5b6000620007cd620007c78462000782565b62000763565b90508083825260208201905060208402830185811115620007f357620007f2620007b1565b5b835b818110156200082057806200080b8882620006d1565b845260208401935050602081019050620007f5565b5050509392505050565b600082601f830112620008425762000841620006e8565b5b815162000854848260208601620007b6565b91505092915050565b60008060008060008060c087890312156200087d576200087c62000679565b5b60006200088d89828a01620006d1565b9650506020620008a089828a01620006d1565b9550506040620008b389828a01620006d1565b945050606087015167ffffffffffffffff811115620008d757620008d66200067e565b5b620008e589828a016200082a565b9350506080620008f889828a01620006d1565b92505060a087015167ffffffffffffffff8111156200091c576200091b6200067e565b5b6200092a89828a016200082a565b9150509295509295509295565b6200094281620006a3565b82525050565b60006020820190506200095f600083018462000937565b92915050565b600082825260208201905092915050565b7f496e76616c696420627573696e657373206f776e657200000000000000000000600082015250565b6000620009ae60168362000965565b9150620009bb8262000976565b602082019050919050565b60006020820190508181036000830152620009e1816200099f565b9050919050565b7f496e76616c696420747265617375727900000000000000000000000000000000600082015250565b600062000a2060108362000965565b915062000a2d82620009e8565b602082019050919050565b6000602082019050818103600083015262000a538162000a11565b9050919050565b7f4e487b7100000000000000000000000000000000000000000000000000000000600052602160045260246000fd5b7f4e487b7100000000000000000000000000000000000000000000000000000000600052603260045260246000fd5b7f4e487b7100000000000000000000000000000000000000000000000000000000600052601160045260246000fd5b6000819050919050565b600062000afe8262000ae7565b91507fffffffffffffffffffffffffffffffffffffffffffffffffffffffffffffffff820362000b335762000b3262000ab8565b5b600182019050919050565b60008115159050919050565b62000b558162000b3e565b82525050565b600060208201905062000b72600083018462000b4a565b92915050565b60805160a05160c05161bd2662000c7360003960008181611ca201528181616a1601526190e80152600081816121de015281816122c701528181612a0d01528181612aa8015281816137690152818161380401528181614239015281816142d401528181614de70152818161558e0152818161566701528181615bbe01528181615c3701528181616e4a0152818161741101528181617ca601528181617d1d0152618758015260008181612d46015281816139f701528181614d9201528181615bf001528181615cea0152818161659901528181616a7c015281816173bc01528181617cd701528181617d9301526186ca015261bd266000f3fe6080604052600436106105235760003560e01c80638456cb59116102a2578063c0cad1fd11610165578063e086e5ec116100cc578063f05db44f11610085578063f05db44f1461158e578063f2fde38b146115b9578063f60db437146115e2578063f8277b141461160d578063f83256061461164c578063fbed8fce1461168957610523565b8063e086e5ec1461149a578063e18b8e6f146114b1578063e1f1c4a7146114f1578063e30c39781461151c578063e49107ad14611547578063efe8c0841461156357610523565b8063cf51bfdd1161011e578063cf51bfdd146113ae578063d5760a41146113d9578063d8fc063d14611404578063db2e21bc1461141b578063dda0053f14611432578063df9e84221461146f57610523565b8063c0cad1fd14611238578063c137ae6e14611275578063c2653169146112b4578063c489744b146112f2578063c84aae171461132f578063cd53d08e1461136d57610523565b806399a95de011610209578063a99c68c5116101c2578063a99c68c514611112578063aa2b44021461114f578063ae8cea141461117a578063b5af960d146111a5578063beaba56c146111e2578063bf67cd1a1461120d57610523565b806399a95de014610fd95780639a06904614611016578063a0dddf9514611053578063a1b13f591461107e578063a6a78295146110aa578063a73ebd71146110e757610523565b80638da5cb5b1161025b5780638da5cb5b14610edf5780638f747f7b14610f0a5780639559896f14610f3357806396a8374b14610f5c578063981886a714610f855780639961bbf314610fb057610523565b80638456cb5914610de5578063845e4fc014610dfc57806385b5741114610e3b5780638947606914610e645780638ad3ffe214610e8d5780638cdb0b7014610eb657610523565b80633f4ba83a116103ea5780635a9f462f116103515780636c590e6f1161030a5780636c590e6f14610d0f5780636d69fcaf14610d3a5780636fa75ec514610d63578063715018a614610d8e5780637631919014610da557806379ba509714610dce57610523565b80635a9f462f14610bd95780635c975abb14610c02578063663222c514610c2d57806366b5512614610c6a57806368c4ac2614610ca757806369a2775614610ce457610523565b80634d3fd506116103a35780634d3fd50614610ab45780634eacff2014610af15780635155cb1614610b1a5780635603fe5f14610b575780635943da5614610b735780635a71e2f814610bb057610523565b80633f4ba83a146109a457806340437900146109bb578063429895ac146109f857806345163c5414610a235780634687d39314610a4c5780634bb22c7214610a8957610523565b806326de54881161048e57806330e38a671161044757806330e38a671461087b5780633308d35f146108b857806339c09315146108f55780633a57cb32146109205780633b78012e1461095d5780633df77f1e1461097957610523565b806326de548814610733578063273d424114610770578063275dec08146107ad57806329e295c5146107ea5780632ea169c8146108275780632fd232ed1461085257610523565b806318c48d2b116104e057806318c48d2b1461063a57806319738b92146106565780631b8c0f9e146106725780632516f8e6146106af57806326ab875f146106f157806326b5ee0d1461070857610523565b80630362109014610528578063086533da146105515780630f43b38c1461057a57806312e4cd95146105a3578063136d8883146105e05780631544298e1461060f575b600080fd5b34801561053457600080fd5b5061054f600480360381019061054a919061932c565b6116b6565b005b34801561055d57600080fd5b5061057860048036038101906105739190619393565b61194a565b005b34801561058657600080fd5b506105a1600480360381019061059c91906193f8565b6119fc565b005b3480156105af57600080fd5b506105ca60048036038101906105c59190619438565b611c53565b6040516105d79190619474565b60405180910390f35b3480156105ec57600080fd5b506105f5611c6b565b60405161060695949392919061949e565b60405180910390f35b34801561061b57600080fd5b50610624611ca0565b6040516106319190619474565b60405180910390f35b610654600480360381019061064f9190619602565b611cc4565b005b610670600480360381019061066b919061970c565b6125e3565b005b34801561067e57600080fd5b5061069960048036038101906106949190619791565b612bb9565b6040516106a69190619474565b60405180910390f35b3480156106bb57600080fd5b506106d660048036038101906106d19190619438565b612c1c565b6040516106e89695949392919061988b565b60405180910390f35b3480156106fd57600080fd5b50610706612d44565b005b34801561071457600080fd5b5061071d612f3a565b60405161072a91906198ec565b60405180910390f35b34801561073f57600080fd5b5061075a60048036038101906107559190619907565b612f4d565b6040516107679190619474565b60405180910390f35b34801561077c57600080fd5b5061079760048036038101906107929190619907565b612f78565b6040516107a49190619474565b60405180910390f35b3480156107b957600080fd5b506107d460048036038101906107cf91906199aa565b612fa3565b6040516107e19190619ae9565b60405180910390f35b3480156107f657600080fd5b50610811600480360381019061080c9190619393565b6130e4565b60405161081e91906198ec565b60405180910390f35b34801561083357600080fd5b5061083c613104565b6040516108499190619ae9565b60405180910390f35b34801561085e57600080fd5b5061087960048036038101906108749190619393565b61315c565b005b34801561088757600080fd5b506108a2600480360381019061089d9190619438565b6131a8565b6040516108af9190619b0b565b60405180910390f35b3480156108c457600080fd5b506108df60048036038101906108da9190619393565b6131c8565b6040516108ec9190619474565b60405180910390f35b34801561090157600080fd5b5061090a6131e0565b6040516109179190619b26565b60405180910390f35b34801561092c57600080fd5b5061094760048036038101906109429190619b41565b6131f8565b60405161095491906198ec565b60405180910390f35b61097760048036038101906109729190619b81565b6132b7565b005b34801561098557600080fd5b5061098e613916565b60405161099b9190619474565b60405180910390f35b3480156109b057600080fd5b506109b961391c565b005b3480156109c757600080fd5b506109e260048036038101906109dd9190619d22565b61392e565b6040516109ef9190619474565b60405180910390f35b348015610a0457600080fd5b50610a0d61395c565b604051610a1a9190619474565b60405180910390f35b348015610a2f57600080fd5b50610a4a6004803603810190610a459190619d6b565b613962565b005b348015610a5857600080fd5b50610a736004803603810190610a6e9190619393565b6139c0565b604051610a809190619474565b60405180910390f35b348015610a9557600080fd5b50610a9e6139d8565b604051610aab9190619474565b60405180910390f35b348015610ac057600080fd5b50610adb6004803603810190610ad69190619438565b6139dd565b604051610ae89190619474565b60405180910390f35b348015610afd57600080fd5b50610b186004803603810190610b139190619393565b6139f5565b005b348015610b2657600080fd5b50610b416004803603810190610b3c9190619438565b613c67565b604051610b4e9190619b26565b60405180910390f35b610b716004803603810190610b6c9190619d98565b613c9a565b005b348015610b7f57600080fd5b50610b9a6004803603810190610b959190619393565b6145a3565b604051610ba79190619474565b60405180910390f35b348015610bbc57600080fd5b50610bd76004803603810190610bd29190619393565b6145ec565b005b348015610be557600080fd5b50610c006004803603810190610bfb9190619438565b61470d565b005b348015610c0e57600080fd5b50610c176148d2565b604051610c2491906198ec565b60405180910390f35b348015610c3957600080fd5b50610c546004803603810190610c4f9190619393565b6148e9565b604051610c619190619474565b60405180910390f35b348015610c7657600080fd5b50610c916004803603810190610c8c9190619438565b614901565b604051610c9e9190619474565b60405180910390f35b348015610cb357600080fd5b50610cce6004803603810190610cc99190619393565b614925565b604051610cdb91906198ec565b60405180910390f35b348015610cf057600080fd5b50610cf9614945565b604051610d069190619474565b60405180910390f35b348015610d1b57600080fd5b50610d2461494b565b604051610d319190619474565b60405180910390f35b348015610d4657600080fd5b50610d616004803603810190610d5c9190619393565b614950565b005b348015610d6f57600080fd5b50610d786149b3565b604051610d859190619474565b60405180910390f35b348015610d9a57600080fd5b50610da36149b9565b005b348015610db157600080fd5b50610dcc6004803603810190610dc79190619393565b6149cd565b005b348015610dda57600080fd5b50610de3614a30565b005b348015610df157600080fd5b50610dfa614abf565b005b348015610e0857600080fd5b50610e236004803603810190610e1e9190619e4c565b614ad1565b604051610e329392919061a015565b60405180910390f35b348015610e4757600080fd5b50610e626004803603810190610e5d9190619d6b565b614d63565b005b348015610e7057600080fd5b50610e8b6004803603810190610e869190619393565b614d88565b005b348015610e9957600080fd5b50610eb46004803603810190610eaf919061a061565b61503b565b005b348015610ec257600080fd5b50610edd6004803603810190610ed8919061a0e9565b6157b6565b005b348015610eeb57600080fd5b50610ef4615f95565b604051610f019190619b26565b60405180910390f35b348015610f1657600080fd5b50610f316004803603810190610f2c9190619b41565b615fbd565b005b348015610f3f57600080fd5b50610f5a6004803603810190610f55919061a13c565b61631b565b005b348015610f6857600080fd5b50610f836004803603810190610f7e9190619b41565b616446565b005b348015610f9157600080fd5b50610f9a61682a565b604051610fa79190619b26565b60405180910390f35b348015610fbc57600080fd5b50610fd76004803603810190610fd2919061a17c565b616850565b005b348015610fe557600080fd5b506110006004803603810190610ffb919061a1cf565b6169a3565b60405161100d9190619474565b60405180910390f35b34801561102257600080fd5b5061103d60048036038101906110389190619393565b6169bb565b60405161104a9190619474565b60405180910390f35b34801561105f57600080fd5b50611068616a04565b6040516110759190619474565b60405180910390f35b34801561108a57600080fd5b50611093616a0a565b6040516110a192919061a1fc565b60405180910390f35b3480156110b657600080fd5b506110d160048036038101906110cc9190619d22565b616a4c565b6040516110de9190619474565b60405180910390f35b3480156110f357600080fd5b506110fc616a7a565b6040516111099190619b26565b60405180910390f35b34801561111e57600080fd5b5061113960048036038101906111349190619393565b616a9e565b6040516111469190619474565b60405180910390f35b34801561115b57600080fd5b50611164616ab6565b6040516111719190619b26565b60405180910390f35b34801561118657600080fd5b5061118f616ace565b60405161119c91906198ec565b60405180910390f35b3480156111b157600080fd5b506111cc60048036038101906111c79190619393565b616ae1565b6040516111d99190619474565b60405180910390f35b3480156111ee57600080fd5b506111f7616af9565b6040516112049190619474565b60405180910390f35b34801561121957600080fd5b50611222616aff565b60405161122f9190619474565b60405180910390f35b34801561124457600080fd5b5061125f600480360381019061125a9190619393565b616b05565b60405161126c9190619474565b60405180910390f35b34801561128157600080fd5b5061129c60048036038101906112979190619393565b616b1d565b6040516112ab9392919061a225565b60405180910390f35b3480156112c057600080fd5b506112db60048036038101906112d69190619438565b616bef565b6040516112e992919061a25c565b60405180910390f35b3480156112fe57600080fd5b506113196004803603810190611314919061a285565b616cbf565b6040516113269190619474565b60405180910390f35b34801561133b57600080fd5b5061135660048036038101906113519190619393565b616d46565b60405161136492919061a1fc565b60405180910390f35b34801561137957600080fd5b50611394600480360381019061138f9190619438565b616dd2565b6040516113a595949392919061a2c5565b60405180910390f35b3480156113ba57600080fd5b506113c3616e42565b6040516113d09190619474565b60405180910390f35b3480156113e557600080fd5b506113ee616e48565b6040516113fb9190619b26565b60405180910390f35b34801561141057600080fd5b50611419616e6c565b005b34801561142757600080fd5b50611430616fe2565b005b34801561143e57600080fd5b506114596004803603810190611454919061970c565b6170f1565b6040516114669190619474565b60405180910390f35b34801561147b57600080fd5b506114846173ac565b6040516114919190619474565b60405180910390f35b3480156114a657600080fd5b506114af6173b2565b005b3480156114bd57600080fd5b506114d860048036038101906114d3919061a318565b61766c565b6040516114e8949392919061a358565b60405180910390f35b3480156114fd57600080fd5b506115066179ff565b6040516115139190619474565b60405180910390f35b34801561152857600080fd5b50611531617a05565b60405161153e9190619b26565b60405180910390f35b611561600480360381019061155c9190619438565b617a2f565b005b34801561156f57600080fd5b50611578617fdc565b6040516115859190619474565b60405180910390f35b34801561159a57600080fd5b506115a3617fe2565b6040516115b09190619474565b60405180910390f35b3480156115c557600080fd5b506115e060048036038101906115db9190619393565b617fe8565b005b3480156115ee57600080fd5b506115f7618095565b6040516116049190619474565b60405180910390f35b34801561161957600080fd5b50611634600480360381019061162f919061a318565b61809b565b6040516116439392919061a225565b60405180910390f35b34801561165857600080fd5b50611673600480360381019061166e9190619393565b6181ad565b6040516116809190619474565b60405180910390f35b34801561169557600080fd5b5061169e6181c5565b6040516116ad9392919061a3b2565b60405180910390f35b601660003373ffffffffffffffffffffffffffffffffffffffff1673ffffffffffffffffffffffffffffffffffffffff16815260200190815260200160002060009054906101000a900460ff16611742576040517f08c379a00000000000000000000000000000000000000000000000000000000081526004016117399061a446565b60405180910390fd5b61174a6181ea565b611752618230565b60008111611795576040517f08c379a000000000000000000000000000000000000000000000000000000000815260040161178c9061a4b2565b60405180910390fd5b600073ffffffffffffffffffffffffffffffffffffffff168473ffffffffffffffffffffffffffffffffffffffff1603611804576040517f08c379a00000000000000000000000000000000000000000000000000000000081526004016117fb9061a51e565b60405180910390fd5b611845333083733c499c542cef5e3811e1192ce70d8cc03d5c335973ffffffffffffffffffffffffffffffffffffffff16618271909392919063ffffffff16565b80601560008673ffffffffffffffffffffffffffffffffffffffff1673ffffffffffffffffffffffffffffffffffffffff1681526020019081526020016000206000828254611894919061a56d565b9250508190555080601760008282546118ad919061a56d565b9250508190555080601860008563ffffffff16815260200190815260200160002060008282546118dd919061a56d565b92505081905550818363ffffffff168573ffffffffffffffffffffffffffffffffffffffff167f9d580963f6995529c22257725491b9d27d903d9b0901dca02b6599964b6933d3844260405161193492919061a1fc565b60405180910390a46119446182f3565b50505050565b6119526182fd565b6000601660008373ffffffffffffffffffffffffffffffffffffffff1673ffffffffffffffffffffffffffffffffffffffff16815260200190815260200160002060006101000a81548160ff0219169083151502179055508073ffffffffffffffffffffffffffffffffffffffff167f5afe4db7a7f6fb62654cf58aa1c5b48bf792e80667fd0480625d1e5d5274493760006040516119f191906198ec565b60405180910390a250565b611a046182fd565b600082118015611a155750600a5482105b611a54576040517f08c379a0000000000000000000000000000000000000000000000000000000008152600401611a4b9061a5ed565b60405180910390fd5b8015156007600084815260200190815260200160002060000160149054906101000a900460ff16151514611c4f57806007600084815260200190815260200160002060000160146101000a81548160ff0219169083151502179055508015611b2557600b6000815480929190611ac99061a60d565b9190505550600c8290806001815401808255809150506001900390600052602060002001600090919091909150556001600c80549050611b09919061a655565b600d600084815260200190815260200160002081905550611c14565b600b6000815480929190611b389061a689565b91905055506000600d600084815260200190815260200160002054905060006001600c80549050611b69919061a655565b9050808214611bd2576000600c8281548110611b8857611b8761a6b2565b5b9060005260206000200154905080600c8481548110611baa57611ba961a6b2565b5b906000526020600020018190555082600d600083815260200190815260200160002081905550505b600c805480611be457611be361a6e1565b5b60019003818190600052602060002001600090559055600d60008581526020019081526020016000206000905550505b817fd9518d7736fcf52ce591f2d7253f1a915bc7badc5bb6d8fd12e82b558740c2f88242604051611c4692919061a710565b60405180910390a25b5050565b60186020528060005260406000206000915090505481565b6000806000806000601154601254601354600b54600560009054906101000a900460ff16945094509450945094509091929394565b7f000000000000000000000000000000000000000000000000000000000000000081565b611ccc6181ea565b611cd4618230565b6000600860003373ffffffffffffffffffffffffffffffffffffffff1673ffffffffffffffffffffffffffffffffffffffff16815260200190815260200160002054905060008111611d5b576040517f08c379a0000000000000000000000000000000000000000000000000000000008152600401611d529061a785565b60405180910390fd5b6007600082815260200190815260200160002060000160149054906101000a900460ff16611dbe576040517f08c379a0000000000000000000000000000000000000000000000000000000008152600401611db59061a7f1565b60405180910390fd5b601d60009054906101000a900460ff16611e0d576040517f08c379a0000000000000000000000000000000000000000000000000000000008152600401611e049061a85d565b60405180910390fd5b848490508787905014611e55576040517f08c379a0000000000000000000000000000000000000000000000000000000008152600401611e4c9061a8c9565b60405180910390fd5b828290508787905014611e9d576040517f08c379a0000000000000000000000000000000000000000000000000000000008152600401611e949061a8c9565b60405180910390fd5b6032878790501115611ee4576040517f08c379a0000000000000000000000000000000000000000000000000000000008152600401611edb9061a935565b60405180910390fd5b6000805b86869050811015611f2d57868682818110611f0657611f0561a6b2565b5b9050602002013582611f18919061a56d565b91508080611f259061a60d565b915050611ee8565b50803414611f70576040517f08c379a0000000000000000000000000000000000000000000000000000000008152600401611f679061a9a1565b60405180910390fd5b60005b8888905081101561257757600073ffffffffffffffffffffffffffffffffffffffff16898983818110611fa957611fa861a6b2565b5b9050602002016020810190611fbe9190619393565b73ffffffffffffffffffffffffffffffffffffffff1603612014576040517f08c379a000000000000000000000000000000000000000000000000000000000815260040161200b9061aa0d565b60405180910390fd5b3373ffffffffffffffffffffffffffffffffffffffff1689898381811061203e5761203d61a6b2565b5b90506020020160208101906120539190619393565b73ffffffffffffffffffffffffffffffffffffffff16036120a9576040517f08c379a00000000000000000000000000000000000000000000000000000000081526004016120a09061aa79565b60405180910390fd5b60648787838181106120be576120bd61a6b2565b5b905060200201351015612106576040517f08c379a00000000000000000000000000000000000000000000000000000000081526004016120fd9061aae5565b60405180910390fd5b600061271060648989858181106121205761211f61a6b2565b5b90506020020135612131919061ab05565b61213b919061ab76565b90506000818989858181106121535761215261a6b2565b5b90506020020135612164919061a655565b90506000600560009054906101000a900460ff1680156121d35750600073ffffffffffffffffffffffffffffffffffffffff16600560019054906101000a900473ffffffffffffffffffffffffffffffffffffffff1673ffffffffffffffffffffffffffffffffffffffff1614155b1561223e57612202837f0000000000000000000000000000000000000000000000000000000000000000618384565b801561223b575061223a828d8d878181106122205761221f61a6b2565b5b90506020020160208101906122359190619393565b618384565b5b90505b8061233b5781600f60008e8e8881811061225b5761225a61a6b2565b5b90506020020160208101906122709190619393565b73ffffffffffffffffffffffffffffffffffffffff1673ffffffffffffffffffffffffffffffffffffffff16815260200190815260200160002060008282546122b9919061a56d565b9250508190555082600f60007f000000000000000000000000000000000000000000000000000000000000000073ffffffffffffffffffffffffffffffffffffffff1673ffffffffffffffffffffffffffffffffffffffff168152602001908152602001600020600082825461232f919061a56d565b9250508190555061236e565b89898581811061234e5761234d61a6b2565b5b9050602002013560136000828254612366919061a56d565b925050819055505b8989858181106123815761238061a6b2565b5b90506020020135601960003373ffffffffffffffffffffffffffffffffffffffff1673ffffffffffffffffffffffffffffffffffffffff16815260200190815260200160002060008282546123d6919061a56d565b9250508190555081601a60008e8e888181106123f5576123f461a6b2565b5b905060200201602081019061240a9190619393565b73ffffffffffffffffffffffffffffffffffffffff1673ffffffffffffffffffffffffffffffffffffffff1681526020019081526020016000206000828254612453919061a56d565b9250508190555089898581811061246d5761246c61a6b2565b5b90506020020135601c6000828254612485919061a56d565b925050819055508b8b8581811061249f5761249e61a6b2565b5b90506020020160208101906124b49190619393565b73ffffffffffffffffffffffffffffffffffffffff163373ffffffffffffffffffffffffffffffffffffffff167faf11b1af7805b69d336f156459fa0d2b2d9d8667f59d8e09daf371b8a6803c1060008d8d898181106125175761251661a6b2565b5b90506020020135878d8d8b8181106125325761253161a6b2565b5b9050602002810190612544919061abb6565b8842604051612559979695949392919061ac46565b60405180910390a3505050808061256f9061a60d565b915050611f73565b5087879050601b60003373ffffffffffffffffffffffffffffffffffffffff1673ffffffffffffffffffffffffffffffffffffffff16815260200190815260200160002060008282546125ca919061a56d565b9250508190555050506125db6182f3565b505050505050565b6125eb6181ea565b6125f3618230565b6000600860003373ffffffffffffffffffffffffffffffffffffffff1673ffffffffffffffffffffffffffffffffffffffff1681526020019081526020016000205490506000811161267a576040517f08c379a00000000000000000000000000000000000000000000000000000000081526004016126719061a785565b60405180910390fd5b6007600082815260200190815260200160002060000160149054906101000a900460ff166126dd576040517f08c379a00000000000000000000000000000000000000000000000000000000081526004016126d49061a7f1565b60405180910390fd5b601d60009054906101000a900460ff1661272c576040517f08c379a00000000000000000000000000000000000000000000000000000000081526004016127239061a85d565b60405180910390fd5b600073ffffffffffffffffffffffffffffffffffffffff168473ffffffffffffffffffffffffffffffffffffffff160361279b576040517f08c379a00000000000000000000000000000000000000000000000000000000081526004016127929061aa0d565b60405180910390fd5b3373ffffffffffffffffffffffffffffffffffffffff168473ffffffffffffffffffffffffffffffffffffffff1603612809576040517f08c379a00000000000000000000000000000000000000000000000000000000081526004016128009061aa79565b60405180910390fd5b606434101561284d576040517f08c379a00000000000000000000000000000000000000000000000000000000081526004016128449061aae5565b60405180910390fd5b600061271060643461285f919061ab05565b612869919061ab76565b905060008134612879919061a655565b905034601960003373ffffffffffffffffffffffffffffffffffffffff1673ffffffffffffffffffffffffffffffffffffffff16815260200190815260200160002060008282546128ca919061a56d565b9250508190555080601a60008873ffffffffffffffffffffffffffffffffffffffff1673ffffffffffffffffffffffffffffffffffffffff1681526020019081526020016000206000828254612920919061a56d565b92505081905550601b60003373ffffffffffffffffffffffffffffffffffffffff1673ffffffffffffffffffffffffffffffffffffffff16815260200190815260200160002060008154809291906129779061a60d565b919050555034601c600082825461298e919061a56d565b925050819055506000600560009054906101000a900460ff168015612a025750600073ffffffffffffffffffffffffffffffffffffffff16600560019054906101000a900473ffffffffffffffffffffffffffffffffffffffff1673ffffffffffffffffffffffffffffffffffffffff1614155b15612a4657612a31837f0000000000000000000000000000000000000000000000000000000000000000618384565b8015612a435750612a428288618384565b5b90505b80612b1c5781600f60008973ffffffffffffffffffffffffffffffffffffffff1673ffffffffffffffffffffffffffffffffffffffff1681526020019081526020016000206000828254612a9a919061a56d565b9250508190555082600f60007f000000000000000000000000000000000000000000000000000000000000000073ffffffffffffffffffffffffffffffffffffffff1673ffffffffffffffffffffffffffffffffffffffff1681526020019081526020016000206000828254612b10919061a56d565b92505081905550612b36565b3460136000828254612b2e919061a56d565b925050819055505b8673ffffffffffffffffffffffffffffffffffffffff163373ffffffffffffffffffffffffffffffffffffffff167faf11b1af7805b69d336f156459fa0d2b2d9d8667f59d8e09daf371b8a6803c10600034878b8b8842604051612ba0979695949392919061ac46565b60405180910390a350505050612bb46182f3565b505050565b6000612bc36182fd565b612c12858585858080601f016020809104026020016040519081016040528093929190818152602001838380828437600081840152601f19601f82011690508083019250505050505050618658565b9050949350505050565b600080600080600080600087118015612c365750600a5487105b612c75576040517f08c379a0000000000000000000000000000000000000000000000000000000008152600401612c6c9061a5ed565b60405180910390fd5b60006007600089815260200190815260200160002090506000600360008360030160009054906101000a900460ff166003811115612cb657612cb5619814565b5b6003811115612cc857612cc7619814565b5b81526020019081526020016000205490508160000160009054906101000a900473ffffffffffffffffffffffffffffffffffffffff168260000160149054906101000a900460ff16836001015484600201548560030160009054906101000a900460ff1685975097509750975097509750505091939550919395565b7f000000000000000000000000000000000000000000000000000000000000000073ffffffffffffffffffffffffffffffffffffffff163373ffffffffffffffffffffffffffffffffffffffff161480612ddd57506000600860003373ffffffffffffffffffffffffffffffffffffffff1673ffffffffffffffffffffffffffffffffffffffff16815260200190815260200160002054115b612e1c576040517f08c379a0000000000000000000000000000000000000000000000000000000008152600401612e139061acfc565b60405180910390fd5b6000600f60003373ffffffffffffffffffffffffffffffffffffffff1673ffffffffffffffffffffffffffffffffffffffff16815260200190815260200160002054905060008111612ea3576040517f08c379a0000000000000000000000000000000000000000000000000000000008152600401612e9a9061ad68565b60405180910390fd5b6000600f60003373ffffffffffffffffffffffffffffffffffffffff1673ffffffffffffffffffffffffffffffffffffffff168152602001908152602001600020819055506000612ef48233618384565b905080612f36576040517f08c379a0000000000000000000000000000000000000000000000000000000008152600401612f2d9061add4565b60405180910390fd5b5050565b601d60009054906101000a900460ff1681565b600060208383604051612f6192919061ae24565b908152602001604051809103902054905092915050565b600060098383604051612f8c92919061ae24565b908152602001604051809103902054905092915050565b6060612fad6182fd565b828290508585905014612ff5576040517f08c379a0000000000000000000000000000000000000000000000000000000008152600401612fec9061a8c9565b60405180910390fd5b8484905067ffffffffffffffff81111561301257613011619bf7565b5b6040519080825280602002602001820160405280156130405781602001602082028036833780820191505090505b50905060005b858590508110156130db576130a98686838181106130675761306661a6b2565b5b905060200201602081019061307c9190619393565b85858481811061308f5761308e61a6b2565b5b90506020020160208101906130a4919061a1cf565b618ae1565b8282815181106130bc576130bb61a6b2565b5b60200260200101818152505080806130d39061a60d565b915050613046565b50949350505050565b60166020528060005260406000206000915054906101000a900460ff1681565b6060600c80548060200260200160405190810160405280929190818152602001828054801561315257602002820191906000526020600020905b81548152602001906001019080831161313e575b5050505050905090565b6131646182fd565b80600560016101000a81548173ffffffffffffffffffffffffffffffffffffffff021916908373ffffffffffffffffffffffffffffffffffffffff16021790555050565b60046020528060005260406000206000915054906101000a900460ff1681565b60146020528060005260406000206000915090505481565b733c499c542cef5e3811e1192ce70d8cc03d5c335981565b6000600e60008373ffffffffffffffffffffffffffffffffffffffff1673ffffffffffffffffffffffffffffffffffffffff16815260200190815260200160002060009054906101000a900460ff16806132af57506007600084815260200190815260200160002060040160008373ffffffffffffffffffffffffffffffffffffffff1673ffffffffffffffffffffffffffffffffffffffff16815260200190815260200160002060009054906101000a900460ff165b905092915050565b6132bf6181ea565b6132c7618230565b6000600860003373ffffffffffffffffffffffffffffffffffffffff1673ffffffffffffffffffffffffffffffffffffffff1681526020019081526020016000205490506000811161334e576040517f08c379a00000000000000000000000000000000000000000000000000000000081526004016133459061a785565b60405180910390fd5b6007600082815260200190815260200160002060000160149054906101000a900460ff166133b1576040517f08c379a00000000000000000000000000000000000000000000000000000000081526004016133a89061a7f1565b60405180910390fd5b601d60009054906101000a900460ff16613400576040517f08c379a00000000000000000000000000000000000000000000000000000000081526004016133f79061a85d565b60405180910390fd5b600084118015613411575060215484105b613450576040517f08c379a00000000000000000000000000000000000000000000000000000000081526004016134479061ae89565b60405180910390fd5b6000601e600086815260200190815260200160002060009054906101000a900473ffffffffffffffffffffffffffffffffffffffff169050600073ffffffffffffffffffffffffffffffffffffffff168173ffffffffffffffffffffffffffffffffffffffff16036134f7576040517f08c379a00000000000000000000000000000000000000000000000000000000081526004016134ee9061aef5565b60405180910390fd5b3373ffffffffffffffffffffffffffffffffffffffff168173ffffffffffffffffffffffffffffffffffffffff1603613565576040517f08c379a000000000000000000000000000000000000000000000000000000000815260040161355c9061aa79565b60405180910390fd5b60643410156135a9576040517f08c379a00000000000000000000000000000000000000000000000000000000081526004016135a09061aae5565b60405180910390fd5b60006127106064346135bb919061ab05565b6135c5919061ab76565b9050600081346135d5919061a655565b905034601960003373ffffffffffffffffffffffffffffffffffffffff1673ffffffffffffffffffffffffffffffffffffffff1681526020019081526020016000206000828254613626919061a56d565b9250508190555080601a60008573ffffffffffffffffffffffffffffffffffffffff1673ffffffffffffffffffffffffffffffffffffffff168152602001908152602001600020600082825461367c919061a56d565b92505081905550601b60003373ffffffffffffffffffffffffffffffffffffffff1673ffffffffffffffffffffffffffffffffffffffff16815260200190815260200160002060008154809291906136d39061a60d565b919050555034601c60008282546136ea919061a56d565b925050819055506000600560009054906101000a900460ff16801561375e5750600073ffffffffffffffffffffffffffffffffffffffff16600560019054906101000a900473ffffffffffffffffffffffffffffffffffffffff1673ffffffffffffffffffffffffffffffffffffffff1614155b156137a25761378d837f0000000000000000000000000000000000000000000000000000000000000000618384565b801561379f575061379e8285618384565b5b90505b806138785781600f60008673ffffffffffffffffffffffffffffffffffffffff1673ffffffffffffffffffffffffffffffffffffffff16815260200190815260200160002060008282546137f6919061a56d565b9250508190555082600f60007f000000000000000000000000000000000000000000000000000000000000000073ffffffffffffffffffffffffffffffffffffffff1673ffffffffffffffffffffffffffffffffffffffff168152602001908152602001600020600082825461386c919061a56d565b92505081905550613892565b346013600082825461388a919061a56d565b925050819055505b8373ffffffffffffffffffffffffffffffffffffffff163373ffffffffffffffffffffffffffffffffffffffff167faf11b1af7805b69d336f156459fa0d2b2d9d8667f59d8e09daf371b8a6803c10600034878c8c88426040516138fc979695949392919061ac46565b60405180910390a350505050506139116182f3565b505050565b6101f481565b6139246182fd565b61392c618b05565b565b6020818051602081018201805184825260208301602085012081835280955050505050506000915090505481565b6103e881565b61396a6182fd565b80601d60006101000a81548160ff0219169083151502179055507f127e7000860e147537565064385997c3085650c31b251451c0c7e198613e74d381426040516139b592919061a710565b60405180910390a150565b601a6020528060005260406000206000915090505481565b606481565b600d6020528060005260406000206000915090505481565b7f000000000000000000000000000000000000000000000000000000000000000073ffffffffffffffffffffffffffffffffffffffff163373ffffffffffffffffffffffffffffffffffffffff161480613a8e57506000600860003373ffffffffffffffffffffffffffffffffffffffff1673ffffffffffffffffffffffffffffffffffffffff16815260200190815260200160002054115b613acd576040517f08c379a0000000000000000000000000000000000000000000000000000000008152600401613ac49061acfc565b60405180910390fd5b6000601060003373ffffffffffffffffffffffffffffffffffffffff1673ffffffffffffffffffffffffffffffffffffffff16815260200190815260200160002060008373ffffffffffffffffffffffffffffffffffffffff1673ffffffffffffffffffffffffffffffffffffffff16815260200190815260200160002054905060008111613b91576040517f08c379a0000000000000000000000000000000000000000000000000000000008152600401613b889061af61565b60405180910390fd5b6000601060003373ffffffffffffffffffffffffffffffffffffffff1673ffffffffffffffffffffffffffffffffffffffff16815260200190815260200160002060008473ffffffffffffffffffffffffffffffffffffffff1673ffffffffffffffffffffffffffffffffffffffff168152602001908152602001600020819055506000613c20838333618b68565b905080613c62576040517f08c379a0000000000000000000000000000000000000000000000000000000008152600401613c599061add4565b60405180910390fd5b505050565b601e6020528060005260406000206000915054906101000a900473ffffffffffffffffffffffffffffffffffffffff1681565b613ca26181ea565b613caa618230565b6000600860003373ffffffffffffffffffffffffffffffffffffffff1673ffffffffffffffffffffffffffffffffffffffff16815260200190815260200160002054905060008111613d31576040517f08c379a0000000000000000000000000000000000000000000000000000000008152600401613d289061a785565b60405180910390fd5b6007600082815260200190815260200160002060000160149054906101000a900460ff16613d94576040517f08c379a0000000000000000000000000000000000000000000000000000000008152600401613d8b9061a7f1565b60405180910390fd5b601d60009054906101000a900460ff16613de3576040517f08c379a0000000000000000000000000000000000000000000000000000000008152600401613dda9061a85d565b60405180910390fd5b848490508787905014613e2b576040517f08c379a0000000000000000000000000000000000000000000000000000000008152600401613e229061a8c9565b60405180910390fd5b828290508787905014613e73576040517f08c379a0000000000000000000000000000000000000000000000000000000008152600401613e6a9061a8c9565b60405180910390fd5b6032878790501115613eba576040517f08c379a0000000000000000000000000000000000000000000000000000000008152600401613eb19061a935565b60405180910390fd5b6000805b86869050811015613f0357868682818110613edc57613edb61a6b2565b5b9050602002013582613eee919061a56d565b91508080613efb9061a60d565b915050613ebe565b50803414613f46576040517f08c379a0000000000000000000000000000000000000000000000000000000008152600401613f3d9061a9a1565b60405180910390fd5b60005b88889050811015614537576000898983818110613f6957613f6861a6b2565b5b90506020020135118015613f975750602154898983818110613f8e57613f8d61a6b2565b5b90506020020135105b613fd6576040517f08c379a0000000000000000000000000000000000000000000000000000000008152600401613fcd9061ae89565b60405180910390fd5b6000601e60008b8b85818110613fef57613fee61a6b2565b5b90506020020135815260200190815260200160002060009054906101000a900473ffffffffffffffffffffffffffffffffffffffff169050600073ffffffffffffffffffffffffffffffffffffffff168173ffffffffffffffffffffffffffffffffffffffff1603614096576040517f08c379a000000000000000000000000000000000000000000000000000000000815260040161408d9061aef5565b60405180910390fd5b3373ffffffffffffffffffffffffffffffffffffffff168173ffffffffffffffffffffffffffffffffffffffff1603614104576040517f08c379a00000000000000000000000000000000000000000000000000000000081526004016140fb9061aa79565b60405180910390fd5b60648888848181106141195761411861a6b2565b5b905060200201351015614161576040517f08c379a00000000000000000000000000000000000000000000000000000000081526004016141589061aae5565b60405180910390fd5b600061271060648a8a8681811061417b5761417a61a6b2565b5b9050602002013561418c919061ab05565b614196919061ab76565b90506000818a8a868181106141ae576141ad61a6b2565b5b905060200201356141bf919061a655565b90506000600560009054906101000a900460ff16801561422e5750600073ffffffffffffffffffffffffffffffffffffffff16600560019054906101000a900473ffffffffffffffffffffffffffffffffffffffff1673ffffffffffffffffffffffffffffffffffffffff1614155b156142725761425d837f0000000000000000000000000000000000000000000000000000000000000000618384565b801561426f575061426e8285618384565b5b90505b806143485781600f60008673ffffffffffffffffffffffffffffffffffffffff1673ffffffffffffffffffffffffffffffffffffffff16815260200190815260200160002060008282546142c6919061a56d565b9250508190555082600f60007f000000000000000000000000000000000000000000000000000000000000000073ffffffffffffffffffffffffffffffffffffffff1673ffffffffffffffffffffffffffffffffffffffff168152602001908152602001600020600082825461433c919061a56d565b9250508190555061437b565b8a8a8681811061435b5761435a61a6b2565b5b9050602002013560136000828254614373919061a56d565b925050819055505b8a8a8681811061438e5761438d61a6b2565b5b90506020020135601960003373ffffffffffffffffffffffffffffffffffffffff1673ffffffffffffffffffffffffffffffffffffffff16815260200190815260200160002060008282546143e3919061a56d565b9250508190555081601a60008673ffffffffffffffffffffffffffffffffffffffff1673ffffffffffffffffffffffffffffffffffffffff1681526020019081526020016000206000828254614439919061a56d565b925050819055508a8a868181106144535761445261a6b2565b5b90506020020135601c600082825461446b919061a56d565b925050819055508373ffffffffffffffffffffffffffffffffffffffff163373ffffffffffffffffffffffffffffffffffffffff167faf11b1af7805b69d336f156459fa0d2b2d9d8667f59d8e09daf371b8a6803c1060008e8e8a8181106144d6576144d561a6b2565b5b90506020020135878e8e8c8181106144f1576144f061a6b2565b5b9050602002810190614503919061abb6565b8842604051614518979695949392919061ac46565b60405180910390a350505050808061452f9061a60d565b915050613f49565b5087879050601b60003373ffffffffffffffffffffffffffffffffffffffff1673ffffffffffffffffffffffffffffffffffffffff168152602001908152602001600020600082825461458a919061a56d565b92505081905550505061459b6182f3565b505050505050565b6000600860008373ffffffffffffffffffffffffffffffffffffffff1673ffffffffffffffffffffffffffffffffffffffff168152602001908152602001600020549050919050565b6145f46182fd565b600073ffffffffffffffffffffffffffffffffffffffff168173ffffffffffffffffffffffffffffffffffffffff1603614663576040517f08c379a000000000000000000000000000000000000000000000000000000000815260040161465a9061afcd565b60405180910390fd5b6001601660008373ffffffffffffffffffffffffffffffffffffffff1673ffffffffffffffffffffffffffffffffffffffff16815260200190815260200160002060006101000a81548160ff0219169083151502179055508073ffffffffffffffffffffffffffffffffffffffff167f5afe4db7a7f6fb62654cf58aa1c5b48bf792e80667fd0480625d1e5d52744937600160405161470291906198ec565b60405180910390a250565b6147156181ea565b61471d618230565b60008111614760576040517f08c379a00000000000000000000000000000000000000000000000000000000081526004016147579061b039565b60405180910390fd5b80601560003373ffffffffffffffffffffffffffffffffffffffff1673ffffffffffffffffffffffffffffffffffffffff1681526020019081526020016000205410156147e2576040517f08c379a00000000000000000000000000000000000000000000000000000000081526004016147d99061b0a5565b60405180910390fd5b80601560003373ffffffffffffffffffffffffffffffffffffffff1673ffffffffffffffffffffffffffffffffffffffff1681526020019081526020016000206000828254614831919061a655565b925050819055506148773382733c499c542cef5e3811e1192ce70d8cc03d5c335973ffffffffffffffffffffffffffffffffffffffff16618ee79092919063ffffffff16565b3373ffffffffffffffffffffffffffffffffffffffff167f6694a0cb8a19b254bcf47ffa7eb3894be05cb092d54823f77c3523b4c373b16682426040516148bf92919061a1fc565b60405180910390a26148cf6182f3565b50565b6000600160009054906101000a900460ff16905090565b60086020528060005260406000206000915090505481565b600c818154811061491157600080fd5b906000526020600020016000915090505481565b600e6020528060005260406000206000915054906101000a900460ff1681565b60135481565b606481565b6149586182fd565b6001600e60008373ffffffffffffffffffffffffffffffffffffffff1673ffffffffffffffffffffffffffffffffffffffff16815260200190815260200160002060006101000a81548160ff02191690831515021790555050565b600b5481565b6149c16182fd565b6149cb6000618f66565b565b6149d56182fd565b6000600e60008373ffffffffffffffffffffffffffffffffffffffff1673ffffffffffffffffffffffffffffffffffffffff16815260200190815260200160002060006101000a81548160ff02191690831515021790555050565b6000614a3a618f97565b90508073ffffffffffffffffffffffffffffffffffffffff16614a5b617a05565b73ffffffffffffffffffffffffffffffffffffffff1614614ab357806040517f118cdaa7000000000000000000000000000000000000000000000000000000008152600401614aaa9190619b26565b60405180910390fd5b614abc81618f66565b50565b614ac76182fd565b614acf618f9f565b565b606080606060008585905090506064811115614b22576040517f08c379a0000000000000000000000000000000000000000000000000000000008152600401614b199061b111565b60405180910390fd5b8067ffffffffffffffff811115614b3c57614b3b619bf7565b5b604051908082528060200260200182016040528015614b6a5781602001602082028036833780820191505090505b5093508067ffffffffffffffff811115614b8757614b86619bf7565b5b604051908082528060200260200182016040528015614bb55781602001602082028036833780820191505090505b5092508067ffffffffffffffff811115614bd257614bd1619bf7565b5b604051908082528060200260200182016040528015614c005781602001602082028036833780820191505090505b50915060005b81811015614d5a576000878783818110614c2357614c2261a6b2565b5b905060200201359050600081118015614c3d5750600a5481105b15614d46576007600082815260200190815260200160002060010154868381518110614c6c57614c6b61a6b2565b5b6020026020010181815250506007600082815260200190815260200160002060000160009054906101000a900473ffffffffffffffffffffffffffffffffffffffff16858381518110614cc257614cc161a6b2565b5b602002602001019073ffffffffffffffffffffffffffffffffffffffff16908173ffffffffffffffffffffffffffffffffffffffff16815250506007600082815260200190815260200160002060000160149054906101000a900460ff16848381518110614d3357614d3261a6b2565b5b6020026020010190151590811515815250505b508080614d529061a60d565b915050614c06565b50509250925092565b614d6b6182fd565b80600560006101000a81548160ff02191690831515021790555050565b614d906181ea565b7f000000000000000000000000000000000000000000000000000000000000000073ffffffffffffffffffffffffffffffffffffffff163373ffffffffffffffffffffffffffffffffffffffff161480614e3557507f000000000000000000000000000000000000000000000000000000000000000073ffffffffffffffffffffffffffffffffffffffff163373ffffffffffffffffffffffffffffffffffffffff16145b80614e7f57506000600860003373ffffffffffffffffffffffffffffffffffffffff1673ffffffffffffffffffffffffffffffffffffffff16815260200190815260200160002054115b614ebe576040517f08c379a0000000000000000000000000000000000000000000000000000000008152600401614eb59061acfc565b60405180910390fd5b6000601060003373ffffffffffffffffffffffffffffffffffffffff1673ffffffffffffffffffffffffffffffffffffffff16815260200190815260200160002060008373ffffffffffffffffffffffffffffffffffffffff1673ffffffffffffffffffffffffffffffffffffffff16815260200190815260200160002054905060008111614f82576040517f08c379a0000000000000000000000000000000000000000000000000000000008152600401614f799061b17d565b60405180910390fd5b6000601060003373ffffffffffffffffffffffffffffffffffffffff1673ffffffffffffffffffffffffffffffffffffffff16815260200190815260200160002060008473ffffffffffffffffffffffffffffffffffffffff1673ffffffffffffffffffffffffffffffffffffffff1681526020019081526020016000208190555061502f33828473ffffffffffffffffffffffffffffffffffffffff16618ee79092919063ffffffff16565b506150386182f3565b50565b6150436181ea565b61504b618230565b6000600860003373ffffffffffffffffffffffffffffffffffffffff1673ffffffffffffffffffffffffffffffffffffffff168152602001908152602001600020549050600081116150d2576040517f08c379a00000000000000000000000000000000000000000000000000000000081526004016150c99061a785565b60405180910390fd5b6007600082815260200190815260200160002060000160149054906101000a900460ff16615135576040517f08c379a000000000000000000000000000000000000000000000000000000000815260040161512c9061a7f1565b60405180910390fd5b601d60009054906101000a900460ff16615184576040517f08c379a000000000000000000000000000000000000000000000000000000000815260040161517b9061a85d565b60405180910390fd5b600073ffffffffffffffffffffffffffffffffffffffff168673ffffffffffffffffffffffffffffffffffffffff16036151f3576040517f08c379a00000000000000000000000000000000000000000000000000000000081526004016151ea9061aa0d565b60405180910390fd5b3373ffffffffffffffffffffffffffffffffffffffff168673ffffffffffffffffffffffffffffffffffffffff1603615261576040517f08c379a00000000000000000000000000000000000000000000000000000000081526004016152589061aa79565b60405180910390fd5b600073ffffffffffffffffffffffffffffffffffffffff168573ffffffffffffffffffffffffffffffffffffffff16036152d0576040517f08c379a00000000000000000000000000000000000000000000000000000000081526004016152c79061b1e9565b60405180910390fd5b6064841015615314576040517f08c379a000000000000000000000000000000000000000000000000000000000815260040161530b9061aae5565b60405180910390fd5b600e60008673ffffffffffffffffffffffffffffffffffffffff1673ffffffffffffffffffffffffffffffffffffffff16815260200190815260200160002060009054906101000a900460ff166153a0576040517f08c379a00000000000000000000000000000000000000000000000000000000081526004016153979061b255565b60405180910390fd5b6153cd3330868873ffffffffffffffffffffffffffffffffffffffff16618271909392919063ffffffff16565b60006127106064866153df919061ab05565b6153e9919061ab76565b9050600081866153f9919061a655565b905085601960003373ffffffffffffffffffffffffffffffffffffffff1673ffffffffffffffffffffffffffffffffffffffff168152602001908152602001600020600082825461544a919061a56d565b9250508190555080601a60008a73ffffffffffffffffffffffffffffffffffffffff1673ffffffffffffffffffffffffffffffffffffffff16815260200190815260200160002060008282546154a0919061a56d565b92505081905550601b60003373ffffffffffffffffffffffffffffffffffffffff1673ffffffffffffffffffffffffffffffffffffffff16815260200190815260200160002060008154809291906154f79061a60d565b919050555085601c600082825461550e919061a56d565b925050819055506000600560009054906101000a900460ff1680156155825750600073ffffffffffffffffffffffffffffffffffffffff16600560019054906101000a900473ffffffffffffffffffffffffffffffffffffffff1673ffffffffffffffffffffffffffffffffffffffff1614155b156155c8576155b288847f0000000000000000000000000000000000000000000000000000000000000000618b68565b80156155c557506155c488838b618b68565b5b90505b806157185781601060008b73ffffffffffffffffffffffffffffffffffffffff1673ffffffffffffffffffffffffffffffffffffffff16815260200190815260200160002060008a73ffffffffffffffffffffffffffffffffffffffff1673ffffffffffffffffffffffffffffffffffffffff1681526020019081526020016000206000828254615659919061a56d565b9250508190555082601060007f000000000000000000000000000000000000000000000000000000000000000073ffffffffffffffffffffffffffffffffffffffff1673ffffffffffffffffffffffffffffffffffffffff16815260200190815260200160002060008a73ffffffffffffffffffffffffffffffffffffffff1673ffffffffffffffffffffffffffffffffffffffff168152602001908152602001600020600082825461570c919061a56d565b92505081905550615732565b866013600082825461572a919061a56d565b925050819055505b8873ffffffffffffffffffffffffffffffffffffffff163373ffffffffffffffffffffffffffffffffffffffff167faf11b1af7805b69d336f156459fa0d2b2d9d8667f59d8e09daf371b8a6803c108a8a878b8b884260405161579b979695949392919061ac46565b60405180910390a3505050506157af6182f3565b5050505050565b6157be6181ea565b6157c6618230565b826000811180156157d85750600a5481105b615817576040517f08c379a000000000000000000000000000000000000000000000000000000000815260040161580e9061a5ed565b60405180910390fd5b6007600082815260200190815260200160002060000160149054906101000a900460ff1661587a576040517f08c379a00000000000000000000000000000000000000000000000000000000081526004016158719061a7f1565b60405180910390fd5b600073ffffffffffffffffffffffffffffffffffffffff168373ffffffffffffffffffffffffffffffffffffffff16036158e9576040517f08c379a00000000000000000000000000000000000000000000000000000000081526004016158e09061b1e9565b60405180910390fd5b6103e882101561592e576040517f08c379a00000000000000000000000000000000000000000000000000000000081526004016159259061b2c1565b60405180910390fd5b600e60008473ffffffffffffffffffffffffffffffffffffffff1673ffffffffffffffffffffffffffffffffffffffff16815260200190815260200160002060009054906101000a900460ff16806159e357506007600085815260200190815260200160002060040160008473ffffffffffffffffffffffffffffffffffffffff1673ffffffffffffffffffffffffffffffffffffffff16815260200190815260200160002060009054906101000a900460ff165b615a22576040517f08c379a0000000000000000000000000000000000000000000000000000000008152600401615a199061b255565b60405180910390fd5b60006007600086815260200190815260200160002060000160009054906101000a900473ffffffffffffffffffffffffffffffffffffffff169050615a8a3330858773ffffffffffffffffffffffffffffffffffffffff16618271909392919063ffffffff16565b60006127106101f485615a9d919061ab05565b615aa7919061ab76565b905060008185615ab7919061a655565b9050600060036000600760008b815260200190815260200160002060030160009054906101000a900460ff166003811115615af557615af4619814565b5b6003811115615b0757615b06619814565b5b815260200190815260200160002054905060006127108284615b29919061ab05565b615b33919061ab76565b905060008184615b43919061a655565b90506000600560009054906101000a900460ff168015615bb25750600073ffffffffffffffffffffffffffffffffffffffff16600560019054906101000a900473ffffffffffffffffffffffffffffffffffffffff1673ffffffffffffffffffffffffffffffffffffffff1614155b15615c2b57615be28a877f0000000000000000000000000000000000000000000000000000000000000000618b68565b8015615c155750615c148a837f0000000000000000000000000000000000000000000000000000000000000000618b68565b5b8015615c285750615c278a8489618b68565b5b90505b80615e2a5785601060007f000000000000000000000000000000000000000000000000000000000000000073ffffffffffffffffffffffffffffffffffffffff1673ffffffffffffffffffffffffffffffffffffffff16815260200190815260200160002060008c73ffffffffffffffffffffffffffffffffffffffff1673ffffffffffffffffffffffffffffffffffffffff1681526020019081526020016000206000828254615cdc919061a56d565b9250508190555081601060007f000000000000000000000000000000000000000000000000000000000000000073ffffffffffffffffffffffffffffffffffffffff1673ffffffffffffffffffffffffffffffffffffffff16815260200190815260200160002060008c73ffffffffffffffffffffffffffffffffffffffff1673ffffffffffffffffffffffffffffffffffffffff1681526020019081526020016000206000828254615d8f919061a56d565b9250508190555082601060008973ffffffffffffffffffffffffffffffffffffffff1673ffffffffffffffffffffffffffffffffffffffff16815260200190815260200160002060008c73ffffffffffffffffffffffffffffffffffffffff1673ffffffffffffffffffffffffffffffffffffffff1681526020019081526020016000206000828254615e22919061a56d565b925050819055505b88600760008d81526020019081526020016000206001016000828254615e50919061a56d565b92505081905550600760008c81526020019081526020016000206002016000815480929190615e7e9061a60d565b919050555060126000815480929190615e969061a60d565b9190505550601460003373ffffffffffffffffffffffffffffffffffffffff1673ffffffffffffffffffffffffffffffffffffffff1681526020019081526020016000206000815480929190615eeb9061a60d565b91905055508015615f10578860136000828254615f08919061a56d565b925050819055505b8973ffffffffffffffffffffffffffffffffffffffff168b3373ffffffffffffffffffffffffffffffffffffffff167f410afedaeb9f0af3ce32a27e5bde5901396e730489fe03cadeeafbb0a0345f988c8a87898842604051615f789695949392919061b2e1565b60405180910390a45050505050505050615f906182f3565b505050565b600060018054906101000a900473ffffffffffffffffffffffffffffffffffffffff16905090565b600082118015615fce575060215482105b61600d576040517f08c379a00000000000000000000000000000000000000000000000000000000081526004016160049061ae89565b60405180910390fd5b3373ffffffffffffffffffffffffffffffffffffffff16601e600084815260200190815260200160002060009054906101000a900473ffffffffffffffffffffffffffffffffffffffff1673ffffffffffffffffffffffffffffffffffffffff16146160ae576040517f08c379a00000000000000000000000000000000000000000000000000000000081526004016160a59061b38e565b60405180910390fd5b600073ffffffffffffffffffffffffffffffffffffffff168173ffffffffffffffffffffffffffffffffffffffff160361611d576040517f08c379a00000000000000000000000000000000000000000000000000000000081526004016161149061b3fa565b60405180910390fd5b6000601f60008373ffffffffffffffffffffffffffffffffffffffff1673ffffffffffffffffffffffffffffffffffffffff168152602001908152602001600020541461619f576040517f08c379a00000000000000000000000000000000000000000000000000000000081526004016161969061b466565b60405180910390fd5b6000601e600084815260200190815260200160002060009054906101000a900473ffffffffffffffffffffffffffffffffffffffff169050601f60008273ffffffffffffffffffffffffffffffffffffffff1673ffffffffffffffffffffffffffffffffffffffff1681526020019081526020016000206000905581601e600085815260200190815260200160002060006101000a81548173ffffffffffffffffffffffffffffffffffffffff021916908373ffffffffffffffffffffffffffffffffffffffff16021790555082601f60008473ffffffffffffffffffffffffffffffffffffffff1673ffffffffffffffffffffffffffffffffffffffff168152602001908152602001600020819055508173ffffffffffffffffffffffffffffffffffffffff168173ffffffffffffffffffffffffffffffffffffffff16847f587b8d1a4c4a4a9fefa5c2f976a033ea6b0525861ae3bc112b3f8ba6206ba7c44260405161630e9190619474565b60405180910390a4505050565b6163236182fd565b6000821180156163345750600a5482105b616373576040517f08c379a000000000000000000000000000000000000000000000000000000000815260040161636a9061a5ed565b60405180910390fd5b60006007600084815260200190815260200160002060030160009054906101000a900460ff1690508160038111156163ae576163ad619814565b5b8160038111156163c1576163c0619814565b5b1461644157816007600085815260200190815260200160002060030160006101000a81548160ff021916908360038111156163ff576163fe619814565b5b0217905550827f09008ba0853e609e7a75bea6fc2d06cef00276c9ff99b3fae802e293164408ee8284426040516164389392919061b486565b60405180910390a25b505050565b816007600082815260200190815260200160002060000160009054906101000a900473ffffffffffffffffffffffffffffffffffffffff1673ffffffffffffffffffffffffffffffffffffffff163373ffffffffffffffffffffffffffffffffffffffff1614806164e957506164ba615f95565b73ffffffffffffffffffffffffffffffffffffffff163373ffffffffffffffffffffffffffffffffffffffff16145b616528576040517f08c379a000000000000000000000000000000000000000000000000000000000815260040161651f9061acfc565b60405180910390fd5b600073ffffffffffffffffffffffffffffffffffffffff168273ffffffffffffffffffffffffffffffffffffffff1603616597576040517f08c379a000000000000000000000000000000000000000000000000000000000815260040161658e9061b509565b60405180910390fd5b7f000000000000000000000000000000000000000000000000000000000000000073ffffffffffffffffffffffffffffffffffffffff168273ffffffffffffffffffffffffffffffffffffffff1603616625576040517f08c379a000000000000000000000000000000000000000000000000000000000815260040161661c9061b575565b60405180910390fd5b6000600860008473ffffffffffffffffffffffffffffffffffffffff1673ffffffffffffffffffffffffffffffffffffffff16815260200190815260200160002054146166a7576040517f08c379a000000000000000000000000000000000000000000000000000000000815260040161669e9061b5e1565b60405180910390fd5b60006007600085815260200190815260200160002060000160009054906101000a900473ffffffffffffffffffffffffffffffffffffffff169050600860008273ffffffffffffffffffffffffffffffffffffffff1673ffffffffffffffffffffffffffffffffffffffff16815260200190815260200160002060009055826007600086815260200190815260200160002060000160006101000a81548173ffffffffffffffffffffffffffffffffffffffff021916908373ffffffffffffffffffffffffffffffffffffffff16021790555083600860008573ffffffffffffffffffffffffffffffffffffffff1673ffffffffffffffffffffffffffffffffffffffff168152602001908152602001600020819055508273ffffffffffffffffffffffffffffffffffffffff168173ffffffffffffffffffffffffffffffffffffffff16857fd724124b989ca2e386201a32c8915b75b3a4aaa37cbf16d69d79d886646c43974260405161681c9190619474565b60405180910390a450505050565b600560019054906101000a900473ffffffffffffffffffffffffffffffffffffffff1681565b826007600082815260200190815260200160002060000160009054906101000a900473ffffffffffffffffffffffffffffffffffffffff1673ffffffffffffffffffffffffffffffffffffffff163373ffffffffffffffffffffffffffffffffffffffff1614806168f357506168c4615f95565b73ffffffffffffffffffffffffffffffffffffffff163373ffffffffffffffffffffffffffffffffffffffff16145b616932576040517f08c379a00000000000000000000000000000000000000000000000000000000081526004016169299061acfc565b60405180910390fd5b816007600086815260200190815260200160002060040160008573ffffffffffffffffffffffffffffffffffffffff1673ffffffffffffffffffffffffffffffffffffffff16815260200190815260200160002060006101000a81548160ff02191690831515021790555050505050565b60036020528060005260406000206000915090505481565b6000601f60008373ffffffffffffffffffffffffffffffffffffffff1673ffffffffffffffffffffffffffffffffffffffff168152602001908152602001600020549050919050565b60125481565b600080601754601860007f0000000000000000000000000000000000000000000000000000000000000000815260200190815260200160002054915091509091565b6009818051602081018201805184825260208301602085012081835280955050505050506000915090505481565b7f000000000000000000000000000000000000000000000000000000000000000081565b60156020528060005260406000206000915090505481565b73f5042e6ffac5a625d4e7848e0b01373d8eb9e22281565b600560009054906101000a900460ff1681565b601b6020528060005260406000206000915090505481565b61817381565b601c5481565b601f6020528060005260406000206000915090505481565b6000806000601960008573ffffffffffffffffffffffffffffffffffffffff1673ffffffffffffffffffffffffffffffffffffffff16815260200190815260200160002054601a60008673ffffffffffffffffffffffffffffffffffffffff1673ffffffffffffffffffffffffffffffffffffffff16815260200190815260200160002054601b60008773ffffffffffffffffffffffffffffffffffffffff1673ffffffffffffffffffffffffffffffffffffffff168152602001908152602001600020549250925092509193909250565b600080600083118015616c03575060215483105b616c42576040517f08c379a0000000000000000000000000000000000000000000000000000000008152600401616c399061ae89565b60405180910390fd5b601e600084815260200190815260200160002060009054906101000a900473ffffffffffffffffffffffffffffffffffffffff169150601a60008373ffffffffffffffffffffffffffffffffffffffff1673ffffffffffffffffffffffffffffffffffffffff168152602001908152602001600020549050915091565b6000601060008473ffffffffffffffffffffffffffffffffffffffff1673ffffffffffffffffffffffffffffffffffffffff16815260200190815260200160002060008373ffffffffffffffffffffffffffffffffffffffff1673ffffffffffffffffffffffffffffffffffffffff16815260200190815260200160002054905092915050565b600080600f60008473ffffffffffffffffffffffffffffffffffffffff1673ffffffffffffffffffffffffffffffffffffffff168152602001908152602001600020549150601560008473ffffffffffffffffffffffffffffffffffffffff1673ffffffffffffffffffffffffffffffffffffffff168152602001908152602001600020549050915091565b60076020528060005260406000206000915090508060000160009054906101000a900473ffffffffffffffffffffffffffffffffffffffff16908060000160149054906101000a900460ff16908060010154908060020154908060030160009054906101000a900460ff16905085565b60175481565b7f000000000000000000000000000000000000000000000000000000000000000081565b616e746181ea565b616e7c618230565b6000601560003373ffffffffffffffffffffffffffffffffffffffff1673ffffffffffffffffffffffffffffffffffffffff16815260200190815260200160002054905060008111616f03576040517f08c379a0000000000000000000000000000000000000000000000000000000008152600401616efa9061b64d565b60405180910390fd5b6000601560003373ffffffffffffffffffffffffffffffffffffffff1673ffffffffffffffffffffffffffffffffffffffff16815260200190815260200160002081905550616f873382733c499c542cef5e3811e1192ce70d8cc03d5c335973ffffffffffffffffffffffffffffffffffffffff16618ee79092919063ffffffff16565b3373ffffffffffffffffffffffffffffffffffffffff167f6694a0cb8a19b254bcf47ffa7eb3894be05cb092d54823f77c3523b4c373b1668242604051616fcf92919061a1fc565b60405180910390a250616fe06182f3565b565b616fea6182fd565b616ff2619001565b60004790506000811161703a576040517f08c379a00000000000000000000000000000000000000000000000000000000081526004016170319061b17d565b60405180910390fd5b6000617044615f95565b73ffffffffffffffffffffffffffffffffffffffff16826040516170679061b69e565b60006040518083038185875af1925050503d80600081146170a4576040519150601f19603f3d011682016040523d82523d6000602084013e6170a9565b606091505b50509050806170ed576040517f08c379a00000000000000000000000000000000000000000000000000000000081526004016170e49061b6ff565b60405180910390fd5b5050565b60008073ffffffffffffffffffffffffffffffffffffffff168473ffffffffffffffffffffffffffffffffffffffff1603617161576040517f08c379a00000000000000000000000000000000000000000000000000000000081526004016171589061b509565b60405180910390fd5b6000601f60008673ffffffffffffffffffffffffffffffffffffffff1673ffffffffffffffffffffffffffffffffffffffff16815260200190815260200160002054146171e3576040517f08c379a00000000000000000000000000000000000000000000000000000000081526004016171da9061b5e1565b60405180910390fd5b60008383905011156172535760006020848460405161720392919061ae24565b90815260200160405180910390205414617252576040517f08c379a00000000000000000000000000000000000000000000000000000000081526004016172499061b76b565b60405180910390fd5b5b6000602160008154809291906172689061a60d565b91905055905084601e600083815260200190815260200160002060006101000a81548173ffffffffffffffffffffffffffffffffffffffff021916908373ffffffffffffffffffffffffffffffffffffffff16021790555080601f60008773ffffffffffffffffffffffffffffffffffffffff1673ffffffffffffffffffffffffffffffffffffffff16815260200190815260200160002081905550600084849050111561733657806020858560405161732392919061ae24565b9081526020016040518091039020819055505b602260008154809291906173499061a60d565b91905055508473ffffffffffffffffffffffffffffffffffffffff16817f66b7819a3ec972e9aa3637fad1f894ccb6ee5db81053440f50180cfa9d5e24668686426040516173999392919061b78b565b60405180910390a3809150509392505050565b60225481565b6173ba6181ea565b7f000000000000000000000000000000000000000000000000000000000000000073ffffffffffffffffffffffffffffffffffffffff163373ffffffffffffffffffffffffffffffffffffffff16148061745f57507f000000000000000000000000000000000000000000000000000000000000000073ffffffffffffffffffffffffffffffffffffffff163373ffffffffffffffffffffffffffffffffffffffff16145b806174a957506000600860003373ffffffffffffffffffffffffffffffffffffffff1673ffffffffffffffffffffffffffffffffffffffff16815260200190815260200160002054115b6174e8576040517f08c379a00000000000000000000000000000000000000000000000000000000081526004016174df9061acfc565b60405180910390fd5b6000600f60003373ffffffffffffffffffffffffffffffffffffffff1673ffffffffffffffffffffffffffffffffffffffff1681526020019081526020016000205490506000811161756f576040517f08c379a00000000000000000000000000000000000000000000000000000000081526004016175669061b17d565b60405180910390fd5b6000600f60003373ffffffffffffffffffffffffffffffffffffffff1673ffffffffffffffffffffffffffffffffffffffff1681526020019081526020016000208190555060003373ffffffffffffffffffffffffffffffffffffffff16826040516175da9061b69e565b60006040518083038185875af1925050503d8060008114617617576040519150601f19603f3d011682016040523d82523d6000602084013e61761c565b606091505b5050905080617660576040517f08c379a00000000000000000000000000000000000000000000000000000000081526004016176579061b809565b60405180910390fd5b505061766a6182f3565b565b606080606060008085118015617683575060648511155b6176c2576040517f08c379a00000000000000000000000000000000000000000000000000000000081526004016176b99061b875565b60405180910390fd5b600c80549050905060008114806176d95750808610155b156177c757600067ffffffffffffffff8111156176f9576176f8619bf7565b5b6040519080825280602002602001820160405280156177275781602001602082028036833780820191505090505b50600067ffffffffffffffff81111561774357617742619bf7565b5b6040519080825280602002602001820160405280156177715781602001602082028036833780820191505090505b50600067ffffffffffffffff81111561778d5761778c619bf7565b5b6040519080825280602002602001820160405280156177bb5781602001602082028036833780820191505090505b509350935093506179f6565b600086826177d5919061a655565b905060008682106177e657866177e8565b815b90508067ffffffffffffffff81111561780457617803619bf7565b5b6040519080825280602002602001820160405280156178325781602001602082028036833780820191505090505b5095508067ffffffffffffffff81111561784f5761784e619bf7565b5b60405190808252806020026020018201604052801561787d5781602001602082028036833780820191505090505b5094508067ffffffffffffffff81111561789a57617899619bf7565b5b6040519080825280602002602001820160405280156178c85781602001602082028036833780820191505090505b50935060005b818110156179f2576000600c828b6178e6919061a56d565b815481106178f7576178f661a6b2565b5b90600052602060002001549050808883815181106179185761791761a6b2565b5b6020026020010181815250506007600082815260200190815260200160002060000160009054906101000a900473ffffffffffffffffffffffffffffffffffffffff1687838151811061796e5761796d61a6b2565b5b602002602001019073ffffffffffffffffffffffffffffffffffffffff16908173ffffffffffffffffffffffffffffffffffffffff168152505060076000828152602001908152602001600020600101548683815181106179d2576179d161a6b2565b5b6020026020010181815250505080806179ea9061a60d565b9150506178ce565b5050505b92959194509250565b61271081565b6000600260009054906101000a900473ffffffffffffffffffffffffffffffffffffffff16905090565b617a376181ea565b617a3f618230565b80600081118015617a515750600a5481105b617a90576040517f08c379a0000000000000000000000000000000000000000000000000000000008152600401617a879061a5ed565b60405180910390fd5b6007600082815260200190815260200160002060000160149054906101000a900460ff16617af3576040517f08c379a0000000000000000000000000000000000000000000000000000000008152600401617aea9061a7f1565b60405180910390fd5b6103e8341015617b38576040517f08c379a0000000000000000000000000000000000000000000000000000000008152600401617b2f9061b2c1565b60405180910390fd5b60006007600084815260200190815260200160002060000160009054906101000a900473ffffffffffffffffffffffffffffffffffffffff16905060006127106101f434617b86919061ab05565b617b90919061ab76565b905060008134617ba0919061a655565b90506000600360006007600089815260200190815260200160002060030160009054906101000a900460ff166003811115617bde57617bdd619814565b5b6003811115617bf057617bef619814565b5b815260200190815260200160002054905060006127108284617c12919061ab05565b617c1c919061ab76565b905060008184617c2c919061a655565b90506000600560009054906101000a900460ff168015617c9b5750600073ffffffffffffffffffffffffffffffffffffffff16600560019054906101000a900473ffffffffffffffffffffffffffffffffffffffff1673ffffffffffffffffffffffffffffffffffffffff1614155b15617d1157617cca867f0000000000000000000000000000000000000000000000000000000000000000618384565b8015617cfc5750617cfb827f0000000000000000000000000000000000000000000000000000000000000000618384565b5b8015617d0e5750617d0d8388618384565b5b90505b80617e595785600f60007f000000000000000000000000000000000000000000000000000000000000000073ffffffffffffffffffffffffffffffffffffffff1673ffffffffffffffffffffffffffffffffffffffff1681526020019081526020016000206000828254617d85919061a56d565b9250508190555081600f60007f000000000000000000000000000000000000000000000000000000000000000073ffffffffffffffffffffffffffffffffffffffff1673ffffffffffffffffffffffffffffffffffffffff1681526020019081526020016000206000828254617dfb919061a56d565b9250508190555082600f60008973ffffffffffffffffffffffffffffffffffffffff1673ffffffffffffffffffffffffffffffffffffffff1681526020019081526020016000206000828254617e51919061a56d565b925050819055505b34600760008b81526020019081526020016000206001016000828254617e7f919061a56d565b92505081905550600760008a81526020019081526020016000206002016000815480929190617ead9061a60d565b91905055503460116000828254617ec4919061a56d565b9250508190555060126000815480929190617ede9061a60d565b9190505550601460003373ffffffffffffffffffffffffffffffffffffffff1673ffffffffffffffffffffffffffffffffffffffff1681526020019081526020016000206000815480929190617f339061a60d565b91905055508015617f58573460136000828254617f50919061a56d565b925050819055505b600073ffffffffffffffffffffffffffffffffffffffff16893373ffffffffffffffffffffffffffffffffffffffff167f410afedaeb9f0af3ce32a27e5bde5901396e730489fe03cadeeafbb0a0345f98348a87898842604051617fc19695949392919061b2e1565b60405180910390a45050505050505050617fd96182f3565b50565b60115481565b60215481565b617ff06182fd565b80600260006101000a81548173ffffffffffffffffffffffffffffffffffffffff021916908373ffffffffffffffffffffffffffffffffffffffff1602179055508073ffffffffffffffffffffffffffffffffffffffff16618050615f95565b73ffffffffffffffffffffffffffffffffffffffff167f38d16b8cac22d99fc7c124b9cd0de2d3fa1faef420bfe791d8c362d765e2270060405160405180910390a350565b600a5481565b600080600080851180156180b05750600a5485105b6180ef576040517f08c379a00000000000000000000000000000000000000000000000000000000081526004016180e69061a5ed565b60405180910390fd5b6127106101f485618100919061ab05565b61810a919061ab76565b92506000838561811a919061a655565b9050600060036000600760008a815260200190815260200160002060030160009054906101000a900460ff16600381111561815857618157619814565b5b600381111561816a57618169619814565b5b8152602001908152602001600020549050612710818361818a919061ab05565b618194919061ab76565b935083826181a2919061a655565b925050509250925092565b60196020528060005260406000206000915090505481565b6000806000601c54601d60009054906101000a900460ff166064925092509250909192565b600260005403618226576040517f3ee5aeb500000000000000000000000000000000000000000000000000000000815260040160405180910390fd5b6002600081905550565b6182386148d2565b1561826f576040517fd93c066500000000000000000000000000000000000000000000000000000000815260040160405180910390fd5b565b6182ed848573ffffffffffffffffffffffffffffffffffffffff166323b872dd8686866040516024016182a69392919061b895565b604051602081830303815290604052915060e01b6020820180517bffffffffffffffffffffffffffffffffffffffffffffffffffffffff8381831617835250505050619041565b50505050565b6001600081905550565b618305618f97565b73ffffffffffffffffffffffffffffffffffffffff16618323615f95565b73ffffffffffffffffffffffffffffffffffffffff161461838257618346618f97565b6040517f118cdaa70000000000000000000000000000000000000000000000000000000081526004016183799190619b26565b60405180910390fd5b565b6000600560009054906101000a900460ff1615806183f05750600073ffffffffffffffffffffffffffffffffffffffff16600560019054906101000a900473ffffffffffffffffffffffffffffffffffffffff1673ffffffffffffffffffffffffffffffffffffffff16145b156183fe5760009050618652565b60006184086190e3565b905073f5042e6ffac5a625d4e7848e0b01373d8eb9e22273ffffffffffffffffffffffffffffffffffffffff166344c028fe85618173600560019054906101000a900473ffffffffffffffffffffffffffffffffffffffff1688888760405160240161847592919061b8db565b6040516020818303038152906040527fcd18f0bd000000000000000000000000000000000000000000000000000000007bffffffffffffffffffffffffffffffffffffffffffffffffffffffff19166020820180517bffffffffffffffffffffffffffffffffffffffffffffffffffffffff83818316178352505050506040518663ffffffff1660e01b8152600401618511949392919061b983565b6000604051808303818588803b15801561852a57600080fd5b505af19350505050801561853c575060015b6185e5573d806000811461856c576040519150601f19603f3d011682016040523d82523d6000602084013e618571565b606091505b50600073ffffffffffffffffffffffffffffffffffffffff168473ffffffffffffffffffffffffffffffffffffffff167f810138935087cd01a0f779bb09731b8983197ec5525fba5930153152102cb83087846040516185d292919061ba13565b60405180910390a3600092505050618652565b80600073ffffffffffffffffffffffffffffffffffffffff168473ffffffffffffffffffffffffffffffffffffffff167ff29fd77720852d18ddbb832831b2035a198271cad48b8ec9a15865b4946b4690876040516186449190619474565b60405180910390a460019150505b92915050565b60008073ffffffffffffffffffffffffffffffffffffffff168473ffffffffffffffffffffffffffffffffffffffff16036186c8576040517f08c379a00000000000000000000000000000000000000000000000000000000081526004016186bf9061ba8f565b60405180910390fd5b7f000000000000000000000000000000000000000000000000000000000000000073ffffffffffffffffffffffffffffffffffffffff168473ffffffffffffffffffffffffffffffffffffffff1603618756576040517f08c379a000000000000000000000000000000000000000000000000000000000815260040161874d9061b575565b60405180910390fd5b7f000000000000000000000000000000000000000000000000000000000000000073ffffffffffffffffffffffffffffffffffffffff168473ffffffffffffffffffffffffffffffffffffffff16036187e4576040517f08c379a00000000000000000000000000000000000000000000000000000000081526004016187db9061bafb565b60405180910390fd5b6000600860008673ffffffffffffffffffffffffffffffffffffffff1673ffffffffffffffffffffffffffffffffffffffff1681526020019081526020016000205414618866576040517f08c379a000000000000000000000000000000000000000000000000000000000815260040161885d9061b5e1565b60405180910390fd5b6000825111156188d2576000600983604051618882919061bb4c565b908152602001604051809103902054146188d1576040517f08c379a00000000000000000000000000000000000000000000000000000000081526004016188c89061b76b565b60405180910390fd5b5b600a60008154809291906188e59061a60d565b919050559050836007600083815260200190815260200160002060000160006101000a81548173ffffffffffffffffffffffffffffffffffffffff021916908373ffffffffffffffffffffffffffffffffffffffff16021790555060016007600083815260200190815260200160002060000160146101000a81548160ff021916908315150217905550826007600083815260200190815260200160002060030160006101000a81548160ff021916908360038111156189a8576189a7619814565b5b021790555080600860008673ffffffffffffffffffffffffffffffffffffffff1673ffffffffffffffffffffffffffffffffffffffff16815260200190815260200160002081905550600082511115618a1f5780600983604051618a0c919061bb4c565b9081526020016040518091039020819055505b600b6000815480929190618a329061a60d565b9190505550600c8190806001815401808255809150506001900390600052602060002001600090919091909150556001600c80549050618a72919061a655565b600d6000838152602001908152602001600020819055508373ffffffffffffffffffffffffffffffffffffffff16817f90ea86c33c9ce72bef7f8f17db2963616fc000739b9079b4c54d06467c8473638442604051618ad292919061bb63565b60405180910390a39392505050565b6000618afd838360405180602001604052806000815250618658565b905092915050565b618b0d619001565b6000600160006101000a81548160ff0219169083151502179055507f5db9ee0a495bf2e6ff9c91a7834c1ba4fdd244a5e8aa4e537bd38aeae4b073aa618b51618f97565b604051618b5e9190619b26565b60405180910390a1565b6000600560009054906101000a900460ff161580618bd45750600073ffffffffffffffffffffffffffffffffffffffff16600560019054906101000a900473ffffffffffffffffffffffffffffffffffffffff1673ffffffffffffffffffffffffffffffffffffffff16145b15618be25760009050618ee0565b6000618bec6190e3565b90508473ffffffffffffffffffffffffffffffffffffffff1663095ea7b373f5042e6ffac5a625d4e7848e0b01373d8eb9e222866040518363ffffffff1660e01b8152600401618c3d92919061a25c565b6020604051808303816000875af1158015618c5c573d6000803e3d6000fd5b505050506040513d601f19601f82011682018060405250810190618c80919061bba8565b5073f5042e6ffac5a625d4e7848e0b01373d8eb9e22273ffffffffffffffffffffffffffffffffffffffff166344c028fe618173600560019054906101000a900473ffffffffffffffffffffffffffffffffffffffff168789888a733c499c542cef5e3811e1192ce70d8cc03d5c335989604051602401618d0595949392919061bbd5565b6040516020818303038152906040527f3402efd2000000000000000000000000000000000000000000000000000000007bffffffffffffffffffffffffffffffffffffffffffffffffffffffff19166020820180517bffffffffffffffffffffffffffffffffffffffffffffffffffffffff83818316178352505050506040518563ffffffff1660e01b8152600401618da1949392919061b983565b600060405180830381600087803b158015618dbb57600080fd5b505af1925050508015618dcc575060015b618e74573d8060008114618dfc576040519150601f19603f3d011682016040523d82523d6000602084013e618e01565b606091505b508573ffffffffffffffffffffffffffffffffffffffff168473ffffffffffffffffffffffffffffffffffffffff167f810138935087cd01a0f779bb09731b8983197ec5525fba5930153152102cb8308784604051618e6192919061ba13565b60405180910390a3600092505050618ee0565b808573ffffffffffffffffffffffffffffffffffffffff168473ffffffffffffffffffffffffffffffffffffffff167ff29fd77720852d18ddbb832831b2035a198271cad48b8ec9a15865b4946b469087604051618ed29190619474565b60405180910390a460019150505b9392505050565b618f61838473ffffffffffffffffffffffffffffffffffffffff1663a9059cbb8585604051602401618f1a92919061a25c565b604051602081830303815290604052915060e01b6020820180517bffffffffffffffffffffffffffffffffffffffffffffffffffffffff8381831617835250505050619041565b505050565b600260006101000a81549073ffffffffffffffffffffffffffffffffffffffff0219169055618f948161914f565b50565b600033905090565b618fa7618230565b60018060006101000a81548160ff0219169083151502179055507f62e78cea01bee320cd4e420270b5ea74000d11b0c9f74754ebdbfc544b05a258618fea618f97565b604051618ff79190619b26565b60405180910390a1565b6190096148d2565b61903f576040517f8dfc202b00000000000000000000000000000000000000000000000000000000815260040160405180910390fd5b565b600080602060008451602086016000885af180619064576040513d6000823e3d81fd5b3d92506000519150506000821461907f57600181141561909b565b60008473ffffffffffffffffffffffffffffffffffffffff163b145b156190dd57836040517f5274afe70000000000000000000000000000000000000000000000000000000081526004016190d49190619b26565b60405180910390fd5b50505050565b6000307f000000000000000000000000000000000000000000000000000000000000000042436006600081548092919061911c9061a60d565b9190505560405160200161913495949392919061bc91565b60405160208183030381529060405280519060200120905090565b600060018054906101000a900473ffffffffffffffffffffffffffffffffffffffff169050816001806101000a81548173ffffffffffffffffffffffffffffffffffffffff021916908373ffffffffffffffffffffffffffffffffffffffff1602179055508173ffffffffffffffffffffffffffffffffffffffff168173ffffffffffffffffffffffffffffffffffffffff167f8be0079c531659141344cd1fd0a4f28419497f9722a3daafe3b4186f6b6457e060405160405180910390a35050565b6000604051905090565b600080fd5b600080fd5b600073ffffffffffffffffffffffffffffffffffffffff82169050919050565b600061925182619226565b9050919050565b61926181619246565b811461926c57600080fd5b50565b60008135905061927e81619258565b92915050565b600063ffffffff82169050919050565b61929d81619284565b81146192a857600080fd5b50565b6000813590506192ba81619294565b92915050565b6000819050919050565b6192d3816192c0565b81146192de57600080fd5b50565b6000813590506192f0816192ca565b92915050565b6000819050919050565b619309816192f6565b811461931457600080fd5b50565b60008135905061932681619300565b92915050565b600080600080608085870312156193465761934561921c565b5b60006193548782880161926f565b9450506020619365878288016192ab565b9350506040619376878288016192e1565b925050606061938787828801619317565b91505092959194509250565b6000602082840312156193a9576193a861921c565b5b60006193b78482850161926f565b91505092915050565b60008115159050919050565b6193d5816193c0565b81146193e057600080fd5b50565b6000813590506193f2816193cc565b92915050565b6000806040838503121561940f5761940e61921c565b5b600061941d85828601619317565b925050602061942e858286016193e3565b9150509250929050565b60006020828403121561944e5761944d61921c565b5b600061945c84828501619317565b91505092915050565b61946e816192f6565b82525050565b60006020820190506194896000830184619465565b92915050565b619498816193c0565b82525050565b600060a0820190506194b36000830188619465565b6194c06020830187619465565b6194cd6040830186619465565b6194da6060830185619465565b6194e7608083018461948f565b9695505050505050565b600080fd5b600080fd5b600080fd5b60008083601f840112619516576195156194f1565b5b8235905067ffffffffffffffff811115619533576195326194f6565b5b60208301915083602082028301111561954f5761954e6194fb565b5b9250929050565b60008083601f84011261956c5761956b6194f1565b5b8235905067ffffffffffffffff811115619589576195886194f6565b5b6020830191508360208202830111156195a5576195a46194fb565b5b9250929050565b60008083601f8401126195c2576195c16194f1565b5b8235905067ffffffffffffffff8111156195df576195de6194f6565b5b6020830191508360208202830111156195fb576195fa6194fb565b5b9250929050565b6000806000806000806060878903121561961f5761961e61921c565b5b600087013567ffffffffffffffff81111561963d5761963c619221565b5b61964989828a01619500565b9650965050602087013567ffffffffffffffff81111561966c5761966b619221565b5b61967889828a01619556565b9450945050604087013567ffffffffffffffff81111561969b5761969a619221565b5b6196a789828a016195ac565b92509250509295509295509295565b60008083601f8401126196cc576196cb6194f1565b5b8235905067ffffffffffffffff8111156196e9576196e86194f6565b5b602083019150836001820283011115619705576197046194fb565b5b9250929050565b6000806000604084860312156197255761972461921c565b5b60006197338682870161926f565b935050602084013567ffffffffffffffff81111561975457619753619221565b5b619760868287016196b6565b92509250509250925092565b6004811061977957600080fd5b50565b60008135905061978b8161976c565b92915050565b600080600080606085870312156197ab576197aa61921c565b5b60006197b98782880161926f565b94505060206197ca8782880161977c565b935050604085013567ffffffffffffffff8111156197eb576197ea619221565b5b6197f7878288016196b6565b925092505092959194509250565b61980e81619246565b82525050565b7f4e487b7100000000000000000000000000000000000000000000000000000000600052602160045260246000fd5b6004811061985457619853619814565b5b50565b600081905061986582619843565b919050565b600061987582619857565b9050919050565b6198858161986a565b82525050565b600060c0820190506198a06000830189619805565b6198ad602083018861948f565b6198ba6040830187619465565b6198c76060830186619465565b6198d4608083018561987c565b6198e160a0830184619465565b979650505050505050565b6000602082019050619901600083018461948f565b92915050565b6000806020838503121561991e5761991d61921c565b5b600083013567ffffffffffffffff81111561993c5761993b619221565b5b619948858286016196b6565b92509250509250929050565b60008083601f84011261996a576199696194f1565b5b8235905067ffffffffffffffff811115619987576199866194f6565b5b6020830191508360208202830111156199a3576199a26194fb565b5b9250929050565b600080600080604085870312156199c4576199c361921c565b5b600085013567ffffffffffffffff8111156199e2576199e1619221565b5b6199ee87828801619500565b9450945050602085013567ffffffffffffffff811115619a1157619a10619221565b5b619a1d87828801619954565b925092505092959194509250565b600081519050919050565b600082825260208201905092915050565b6000819050602082019050919050565b619a60816192f6565b82525050565b6000619a728383619a57565b60208301905092915050565b6000602082019050919050565b6000619a9682619a2b565b619aa08185619a36565b9350619aab83619a47565b8060005b83811015619adc578151619ac38882619a66565b9750619ace83619a7e565b925050600181019050619aaf565b5085935050505092915050565b60006020820190508181036000830152619b038184619a8b565b905092915050565b6000602082019050619b20600083018461987c565b92915050565b6000602082019050619b3b6000830184619805565b92915050565b60008060408385031215619b5857619b5761921c565b5b6000619b6685828601619317565b9250506020619b778582860161926f565b9150509250929050565b600080600060408486031215619b9a57619b9961921c565b5b6000619ba886828701619317565b935050602084013567ffffffffffffffff811115619bc957619bc8619221565b5b619bd5868287016196b6565b92509250509250925092565b600080fd5b6000601f19601f8301169050919050565b7f4e487b7100000000000000000000000000000000000000000000000000000000600052604160045260246000fd5b619c2f82619be6565b810181811067ffffffffffffffff82111715619c4e57619c4d619bf7565b5b80604052505050565b6000619c61619212565b9050619c6d8282619c26565b919050565b600067ffffffffffffffff821115619c8d57619c8c619bf7565b5b619c9682619be6565b9050602081019050919050565b82818337600083830152505050565b6000619cc5619cc084619c72565b619c57565b905082815260208101848484011115619ce157619ce0619be1565b5b619cec848285619ca3565b509392505050565b600082601f830112619d0957619d086194f1565b5b8135619d19848260208601619cb2565b91505092915050565b600060208284031215619d3857619d3761921c565b5b600082013567ffffffffffffffff811115619d5657619d55619221565b5b619d6284828501619cf4565b91505092915050565b600060208284031215619d8157619d8061921c565b5b6000619d8f848285016193e3565b91505092915050565b60008060008060008060608789031215619db557619db461921c565b5b600087013567ffffffffffffffff811115619dd357619dd2619221565b5b619ddf89828a01619556565b9650965050602087013567ffffffffffffffff811115619e0257619e01619221565b5b619e0e89828a01619556565b9450945050604087013567ffffffffffffffff811115619e3157619e30619221565b5b619e3d89828a016195ac565b92509250509295509295509295565b60008060208385031215619e6357619e6261921c565b5b600083013567ffffffffffffffff811115619e8157619e80619221565b5b619e8d85828601619556565b92509250509250929050565b600081519050919050565b600082825260208201905092915050565b6000819050602082019050919050565b619ece81619246565b82525050565b6000619ee08383619ec5565b60208301905092915050565b6000602082019050919050565b6000619f0482619e99565b619f0e8185619ea4565b9350619f1983619eb5565b8060005b83811015619f4a578151619f318882619ed4565b9750619f3c83619eec565b925050600181019050619f1d565b5085935050505092915050565b600081519050919050565b600082825260208201905092915050565b6000819050602082019050919050565b619f8c816193c0565b82525050565b6000619f9e8383619f83565b60208301905092915050565b6000602082019050919050565b6000619fc282619f57565b619fcc8185619f62565b9350619fd783619f73565b8060005b8381101561a008578151619fef8882619f92565b9750619ffa83619faa565b925050600181019050619fdb565b5085935050505092915050565b6000606082019050818103600083015261a02f8186619a8b565b9050818103602083015261a0438185619ef9565b9050818103604083015261a0578184619fb7565b9050949350505050565b60008060008060006080868803121561a07d5761a07c61921c565b5b600061a08b8882890161926f565b955050602061a09c8882890161926f565b945050604061a0ad88828901619317565b935050606086013567ffffffffffffffff81111561a0ce5761a0cd619221565b5b61a0da888289016196b6565b92509250509295509295909350565b60008060006060848603121561a1025761a10161921c565b5b600061a11086828701619317565b935050602061a1218682870161926f565b925050604061a13286828701619317565b9150509250925092565b6000806040838503121561a1535761a15261921c565b5b600061a16185828601619317565b925050602061a1728582860161977c565b9150509250929050565b60008060006060848603121561a1955761a19461921c565b5b600061a1a386828701619317565b935050602061a1b48682870161926f565b925050604061a1c5868287016193e3565b9150509250925092565b60006020828403121561a1e55761a1e461921c565b5b600061a1f38482850161977c565b91505092915050565b600060408201905061a2116000830185619465565b61a21e6020830184619465565b9392505050565b600060608201905061a23a6000830186619465565b61a2476020830185619465565b61a2546040830184619465565b949350505050565b600060408201905061a2716000830185619805565b61a27e6020830184619465565b9392505050565b6000806040838503121561a29c5761a29b61921c565b5b600061a2aa8582860161926f565b925050602061a2bb8582860161926f565b9150509250929050565b600060a08201905061a2da6000830188619805565b61a2e7602083018761948f565b61a2f46040830186619465565b61a3016060830185619465565b61a30e608083018461987c565b9695505050505050565b6000806040838503121561a32f5761a32e61921c565b5b600061a33d85828601619317565b925050602061a34e85828601619317565b9150509250929050565b6000608082019050818103600083015261a3728187619a8b565b9050818103602083015261a3868186619ef9565b9050818103604083015261a39a8185619a8b565b905061a3a96060830184619465565b95945050505050565b600060608201905061a3c76000830186619465565b61a3d4602083018561948f565b61a3e16040830184619465565b949350505050565b600082825260208201905092915050565b7f556e617574686f72697a65642072656c61796572000000000000000000000000600082015250565b600061a43060148361a3e9565b915061a43b8261a3fa565b602082019050919050565b6000602082019050818103600083015261a45f8161a423565b9050919050565b7f4e6f205553444320616d6f756e74207370656369666965640000000000000000600082015250565b600061a49c60188361a3e9565b915061a4a78261a466565b602082019050919050565b6000602082019050818103600083015261a4cb8161a48f565b9050919050565b7f496e76616c696420726563697069656e74000000000000000000000000000000600082015250565b600061a50860118361a3e9565b915061a5138261a4d2565b602082019050919050565b6000602082019050818103600083015261a5378161a4fb565b9050919050565b7f4e487b7100000000000000000000000000000000000000000000000000000000600052601160045260246000fd5b600061a578826192f6565b915061a583836192f6565b925082820190508082111561a59b5761a59a61a53e565b5b92915050565b7f496e76616c69642063726561746f722049440000000000000000000000000000600082015250565b600061a5d760128361a3e9565b915061a5e28261a5a1565b602082019050919050565b6000602082019050818103600083015261a6068161a5ca565b9050919050565b600061a618826192f6565b91507fffffffffffffffffffffffffffffffffffffffffffffffffffffffffffffffff820361a64a5761a64961a53e565b5b600182019050919050565b600061a660826192f6565b915061a66b836192f6565b925082820390508181111561a6835761a68261a53e565b5b92915050565b600061a694826192f6565b91506000820361a6a75761a6a661a53e565b5b600182039050919050565b7f4e487b7100000000000000000000000000000000000000000000000000000000600052603260045260246000fd5b7f4e487b7100000000000000000000000000000000000000000000000000000000600052603160045260246000fd5b600060408201905061a725600083018561948f565b61a7326020830184619465565b9392505050565b7f4e6f74206120726567697374657265642063726561746f720000000000000000600082015250565b600061a76f60188361a3e9565b915061a77a8261a739565b602082019050919050565b6000602082019050818103600083015261a79e8161a762565b9050919050565b7f43726561746f72206e6f74206163746976650000000000000000000000000000600082015250565b600061a7db60128361a3e9565b915061a7e68261a7a5565b602082019050919050565b6000602082019050818103600083015261a80a8161a7ce565b9050919050565b7f56696577657220726577617264732064697361626c6564000000000000000000600082015250565b600061a84760178361a3e9565b915061a8528261a811565b602082019050919050565b6000602082019050818103600083015261a8768161a83a565b9050919050565b7f4172726179206c656e677468206d69736d617463680000000000000000000000600082015250565b600061a8b360158361a3e9565b915061a8be8261a87d565b602082019050919050565b6000602082019050818103600083015261a8e28161a8a6565b9050919050565b7f546f6f206d616e79207669657765727300000000000000000000000000000000600082015250565b600061a91f60108361a3e9565b915061a92a8261a8e9565b602082019050919050565b6000602082019050818103600083015261a94e8161a912565b9050919050565b7f496e636f72726563742045544820616d6f756e74000000000000000000000000600082015250565b600061a98b60148361a3e9565b915061a9968261a955565b602082019050919050565b6000602082019050818103600083015261a9ba8161a97e565b9050919050565b7f496e76616c696420766965776572206164647265737300000000000000000000600082015250565b600061a9f760168361a3e9565b915061aa028261a9c1565b602082019050919050565b6000602082019050818103600083015261aa268161a9ea565b9050919050565b7f43616e6e6f742072657761726420796f757273656c6600000000000000000000600082015250565b600061aa6360168361a3e9565b915061aa6e8261aa2d565b602082019050919050565b6000602082019050818103600083015261aa928161aa56565b9050919050565b7f52657761726420746f6f20736d616c6c00000000000000000000000000000000600082015250565b600061aacf60108361a3e9565b915061aada8261aa99565b602082019050919050565b6000602082019050818103600083015261aafe8161aac2565b9050919050565b600061ab10826192f6565b915061ab1b836192f6565b925082820261ab29816192f6565b9150828204841483151761ab405761ab3f61a53e565b5b5092915050565b7f4e487b7100000000000000000000000000000000000000000000000000000000600052601260045260246000fd5b600061ab81826192f6565b915061ab8c836192f6565b92508261ab9c5761ab9b61ab47565b5b828204905092915050565b600080fd5b600080fd5b600080fd5b6000808335600160200384360303811261abd35761abd261aba7565b5b80840192508235915067ffffffffffffffff82111561abf55761abf461abac565b5b60208301925060018202360383131561ac115761ac1061abb1565b5b509250929050565b600061ac25838561a3e9565b935061ac32838584619ca3565b61ac3b83619be6565b840190509392505050565b600060c08201905061ac5b600083018a619805565b61ac686020830189619465565b61ac756040830188619465565b818103606083015261ac8881868861ac19565b905061ac97608083018561948f565b61aca460a0830184619465565b98975050505050505050565b7f556e617574686f72697a65640000000000000000000000000000000000000000600082015250565b600061ace6600c8361a3e9565b915061acf18261acb0565b602082019050919050565b6000602082019050818103600083015261ad158161acd9565b9050919050565b7f4e6f204554482062616c616e6365000000000000000000000000000000000000600082015250565b600061ad52600e8361a3e9565b915061ad5d8261ad1c565b602082019050919050565b6000602082019050818103600083015261ad818161ad45565b9050919050565b7f4d616e75616c2072656c6179206661696c656400000000000000000000000000600082015250565b600061adbe60138361a3e9565b915061adc98261ad88565b602082019050919050565b6000602082019050818103600083015261aded8161adb1565b9050919050565b600081905092915050565b600061ae0b838561adf4565b935061ae18838584619ca3565b82840190509392505050565b600061ae3182848661adff565b91508190509392505050565b7f496e76616c696420766965776572204944000000000000000000000000000000600082015250565b600061ae7360118361a3e9565b915061ae7e8261ae3d565b602082019050919050565b6000602082019050818103600083015261aea28161ae66565b9050919050565b7f566965776572206e6f7420666f756e6400000000000000000000000000000000600082015250565b600061aedf60108361a3e9565b915061aeea8261aea9565b602082019050919050565b6000602082019050818103600083015261af0e8161aed2565b9050919050565b7f4e6f20746f6b656e2062616c616e636500000000000000000000000000000000600082015250565b600061af4b60108361a3e9565b915061af568261af15565b602082019050919050565b6000602082019050818103600083015261af7a8161af3e565b9050919050565b7f496e76616c69642072656c617965720000000000000000000000000000000000600082015250565b600061afb7600f8361a3e9565b915061afc28261af81565b602082019050919050565b6000602082019050818103600083015261afe68161afaa565b9050919050565b7f496e76616c696420616d6f756e74000000000000000000000000000000000000600082015250565b600061b023600e8361a3e9565b915061b02e8261afed565b602082019050919050565b6000602082019050818103600083015261b0528161b016565b9050919050565b7f496e73756666696369656e742062616c616e6365000000000000000000000000600082015250565b600061b08f60148361a3e9565b915061b09a8261b059565b602082019050919050565b6000602082019050818103600083015261b0be8161b082565b9050919050565b7f546f6f206d616e792063726561746f7273207265717565737465640000000000600082015250565b600061b0fb601b8361a3e9565b915061b1068261b0c5565b602082019050919050565b6000602082019050818103600083015261b12a8161b0ee565b9050919050565b7f4e6f2062616c616e636500000000000000000000000000000000000000000000600082015250565b600061b167600a8361a3e9565b915061b1728261b131565b602082019050919050565b6000602082019050818103600083015261b1968161b15a565b9050919050565b7f496e76616c696420746f6b656e20616464726573730000000000000000000000600082015250565b600061b1d360158361a3e9565b915061b1de8261b19d565b602082019050919050565b6000602082019050818103600083015261b2028161b1c6565b9050919050565b7f546f6b656e206e6f7420737570706f7274656400000000000000000000000000600082015250565b600061b23f60138361a3e9565b915061b24a8261b209565b602082019050919050565b6000602082019050818103600083015261b26e8161b232565b9050919050565b7f54697020616d6f756e7420746f6f20736d616c6c000000000000000000000000600082015250565b600061b2ab60148361a3e9565b915061b2b68261b275565b602082019050919050565b6000602082019050818103600083015261b2da8161b29e565b9050919050565b600060c08201905061b2f66000830189619465565b61b3036020830188619465565b61b3106040830187619465565b61b31d6060830186619465565b61b32a608083018561948f565b61b33760a0830184619465565b979650505050505050565b7f4e6f7420617574686f72697a6564000000000000000000000000000000000000600082015250565b600061b378600e8361a3e9565b915061b3838261b342565b602082019050919050565b6000602082019050818103600083015261b3a78161b36b565b9050919050565b7f496e76616c6964206e65772077616c6c65740000000000000000000000000000600082015250565b600061b3e460128361a3e9565b915061b3ef8261b3ae565b602082019050919050565b6000602082019050818103600083015261b4138161b3d7565b9050919050565b7f4e65772077616c6c657420616c72656164792072656769737465726564000000600082015250565b600061b450601d8361a3e9565b915061b45b8261b41a565b602082019050919050565b6000602082019050818103600083015261b47f8161b443565b9050919050565b600060608201905061b49b600083018661987c565b61b4a8602083018561987c565b61b4b56040830184619465565b949350505050565b7f496e76616c69642077616c6c6574206164647265737300000000000000000000600082015250565b600061b4f360168361a3e9565b915061b4fe8261b4bd565b602082019050919050565b6000602082019050818103600083015261b5228161b4e6565b9050919050565b7f43726561746f722063616e6e6f7420626520627573696e657373206f776e6572600082015250565b600061b55f60208361a3e9565b915061b56a8261b529565b602082019050919050565b6000602082019050818103600083015261b58e8161b552565b9050919050565b7f57616c6c657420616c7265616479207265676973746572656400000000000000600082015250565b600061b5cb60198361a3e9565b915061b5d68261b595565b602082019050919050565b6000602082019050818103600083015261b5fa8161b5be565b9050919050565b7f4e6f20555344432062616c616e63650000000000000000000000000000000000600082015250565b600061b637600f8361a3e9565b915061b6428261b601565b602082019050919050565b6000602082019050818103600083015261b6668161b62a565b9050919050565b600081905092915050565b50565b600061b68860008361b66d565b915061b6938261b678565b600082019050919050565b600061b6a98261b67b565b9150819050919050565b7f456d657267656e6379207769746864726177616c206661696c65640000000000600082015250565b600061b6e9601b8361a3e9565b915061b6f48261b6b3565b602082019050919050565b6000602082019050818103600083015261b7188161b6dc565b9050919050565b7f546869726477656220494420616c726561647920726567697374657265640000600082015250565b600061b755601e8361a3e9565b915061b7608261b71f565b602082019050919050565b6000602082019050818103600083015261b7848161b748565b9050919050565b6000604082019050818103600083015261b7a681858761ac19565b905061b7b56020830184619465565b949350505050565b7f5472616e73666572206661696c65640000000000000000000000000000000000600082015250565b600061b7f3600f8361a3e9565b915061b7fe8261b7bd565b602082019050919050565b6000602082019050818103600083015261b8228161b7e6565b9050919050565b7f4c696d6974206d757374206265206265747765656e203120616e642031303000600082015250565b600061b85f601f8361a3e9565b915061b86a8261b829565b602082019050919050565b6000602082019050818103600083015261b88e8161b852565b9050919050565b600060608201905061b8aa6000830186619805565b61b8b76020830185619805565b61b8c46040830184619465565b949350505050565b61b8d5816192c0565b82525050565b600060408201905061b8f06000830185619805565b61b8fd602083018461b8cc565b9392505050565b600081519050919050565b600082825260208201905092915050565b60005b8381101561b93e57808201518184015260208101905061b923565b60008484015250505050565b600061b9558261b904565b61b95f818561b90f565b935061b96f81856020860161b920565b61b97881619be6565b840191505092915050565b600060808201905061b9986000830187619465565b61b9a56020830186619805565b61b9b26040830185619465565b818103606083015261b9c4818461b94a565b905095945050505050565b600081519050919050565b600061b9e58261b9cf565b61b9ef818561a3e9565b935061b9ff81856020860161b920565b61ba0881619be6565b840191505092915050565b600060408201905061ba286000830185619465565b818103602083015261ba3a818461b9da565b90509392505050565b7f496e76616c69642063726561746f722077616c6c657400000000000000000000600082015250565b600061ba7960168361a3e9565b915061ba848261ba43565b602082019050919050565b6000602082019050818103600083015261baa88161ba6c565b9050919050565b7f43726561746f722063616e6e6f74206265207472656173757279000000000000600082015250565b600061bae5601a8361a3e9565b915061baf08261baaf565b602082019050919050565b6000602082019050818103600083015261bb148161bad8565b9050919050565b600061bb268261b9cf565b61bb30818561adf4565b935061bb4081856020860161b920565b80840191505092915050565b600061bb58828461bb1b565b915081905092915050565b6000604082019050818103600083015261bb7d818561b9da565b905061bb8c6020830184619465565b9392505050565b60008151905061bba2816193cc565b92915050565b60006020828403121561bbbe5761bbbd61921c565b5b600061bbcc8482850161bb93565b91505092915050565b600060a08201905061bbea6000830188619805565b61bbf76020830187619805565b61bc046040830186619465565b61bc116060830185619805565b61bc1e608083018461b8cc565b9695505050505050565b60008160601b9050919050565b600061bc408261bc28565b9050919050565b600061bc528261bc35565b9050919050565b61bc6a61bc6582619246565b61bc47565b82525050565b6000819050919050565b61bc8b61bc86826192f6565b61bc70565b82525050565b600061bc9d828861bc59565b60148201915061bcad828761bc7a565b60208201915061bcbd828661bc7a565b60208201915061bccd828561bc7a565b60208201915061bcdd828461bc7a565b602082019150819050969550505050505056fea2646970667358221220f2dc88e4c71b8ef19c903294a682796ea226e3ab06e7bb5666813769ee918e2864736f6c63430008140033",
  "linkReferences": {},
  "deployedLinkReferences": {}
}