{
  "_format": "hh-sol-artifact-1",
  "contractName": "StreamingPlatformTipping",
  "sourceName": "contracts/StreamingPlatformTipping.sol",
  "abi": [
    {
      "inputs": [
        {
          "internalType": "address",
          "name": "_businessOwner",
          "type": "address"
        },
        {
          "internalType": "address",
          "name": "_tippingChainTreasury",
          "type": "address"
        },
        {
          "internalType": "address",
          "name": "_owner",
          "type": "address"
        },
        {
          "internalType": "address[]",
          "name": "_supportedTokens",
          "type": "address[]"
        },
        {
          "internalType": "address",
          "name": "_relayReceiver",
          "type": "address"
        },
        {
          "internalType": "address[]",
          "name": "_initialRelayers",
          "type": "address[]"
        }
      ],
      "stateMutability": "nonpayable",
      "type": "constructor"
    },
    {
      "inputs": [],
      "name": "EnforcedPause",
      "type": "error"
    },
    {
      "inputs": [],
      "name": "ExpectedPause",
      "type": "error"
    },
    {
      "inputs": [
        {
          "internalType": "address",
          "name": "owner",
          "type": "address"
        }
      ],
      "name": "OwnableInvalidOwner",
      "type": "error"
    },
    {
      "inputs": [
        {
          "internalType": "address",
          "name": "account",
          "type": "address"
        }
      ],
      "name": "OwnableUnauthorizedAccount",
      "type": "error"
    },
    {
      "inputs": [],
      "name": "ReentrancyGuardReentrantCall",
      "type": "error"
    },
    {
      "inputs": [
        {
          "internalType": "address",
          "name": "token",
          "type": "address"
        }
      ],
      "name": "SafeERC20FailedOperation",
      "type": "error"
    },
    {
      "anonymous": false,
      "inputs": [
        {
          "indexed": true,
          "internalType": "address",
          "name": "admin",
          "type": "address"
        },
        {
          "indexed": false,
          "internalType": "bool",
          "name": "granted",
          "type": "bool"
        }
      ],
      "name": "AdminStatusChanged",
      "type": "event"
    },
    {
      "anonymous": false,
      "inputs": [
        {
          "indexed": true,
          "internalType": "uint256",
          "name": "creatorId",
          "type": "uint256"
        },
        {
          "indexed": true,
          "internalType": "address",
          "name": "wallet",
          "type": "address"
        },
        {
          "indexed": false,
          "internalType": "string",
          "name": "thirdwebId",
          "type": "string"
        },
        {
          "indexed": false,
          "internalType": "uint256",
          "name": "timestamp",
          "type": "uint256"
        }
      ],
      "name": "CreatorAdded",
      "type": "event"
    },
    {
      "anonymous": false,
      "inputs": [
        {
          "indexed": true,
          "internalType": "uint256",
          "name": "creatorId",
          "type": "uint256"
        },
        {
          "indexed": false,
          "internalType": "bool",
          "name": "active",
          "type": "bool"
        },
        {
          "indexed": false,
          "internalType": "uint256",
          "name": "timestamp",
          "type": "uint256"
        }
      ],
      "name": "CreatorStatusUpdated",
      "type": "event"
    },
    {
      "anonymous": false,
      "inputs": [
        {
          "indexed": true,
          "internalType": "uint256",
          "name": "creatorId",
          "type": "uint256"
        },
        {
          "indexed": false,
          "internalType": "enum StreamingPlatformTipping.MembershipTier",
          "name": "oldTier",
          "type": "uint8"
        },
        {
          "indexed": false,
          "internalType": "enum StreamingPlatformTipping.MembershipTier",
          "name": "newTier",
          "type": "uint8"
        },
        {
          "indexed": false,
          "internalType": "uint256",
          "name": "timestamp",
          "type": "uint256"
        }
      ],
      "name": "CreatorTierUpdated",
      "type": "event"
    },
    {
      "anonymous": false,
      "inputs": [
        {
          "indexed": true,
          "internalType": "uint256",
          "name": "creatorId",
          "type": "uint256"
        },
        {
          "indexed": true,
          "internalType": "address",
          "name": "oldWallet",
          "type": "address"
        },
        {
          "indexed": true,
          "internalType": "address",
          "name": "newWallet",
          "type": "address"
        },
        {
          "indexed": false,
          "internalType": "uint256",
          "name": "timestamp",
          "type": "uint256"
        }
      ],
      "name": "CreatorWalletUpdated",
      "type": "event"
    },
    {
      "anonymous": false,
      "inputs": [
        {
          "indexed": true,
          "internalType": "address",
          "name": "previousOwner",
          "type": "address"
        },
        {
          "indexed": true,
          "internalType": "address",
          "name": "newOwner",
          "type": "address"
        }
      ],
      "name": "OwnershipTransferStarted",
      "type": "event"
    },
    {
      "anonymous": false,
      "inputs": [
        {
          "indexed": true,
          "internalType": "address",
          "name": "previousOwner",
          "type": "address"
        },
        {
          "indexed": true,
          "internalType": "address",
          "name": "newOwner",
          "type": "address"
        }
      ],
      "name": "OwnershipTransferred",
      "type": "event"
    },
    {
      "anonymous": false,
      "inputs": [
        {
          "indexed": false,
          "internalType": "address",
          "name": "account",
          "type": "address"
        }
      ],
      "name": "Paused",
      "type": "event"
    },
    {
      "anonymous": false,
      "inputs": [
        {
          "indexed": true,
          "internalType": "bytes32",
          "name": "relayId",
          "type": "bytes32"
        },
        {
          "indexed": true,
          "internalType": "address",
          "name": "recipient",
          "type": "address"
        },
        {
          "indexed": false,
          "internalType": "uint256",
          "name": "usdcAmount",
          "type": "uint256"
        }
      ],
      "name": "RelayConfirmed",
      "type": "event"
    },
    {
      "anonymous": false,
      "inputs": [
        {
          "indexed": true,
          "internalType": "address",
          "name": "recipient",
          "type": "address"
        },
        {
          "indexed": true,
          "internalType": "address",
          "name": "token",
          "type": "address"
        },
        {
          "indexed": false,
          "internalType": "uint256",
          "name": "amount",
          "type": "uint256"
        },
        {
          "indexed": false,
          "internalType": "string",
          "name": "reason",
          "type": "string"
        }
      ],
      "name": "RelayFailed",
      "type": "event"
    },
    {
      "anonymous": false,
      "inputs": [
        {
          "indexed": true,
          "internalType": "address",
          "name": "recipient",
          "type": "address"
        },
        {
          "indexed": true,
          "internalType": "address",
          "name": "token",
          "type": "address"
        },
        {
          "indexed": false,
          "internalType": "uint256",
          "name": "amount",
          "type": "uint256"
        },
        {
          "indexed": true,
          "internalType": "bytes32",
          "name": "relayId",
          "type": "bytes32"
        }
      ],
      "name": "RelayInitiated",
      "type": "event"
    },
    {
      "anonymous": false,
      "inputs": [
        {
          "indexed": true,
          "internalType": "bytes32",
          "name": "relayId",
          "type": "bytes32"
        },
        {
          "indexed": true,
          "internalType": "address",
          "name": "recipient",
          "type": "address"
        },
        {
          "indexed": false,
          "internalType": "uint256",
          "name": "amount",
          "type": "uint256"
        }
      ],
      "name": "RelayRecovered",
      "type": "event"
    },
    {
      "anonymous": false,
      "inputs": [
        {
          "indexed": true,
          "internalType": "address",
          "name": "relayer",
          "type": "address"
        },
        {
          "indexed": false,
          "internalType": "bool",
          "name": "authorized",
          "type": "bool"
        }
      ],
      "name": "RelayerAuthorized",
      "type": "event"
    },
    {
      "anonymous": false,
      "inputs": [
        {
          "indexed": true,
          "internalType": "address",
          "name": "tipper",
          "type": "address"
        },
        {
          "indexed": true,
          "internalType": "uint256",
          "name": "creatorId",
          "type": "uint256"
        },
        {
          "indexed": true,
          "internalType": "address",
          "name": "token",
          "type": "address"
        },
        {
          "indexed": false,
          "internalType": "uint256",
          "name": "totalAmount",
          "type": "uint256"
        },
        {
          "indexed": false,
          "internalType": "uint256",
          "name": "platformFee",
          "type": "uint256"
        },
        {
          "indexed": false,
          "internalType": "uint256",
          "name": "businessAmount",
          "type": "uint256"
        },
        {
          "indexed": false,
          "internalType": "uint256",
          "name": "creatorAmount",
          "type": "uint256"
        },
        {
          "indexed": false,
          "internalType": "bool",
          "name": "relayedToApeChain",
          "type": "bool"
        },
        {
          "indexed": false,
          "internalType": "uint256",
          "name": "timestamp",
          "type": "uint256"
        }
      ],
      "name": "TipReceived",
      "type": "event"
    },
    {
      "anonymous": false,
      "inputs": [
        {
          "indexed": true,
          "internalType": "address",
          "name": "recipient",
          "type": "address"
        },
        {
          "indexed": false,
          "internalType": "uint256",
          "name": "amount",
          "type": "uint256"
        },
        {
          "indexed": true,
          "internalType": "uint32",
          "name": "sourceChainId",
          "type": "uint32"
        },
        {
          "indexed": true,
          "internalType": "bytes32",
          "name": "relayId",
          "type": "bytes32"
        },
        {
          "indexed": false,
          "internalType": "uint256",
          "name": "timestamp",
          "type": "uint256"
        }
      ],
      "name": "TipReceivedFromRelay",
      "type": "event"
    },
    {
      "anonymous": false,
      "inputs": [
        {
          "indexed": false,
          "internalType": "address",
          "name": "account",
          "type": "address"
        }
      ],
      "name": "Unpaused",
      "type": "event"
    },
    {
      "anonymous": false,
      "inputs": [
        {
          "indexed": true,
          "internalType": "address",
          "name": "recipient",
          "type": "address"
        },
        {
          "indexed": false,
          "internalType": "uint256",
          "name": "amount",
          "type": "uint256"
        },
        {
          "indexed": false,
          "internalType": "uint256",
          "name": "timestamp",
          "type": "uint256"
        }
      ],
      "name": "UsdcWithdrawn",
      "type": "event"
    },
    {
      "anonymous": false,
      "inputs": [
        {
          "indexed": true,
          "internalType": "uint256",
          "name": "viewerId",
          "type": "uint256"
        },
        {
          "indexed": true,
          "internalType": "address",
          "name": "wallet",
          "type": "address"
        },
        {
          "indexed": false,
          "internalType": "string",
          "name": "thirdwebId",
          "type": "string"
        },
        {
          "indexed": false,
          "internalType": "uint256",
          "name": "timestamp",
          "type": "uint256"
        }
      ],
      "name": "ViewerRegistered",
      "type": "event"
    },
    {
      "anonymous": false,
      "inputs": [
        {
          "indexed": true,
          "internalType": "address",
          "name": "creator",
          "type": "address"
        },
        {
          "indexed": true,
          "internalType": "address",
          "name": "viewer",
          "type": "address"
        },
        {
          "indexed": false,
          "internalType": "address",
          "name": "token",
          "type": "address"
        },
        {
          "indexed": false,
          "internalType": "uint256",
          "name": "amount",
          "type": "uint256"
        },
        {
          "indexed": false,
          "internalType": "uint256",
          "name": "platformFee",
          "type": "uint256"
        },
        {
          "indexed": false,
          "internalType": "string",
          "name": "reason",
          "type": "string"
        },
        {
          "indexed": false,
          "internalType": "bool",
          "name": "relayedToApeChain",
          "type": "bool"
        },
        {
          "indexed": false,
          "internalType": "uint256",
          "name": "timestamp",
          "type": "uint256"
        }
      ],
      "name": "ViewerRewarded",
      "type": "event"
    },
    {
      "anonymous": false,
      "inputs": [
        {
          "indexed": false,
          "internalType": "bool",
          "name": "enabled",
          "type": "bool"
        },
        {
          "indexed": false,
          "internalType": "uint256",
          "name": "timestamp",
          "type": "uint256"
        }
      ],
      "name": "ViewerRewardsStatusChanged",
      "type": "event"
    },
    {
      "anonymous": false,
      "inputs": [
        {
          "indexed": true,
          "internalType": "uint256",
          "name": "viewerId",
          "type": "uint256"
        },
        {
          "indexed": true,
          "internalType": "address",
          "name": "oldWallet",
          "type": "address"
        },
        {
          "indexed": true,
          "internalType": "address",
          "name": "newWallet",
          "type": "address"
        },
        {
          "indexed": false,
          "internalType": "uint256",
          "name": "timestamp",
          "type": "uint256"
        }
      ],
      "name": "ViewerWalletUpdated",
      "type": "event"
    },
    {
      "inputs": [],
      "name": "APECHAIN_ID",
      "outputs": [
        {
          "internalType": "uint256",
          "name": "",
          "type": "uint256"
        }
      ],
      "stateMutability": "view",
      "type": "function"
    },
    {
      "inputs": [],
      "name": "APECHAIN_USDC",
      "outputs": [
        {
          "internalType": "address",
          "name": "",
          "type": "address"
        }
      ],
      "stateMutability": "view",
      "type": "function"
    },
    {
      "inputs": [],
      "name": "BASIS_POINTS",
      "outputs": [
        {
          "internalType": "uint256",
          "name": "",
          "type": "uint256"
        }
      ],
      "stateMutability": "view",
      "type": "function"
    },
    {
      "inputs": [],
      "name": "MIN_TIP_AMOUNT",
      "outputs": [
        {
          "internalType": "uint256",
          "name": "",
          "type": "uint256"
        }
      ],
      "stateMutability": "view",
      "type": "function"
    },
    {
      "inputs": [],
      "name": "MIN_VIEWER_REWARD",
      "outputs": [
        {
          "internalType": "uint256",
          "name": "",
          "type": "uint256"
        }
      ],
      "stateMutability": "view",
      "type": "function"
    },
    {
      "inputs": [],
      "name": "RELAY_ERC20_ROUTER",
      "outputs": [
        {
          "internalType": "address",
          "name": "",
          "type": "address"
        }
      ],
      "stateMutability": "view",
      "type": "function"
    },
    {
      "inputs": [],
      "name": "REVEAL_WINDOW",
      "outputs": [
        {
          "internalType": "uint256",
          "name": "",
          "type": "uint256"
        }
      ],
      "stateMutability": "view",
      "type": "function"
    },
    {
      "inputs": [],
      "name": "TIMELOCK_DURATION",
      "outputs": [
        {
          "internalType": "uint256",
          "name": "",
          "type": "uint256"
        }
      ],
      "stateMutability": "view",
      "type": "function"
    },
    {
      "inputs": [],
      "name": "TIPPINGCHAIN_FEE",
      "outputs": [
        {
          "internalType": "uint256",
          "name": "",
          "type": "uint256"
        }
      ],
      "stateMutability": "view",
      "type": "function"
    },
    {
      "inputs": [],
      "name": "VIEWER_REWARD_FEE",
      "outputs": [
        {
          "internalType": "uint256",
          "name": "",
          "type": "uint256"
        }
      ],
      "stateMutability": "view",
      "type": "function"
    },
    {
      "inputs": [],
      "name": "acceptOwnership",
      "outputs": [],
      "stateMutability": "nonpayable",
      "type": "function"
    },
    {
      "inputs": [],
      "name": "activeCreatorCount",
      "outputs": [
        {
          "internalType": "uint256",
          "name": "",
          "type": "uint256"
        }
      ],
      "stateMutability": "view",
      "type": "function"
    },
    {
      "inputs": [
        {
          "internalType": "uint256",
          "name": "",
          "type": "uint256"
        }
      ],
      "name": "activeCreatorIds",
      "outputs": [
        {
          "internalType": "uint256",
          "name": "",
          "type": "uint256"
        }
      ],
      "stateMutability": "view",
      "type": "function"
    },
    {
      "inputs": [
        {
          "internalType": "uint256",
          "name": "",
          "type": "uint256"
        }
      ],
      "name": "activeCreatorIndex",
      "outputs": [
        {
          "internalType": "uint256",
          "name": "",
          "type": "uint256"
        }
      ],
      "stateMutability": "view",
      "type": "function"
    },
    {
      "inputs": [
        {
          "internalType": "address",
          "name": "relayer",
          "type": "address"
        }
      ],
      "name": "addAuthorizedRelayer",
      "outputs": [],
      "stateMutability": "nonpayable",
      "type": "function"
    },
    {
      "inputs": [
        {
          "internalType": "address",
          "name": "creatorWallet",
          "type": "address"
        },
        {
          "internalType": "enum StreamingPlatformTipping.MembershipTier",
          "name": "tier",
          "type": "uint8"
        },
        {
          "internalType": "string",
          "name": "thirdwebId",
          "type": "string"
        }
      ],
      "name": "addCreatorDirect",
      "outputs": [
        {
          "internalType": "uint256",
          "name": "creatorId",
          "type": "uint256"
        }
      ],
      "stateMutability": "nonpayable",
      "type": "function"
    },
    {
      "inputs": [
        {
          "internalType": "address",
          "name": "token",
          "type": "address"
        }
      ],
      "name": "addSupportedToken",
      "outputs": [],
      "stateMutability": "nonpayable",
      "type": "function"
    },
    {
      "inputs": [
        {
          "internalType": "address",
          "name": "",
          "type": "address"
        }
      ],
      "name": "admins",
      "outputs": [
        {
          "internalType": "bool",
          "name": "",
          "type": "bool"
        }
      ],
      "stateMutability": "view",
      "type": "function"
    },
    {
      "inputs": [
        {
          "internalType": "address",
          "name": "",
          "type": "address"
        }
      ],
      "name": "authorizedRelayers",
      "outputs": [
        {
          "internalType": "bool",
          "name": "",
          "type": "bool"
        }
      ],
      "stateMutability": "view",
      "type": "function"
    },
    {
      "inputs": [],
      "name": "autoRelayEnabled",
      "outputs": [
        {
          "internalType": "bool",
          "name": "",
          "type": "bool"
        }
      ],
      "stateMutability": "view",
      "type": "function"
    },
    {
      "inputs": [
        {
          "internalType": "address[]",
          "name": "creatorWallets",
          "type": "address[]"
        },
        {
          "internalType": "enum StreamingPlatformTipping.MembershipTier[]",
          "name": "tiers",
          "type": "uint8[]"
        }
      ],
      "name": "batchAddCreators",
      "outputs": [
        {
          "internalType": "uint256[]",
          "name": "creatorIds",
          "type": "uint256[]"
        }
      ],
      "stateMutability": "nonpayable",
      "type": "function"
    },
    {
      "inputs": [
        {
          "internalType": "uint256[]",
          "name": "targetViewerIds",
          "type": "uint256[]"
        },
        {
          "internalType": "uint256[]",
          "name": "amounts",
          "type": "uint256[]"
        },
        {
          "internalType": "string[]",
          "name": "reasons",
          "type": "string[]"
        }
      ],
      "name": "batchRewardViewersByIdETH",
      "outputs": [],
      "stateMutability": "payable",
      "type": "function"
    },
    {
      "inputs": [
        {
          "internalType": "address[]",
          "name": "viewerAddresses",
          "type": "address[]"
        },
        {
          "internalType": "uint256[]",
          "name": "amounts",
          "type": "uint256[]"
        },
        {
          "internalType": "string[]",
          "name": "reasons",
          "type": "string[]"
        }
      ],
      "name": "batchRewardViewersETH",
      "outputs": [],
      "stateMutability": "payable",
      "type": "function"
    },
    {
      "inputs": [],
      "name": "businessOwner",
      "outputs": [
        {
          "internalType": "address",
          "name": "",
          "type": "address"
        }
      ],
      "stateMutability": "view",
      "type": "function"
    },
    {
      "inputs": [
        {
          "internalType": "uint256",
          "name": "creatorId",
          "type": "uint256"
        },
        {
          "internalType": "uint256",
          "name": "tipAmount",
          "type": "uint256"
        }
      ],
      "name": "calculateTipSplits",
      "outputs": [
        {
          "internalType": "uint256",
          "name": "platformFee",
          "type": "uint256"
        },
        {
          "internalType": "uint256",
          "name": "creatorAmount",
          "type": "uint256"
        },
        {
          "internalType": "uint256",
          "name": "businessAmount",
          "type": "uint256"
        }
      ],
      "stateMutability": "view",
      "type": "function"
    },
    {
      "inputs": [
        {
          "internalType": "bytes32",
          "name": "commitment",
          "type": "bytes32"
        }
      ],
      "name": "commitCreator",
      "outputs": [],
      "stateMutability": "nonpayable",
      "type": "function"
    },
    {
      "inputs": [
        {
          "internalType": "bytes32",
          "name": "",
          "type": "bytes32"
        }
      ],
      "name": "creatorCommitments",
      "outputs": [
        {
          "internalType": "uint256",
          "name": "",
          "type": "uint256"
        }
      ],
      "stateMutability": "view",
      "type": "function"
    },
    {
      "inputs": [
        {
          "internalType": "uint256",
          "name": "",
          "type": "uint256"
        }
      ],
      "name": "creatorTiers",
      "outputs": [
        {
          "internalType": "enum StreamingPlatformTipping.MembershipTier",
          "name": "",
          "type": "uint8"
        }
      ],
      "stateMutability": "view",
      "type": "function"
    },
    {
      "inputs": [
        {
          "internalType": "uint256",
          "name": "",
          "type": "uint256"
        }
      ],
      "name": "creators",
      "outputs": [
        {
          "internalType": "address",
          "name": "wallet",
          "type": "address"
        },
        {
          "internalType": "bool",
          "name": "active",
          "type": "bool"
        },
        {
          "internalType": "uint256",
          "name": "totalTipsReceived",
          "type": "uint256"
        },
        {
          "internalType": "uint256",
          "name": "tipCount",
          "type": "uint256"
        },
        {
          "internalType": "enum StreamingPlatformTipping.MembershipTier",
          "name": "tier",
          "type": "uint8"
        }
      ],
      "stateMutability": "view",
      "type": "function"
    },
    {
      "inputs": [],
      "name": "emergencyWithdraw",
      "outputs": [],
      "stateMutability": "nonpayable",
      "type": "function"
    },
    {
      "inputs": [
        {
          "internalType": "address",
          "name": "_relayReceiver",
          "type": "address"
        },
        {
          "internalType": "bytes32",
          "name": "actionId",
          "type": "bytes32"
        }
      ],
      "name": "executeRelayReceiverUpdate",
      "outputs": [],
      "stateMutability": "nonpayable",
      "type": "function"
    },
    {
      "inputs": [],
      "name": "getActiveCreatorIds",
      "outputs": [
        {
          "internalType": "uint256[]",
          "name": "",
          "type": "uint256[]"
        }
      ],
      "stateMutability": "view",
      "type": "function"
    },
    {
      "inputs": [
        {
          "internalType": "uint256",
          "name": "offset",
          "type": "uint256"
        },
        {
          "internalType": "uint256",
          "name": "limit",
          "type": "uint256"
        }
      ],
      "name": "getAllActiveCreators",
      "outputs": [
        {
          "internalType": "uint256[]",
          "name": "creatorIds",
          "type": "uint256[]"
        },
        {
          "internalType": "address[]",
          "name": "wallets",
          "type": "address[]"
        },
        {
          "internalType": "uint256[]",
          "name": "tipAmounts",
          "type": "uint256[]"
        },
        {
          "internalType": "uint256",
          "name": "totalActive",
          "type": "uint256"
        }
      ],
      "stateMutability": "view",
      "type": "function"
    },
    {
      "inputs": [],
      "name": "getApeChainStats",
      "outputs": [
        {
          "internalType": "uint256",
          "name": "totalUsdc",
          "type": "uint256"
        },
        {
          "internalType": "uint256",
          "name": "totalFromChain",
          "type": "uint256"
        }
      ],
      "stateMutability": "view",
      "type": "function"
    },
    {
      "inputs": [
        {
          "internalType": "address",
          "name": "user",
          "type": "address"
        }
      ],
      "name": "getBalances",
      "outputs": [
        {
          "internalType": "uint256",
          "name": "ethBalance",
          "type": "uint256"
        },
        {
          "internalType": "uint256",
          "name": "usdcBalance",
          "type": "uint256"
        }
      ],
      "stateMutability": "view",
      "type": "function"
    },
    {
      "inputs": [
        {
          "internalType": "string",
          "name": "thirdwebId",
          "type": "string"
        }
      ],
      "name": "getCreatorByThirdwebId",
      "outputs": [
        {
          "internalType": "uint256",
          "name": "",
          "type": "uint256"
        }
      ],
      "stateMutability": "view",
      "type": "function"
    },
    {
      "inputs": [
        {
          "internalType": "address",
          "name": "wallet",
          "type": "address"
        }
      ],
      "name": "getCreatorByWallet",
      "outputs": [
        {
          "internalType": "uint256",
          "name": "creatorId",
          "type": "uint256"
        }
      ],
      "stateMutability": "view",
      "type": "function"
    },
    {
      "inputs": [
        {
          "internalType": "uint256",
          "name": "creatorId",
          "type": "uint256"
        }
      ],
      "name": "getCreatorInfo",
      "outputs": [
        {
          "internalType": "address",
          "name": "wallet",
          "type": "address"
        },
        {
          "internalType": "bool",
          "name": "active",
          "type": "bool"
        },
        {
          "internalType": "uint256",
          "name": "totalTips",
          "type": "uint256"
        },
        {
          "internalType": "uint256",
          "name": "tipCount",
          "type": "uint256"
        },
        {
          "internalType": "enum StreamingPlatformTipping.MembershipTier",
          "name": "tier",
          "type": "uint8"
        },
        {
          "internalType": "uint256",
          "name": "creatorShareBps",
          "type": "uint256"
        }
      ],
      "stateMutability": "view",
      "type": "function"
    },
    {
      "inputs": [
        {
          "internalType": "uint256[]",
          "name": "creatorIdList",
          "type": "uint256[]"
        }
      ],
      "name": "getCreatorsByIds",
      "outputs": [
        {
          "internalType": "uint256[]",
          "name": "tipAmounts",
          "type": "uint256[]"
        },
        {
          "internalType": "address[]",
          "name": "wallets",
          "type": "address[]"
        },
        {
          "internalType": "bool[]",
          "name": "activeStatus",
          "type": "bool[]"
        }
      ],
      "stateMutability": "view",
      "type": "function"
    },
    {
      "inputs": [],
      "name": "getPlatformStats",
      "outputs": [
        {
          "internalType": "uint256",
          "name": "_totalTips",
          "type": "uint256"
        },
        {
          "internalType": "uint256",
          "name": "_totalCount",
          "type": "uint256"
        },
        {
          "internalType": "uint256",
          "name": "_totalRelayed",
          "type": "uint256"
        },
        {
          "internalType": "uint256",
          "name": "_activeCreators",
          "type": "uint256"
        },
        {
          "internalType": "bool",
          "name": "_autoRelayEnabled",
          "type": "bool"
        }
      ],
      "stateMutability": "view",
      "type": "function"
    },
    {
      "inputs": [
        {
          "internalType": "address",
          "name": "user",
          "type": "address"
        },
        {
          "internalType": "address",
          "name": "token",
          "type": "address"
        }
      ],
      "name": "getTokenBalance",
      "outputs": [
        {
          "internalType": "uint256",
          "name": "",
          "type": "uint256"
        }
      ],
      "stateMutability": "view",
      "type": "function"
    },
    {
      "inputs": [
        {
          "internalType": "string",
          "name": "thirdwebId",
          "type": "string"
        }
      ],
      "name": "getViewerByThirdwebId",
      "outputs": [
        {
          "internalType": "uint256",
          "name": "",
          "type": "uint256"
        }
      ],
      "stateMutability": "view",
      "type": "function"
    },
    {
      "inputs": [
        {
          "internalType": "address",
          "name": "wallet",
          "type": "address"
        }
      ],
      "name": "getViewerByWallet",
      "outputs": [
        {
          "internalType": "uint256",
          "name": "",
          "type": "uint256"
        }
      ],
      "stateMutability": "view",
      "type": "function"
    },
    {
      "inputs": [
        {
          "internalType": "address",
          "name": "user",
          "type": "address"
        }
      ],
      "name": "getViewerRewardStats",
      "outputs": [
        {
          "internalType": "uint256",
          "name": "rewardsGiven",
          "type": "uint256"
        },
        {
          "internalType": "uint256",
          "name": "rewardsReceived",
          "type": "uint256"
        },
        {
          "internalType": "uint256",
          "name": "rewardsSent",
          "type": "uint256"
        }
      ],
      "stateMutability": "view",
      "type": "function"
    },
    {
      "inputs": [],
      "name": "getViewerRewardsPlatformStats",
      "outputs": [
        {
          "internalType": "uint256",
          "name": "totalRewards",
          "type": "uint256"
        },
        {
          "internalType": "bool",
          "name": "rewardsEnabled",
          "type": "bool"
        },
        {
          "internalType": "uint256",
          "name": "platformFeeRate",
          "type": "uint256"
        }
      ],
      "stateMutability": "view",
      "type": "function"
    },
    {
      "inputs": [
        {
          "internalType": "address",
          "name": "admin",
          "type": "address"
        }
      ],
      "name": "grantAdmin",
      "outputs": [],
      "stateMutability": "nonpayable",
      "type": "function"
    },
    {
      "inputs": [
        {
          "internalType": "address",
          "name": "admin",
          "type": "address"
        }
      ],
      "name": "isAdmin",
      "outputs": [
        {
          "internalType": "bool",
          "name": "",
          "type": "bool"
        }
      ],
      "stateMutability": "view",
      "type": "function"
    },
    {
      "inputs": [
        {
          "internalType": "uint256",
          "name": "creatorId",
          "type": "uint256"
        },
        {
          "internalType": "address",
          "name": "token",
          "type": "address"
        }
      ],
      "name": "isTokenSupportedForCreator",
      "outputs": [
        {
          "internalType": "bool",
          "name": "",
          "type": "bool"
        }
      ],
      "stateMutability": "view",
      "type": "function"
    },
    {
      "inputs": [],
      "name": "manualRelayETH",
      "outputs": [],
      "stateMutability": "nonpayable",
      "type": "function"
    },
    {
      "inputs": [
        {
          "internalType": "address",
          "name": "token",
          "type": "address"
        }
      ],
      "name": "manualRelayToken",
      "outputs": [],
      "stateMutability": "nonpayable",
      "type": "function"
    },
    {
      "inputs": [],
      "name": "nextCreatorId",
      "outputs": [
        {
          "internalType": "uint256",
          "name": "",
          "type": "uint256"
        }
      ],
      "stateMutability": "view",
      "type": "function"
    },
    {
      "inputs": [],
      "name": "nextViewerId",
      "outputs": [
        {
          "internalType": "uint256",
          "name": "",
          "type": "uint256"
        }
      ],
      "stateMutability": "view",
      "type": "function"
    },
    {
      "inputs": [],
      "name": "owner",
      "outputs": [
        {
          "internalType": "address",
          "name": "",
          "type": "address"
        }
      ],
      "stateMutability": "view",
      "type": "function"
    },
    {
      "inputs": [],
      "name": "pause",
      "outputs": [],
      "stateMutability": "nonpayable",
      "type": "function"
    },
    {
      "inputs": [],
      "name": "paused",
      "outputs": [
        {
          "internalType": "bool",
          "name": "",
          "type": "bool"
        }
      ],
      "stateMutability": "view",
      "type": "function"
    },
    {
      "inputs": [
        {
          "internalType": "bytes32",
          "name": "",
          "type": "bytes32"
        }
      ],
      "name": "pendingActions",
      "outputs": [
        {
          "internalType": "uint256",
          "name": "timestamp",
          "type": "uint256"
        },
        {
          "internalType": "bytes",
          "name": "data",
          "type": "bytes"
        },
        {
          "internalType": "bool",
          "name": "executed",
          "type": "bool"
        }
      ],
      "stateMutability": "view",
      "type": "function"
    },
    {
      "inputs": [],
      "name": "pendingOwner",
      "outputs": [
        {
          "internalType": "address",
          "name": "",
          "type": "address"
        }
      ],
      "stateMutability": "view",
      "type": "function"
    },
    {
      "inputs": [
        {
          "internalType": "address",
          "name": "recipient",
          "type": "address"
        },
        {
          "internalType": "uint32",
          "name": "originChainId",
          "type": "uint32"
        },
        {
          "internalType": "bytes32",
          "name": "relayId",
          "type": "bytes32"
        },
        {
          "internalType": "uint256",
          "name": "usdcAmount",
          "type": "uint256"
        }
      ],
      "name": "receiveTipFromRelay",
      "outputs": [],
      "stateMutability": "nonpayable",
      "type": "function"
    },
    {
      "inputs": [
        {
          "internalType": "address",
          "name": "viewerWallet",
          "type": "address"
        },
        {
          "internalType": "string",
          "name": "thirdwebId",
          "type": "string"
        }
      ],
      "name": "registerViewer",
      "outputs": [
        {
          "internalType": "uint256",
          "name": "",
          "type": "uint256"
        }
      ],
      "stateMutability": "nonpayable",
      "type": "function"
    },
    {
      "inputs": [],
      "name": "relayReceiver",
      "outputs": [
        {
          "internalType": "address",
          "name": "",
          "type": "address"
        }
      ],
      "stateMutability": "view",
      "type": "function"
    },
    {
      "inputs": [
        {
          "internalType": "bytes32",
          "name": "",
          "type": "bytes32"
        }
      ],
      "name": "relayTracking",
      "outputs": [
        {
          "internalType": "address",
          "name": "recipient",
          "type": "address"
        },
        {
          "internalType": "address",
          "name": "token",
          "type": "address"
        },
        {
          "internalType": "uint256",
          "name": "amount",
          "type": "uint256"
        },
        {
          "internalType": "uint256",
          "name": "timestamp",
          "type": "uint256"
        },
        {
          "internalType": "enum StreamingPlatformTipping.RelayStatus",
          "name": "status",
          "type": "uint8"
        }
      ],
      "stateMutability": "view",
      "type": "function"
    },
    {
      "inputs": [
        {
          "internalType": "address",
          "name": "relayer",
          "type": "address"
        }
      ],
      "name": "removeAuthorizedRelayer",
      "outputs": [],
      "stateMutability": "nonpayable",
      "type": "function"
    },
    {
      "inputs": [
        {
          "internalType": "address",
          "name": "token",
          "type": "address"
        }
      ],
      "name": "removeSupportedToken",
      "outputs": [],
      "stateMutability": "nonpayable",
      "type": "function"
    },
    {
      "inputs": [],
      "name": "renounceOwnership",
      "outputs": [],
      "stateMutability": "nonpayable",
      "type": "function"
    },
    {
      "inputs": [
        {
          "internalType": "address",
          "name": "creatorWallet",
          "type": "address"
        },
        {
          "internalType": "enum StreamingPlatformTipping.MembershipTier",
          "name": "tier",
          "type": "uint8"
        },
        {
          "internalType": "string",
          "name": "thirdwebId",
          "type": "string"
        },
        {
          "internalType": "bytes32",
          "name": "salt",
          "type": "bytes32"
        }
      ],
      "name": "revealCreator",
      "outputs": [
        {
          "internalType": "uint256",
          "name": "creatorId",
          "type": "uint256"
        }
      ],
      "stateMutability": "nonpayable",
      "type": "function"
    },
    {
      "inputs": [
        {
          "internalType": "address",
          "name": "admin",
          "type": "address"
        }
      ],
      "name": "revokeAdmin",
      "outputs": [],
      "stateMutability": "nonpayable",
      "type": "function"
    },
    {
      "inputs": [
        {
          "internalType": "address",
          "name": "",
          "type": "address"
        }
      ],
      "name": "rewardCount",
      "outputs": [
        {
          "internalType": "uint256",
          "name": "",
          "type": "uint256"
        }
      ],
      "stateMutability": "view",
      "type": "function"
    },
    {
      "inputs": [
        {
          "internalType": "uint256",
          "name": "viewerId",
          "type": "uint256"
        },
        {
          "internalType": "string",
          "name": "reason",
          "type": "string"
        }
      ],
      "name": "rewardViewerByIdETH",
      "outputs": [],
      "stateMutability": "payable",
      "type": "function"
    },
    {
      "inputs": [
        {
          "internalType": "address",
          "name": "viewer",
          "type": "address"
        },
        {
          "internalType": "string",
          "name": "reason",
          "type": "string"
        }
      ],
      "name": "rewardViewerETH",
      "outputs": [],
      "stateMutability": "payable",
      "type": "function"
    },
    {
      "inputs": [
        {
          "internalType": "address",
          "name": "viewer",
          "type": "address"
        },
        {
          "internalType": "address",
          "name": "token",
          "type": "address"
        },
        {
          "internalType": "uint256",
          "name": "amount",
          "type": "uint256"
        },
        {
          "internalType": "string",
          "name": "reason",
          "type": "string"
        }
      ],
      "name": "rewardViewerToken",
      "outputs": [],
      "stateMutability": "nonpayable",
      "type": "function"
    },
    {
      "inputs": [
        {
          "internalType": "address",
          "name": "_relayReceiver",
          "type": "address"
        }
      ],
      "name": "scheduleRelayReceiverUpdate",
      "outputs": [
        {
          "internalType": "bytes32",
          "name": "actionId",
          "type": "bytes32"
        }
      ],
      "stateMutability": "nonpayable",
      "type": "function"
    },
    {
      "inputs": [
        {
          "internalType": "bool",
          "name": "_enabled",
          "type": "bool"
        }
      ],
      "name": "setAutoRelay",
      "outputs": [],
      "stateMutability": "nonpayable",
      "type": "function"
    },
    {
      "inputs": [
        {
          "internalType": "uint256",
          "name": "creatorId",
          "type": "uint256"
        },
        {
          "internalType": "bool",
          "name": "active",
          "type": "bool"
        }
      ],
      "name": "setCreatorStatus",
      "outputs": [],
      "stateMutability": "nonpayable",
      "type": "function"
    },
    {
      "inputs": [
        {
          "internalType": "uint256",
          "name": "creatorId",
          "type": "uint256"
        },
        {
          "internalType": "address",
          "name": "token",
          "type": "address"
        },
        {
          "internalType": "bool",
          "name": "supported",
          "type": "bool"
        }
      ],
      "name": "setCreatorTokenSupport",
      "outputs": [],
      "stateMutability": "nonpayable",
      "type": "function"
    },
    {
      "inputs": [
        {
          "internalType": "bool",
          "name": "enabled",
          "type": "bool"
        }
      ],
      "name": "setViewerRewardsEnabled",
      "outputs": [],
      "stateMutability": "nonpayable",
      "type": "function"
    },
    {
      "inputs": [],
      "name": "sourceChainId",
      "outputs": [
        {
          "internalType": "uint256",
          "name": "",
          "type": "uint256"
        }
      ],
      "stateMutability": "view",
      "type": "function"
    },
    {
      "inputs": [
        {
          "internalType": "address",
          "name": "",
          "type": "address"
        }
      ],
      "name": "supportedTokens",
      "outputs": [
        {
          "internalType": "bool",
          "name": "",
          "type": "bool"
        }
      ],
      "stateMutability": "view",
      "type": "function"
    },
    {
      "inputs": [
        {
          "internalType": "string",
          "name": "",
          "type": "string"
        }
      ],
      "name": "thirdwebIdToCreatorId",
      "outputs": [
        {
          "internalType": "uint256",
          "name": "",
          "type": "uint256"
        }
      ],
      "stateMutability": "view",
      "type": "function"
    },
    {
      "inputs": [
        {
          "internalType": "string",
          "name": "",
          "type": "string"
        }
      ],
      "name": "thirdwebIdToViewerId",
      "outputs": [
        {
          "internalType": "uint256",
          "name": "",
          "type": "uint256"
        }
      ],
      "stateMutability": "view",
      "type": "function"
    },
    {
      "inputs": [
        {
          "internalType": "enum StreamingPlatformTipping.MembershipTier",
          "name": "",
          "type": "uint8"
        }
      ],
      "name": "tierCreatorShares",
      "outputs": [
        {
          "internalType": "uint256",
          "name": "",
          "type": "uint256"
        }
      ],
      "stateMutability": "view",
      "type": "function"
    },
    {
      "inputs": [
        {
          "internalType": "uint256",
          "name": "creatorId",
          "type": "uint256"
        }
      ],
      "name": "tipCreatorETH",
      "outputs": [],
      "stateMutability": "payable",
      "type": "function"
    },
    {
      "inputs": [
        {
          "internalType": "uint256",
          "name": "creatorId",
          "type": "uint256"
        },
        {
          "internalType": "address",
          "name": "token",
          "type": "address"
        },
        {
          "internalType": "uint256",
          "name": "amount",
          "type": "uint256"
        }
      ],
      "name": "tipCreatorToken",
      "outputs": [],
      "stateMutability": "nonpayable",
      "type": "function"
    },
    {
      "inputs": [
        {
          "internalType": "address",
          "name": "",
          "type": "address"
        }
      ],
      "name": "tipperCount",
      "outputs": [
        {
          "internalType": "uint256",
          "name": "",
          "type": "uint256"
        }
      ],
      "stateMutability": "view",
      "type": "function"
    },
    {
      "inputs": [],
      "name": "tippingChainTreasury",
      "outputs": [
        {
          "internalType": "address",
          "name": "",
          "type": "address"
        }
      ],
      "stateMutability": "view",
      "type": "function"
    },
    {
      "inputs": [
        {
          "internalType": "uint256",
          "name": "",
          "type": "uint256"
        }
      ],
      "name": "tipsFromChain",
      "outputs": [
        {
          "internalType": "uint256",
          "name": "",
          "type": "uint256"
        }
      ],
      "stateMutability": "view",
      "type": "function"
    },
    {
      "inputs": [],
      "name": "totalRelayedToApeChain",
      "outputs": [
        {
          "internalType": "uint256",
          "name": "",
          "type": "uint256"
        }
      ],
      "stateMutability": "view",
      "type": "function"
    },
    {
      "inputs": [
        {
          "internalType": "address",
          "name": "",
          "type": "address"
        }
      ],
      "name": "totalRewardsGiven",
      "outputs": [
        {
          "internalType": "uint256",
          "name": "",
          "type": "uint256"
        }
      ],
      "stateMutability": "view",
      "type": "function"
    },
    {
      "inputs": [
        {
          "internalType": "address",
          "name": "",
          "type": "address"
        }
      ],
      "name": "totalRewardsReceived",
      "outputs": [
        {
          "internalType": "uint256",
          "name": "",
          "type": "uint256"
        }
      ],
      "stateMutability": "view",
      "type": "function"
    },
    {
      "inputs": [],
      "name": "totalTipCount",
      "outputs": [
        {
          "internalType": "uint256",
          "name": "",
          "type": "uint256"
        }
      ],
      "stateMutability": "view",
      "type": "function"
    },
    {
      "inputs": [],
      "name": "totalTipsReceived",
      "outputs": [
        {
          "internalType": "uint256",
          "name": "",
          "type": "uint256"
        }
      ],
      "stateMutability": "view",
      "type": "function"
    },
    {
      "inputs": [],
      "name": "totalUsdcReceived",
      "outputs": [
        {
          "internalType": "uint256",
          "name": "",
          "type": "uint256"
        }
      ],
      "stateMutability": "view",
      "type": "function"
    },
    {
      "inputs": [],
      "name": "totalViewerRewards",
      "outputs": [
        {
          "internalType": "uint256",
          "name": "",
          "type": "uint256"
        }
      ],
      "stateMutability": "view",
      "type": "function"
    },
    {
      "inputs": [],
      "name": "totalViewers",
      "outputs": [
        {
          "internalType": "uint256",
          "name": "",
          "type": "uint256"
        }
      ],
      "stateMutability": "view",
      "type": "function"
    },
    {
      "inputs": [
        {
          "internalType": "address",
          "name": "newOwner",
          "type": "address"
        }
      ],
      "name": "transferOwnership",
      "outputs": [],
      "stateMutability": "nonpayable",
      "type": "function"
    },
    {
      "inputs": [],
      "name": "unpause",
      "outputs": [],
      "stateMutability": "nonpayable",
      "type": "function"
    },
    {
      "inputs": [
        {
          "internalType": "uint256",
          "name": "creatorId",
          "type": "uint256"
        },
        {
          "internalType": "enum StreamingPlatformTipping.MembershipTier",
          "name": "newTier",
          "type": "uint8"
        }
      ],
      "name": "updateCreatorTier",
      "outputs": [],
      "stateMutability": "nonpayable",
      "type": "function"
    },
    {
      "inputs": [
        {
          "internalType": "uint256",
          "name": "creatorId",
          "type": "uint256"
        },
        {
          "internalType": "address",
          "name": "newWallet",
          "type": "address"
        }
      ],
      "name": "updateCreatorWallet",
      "outputs": [],
      "stateMutability": "nonpayable",
      "type": "function"
    },
    {
      "inputs": [
        {
          "internalType": "uint256",
          "name": "viewerId",
          "type": "uint256"
        },
        {
          "internalType": "address",
          "name": "newWallet",
          "type": "address"
        }
      ],
      "name": "updateViewerWallet",
      "outputs": [],
      "stateMutability": "nonpayable",
      "type": "function"
    },
    {
      "inputs": [
        {
          "internalType": "address",
          "name": "",
          "type": "address"
        }
      ],
      "name": "usdcBalances",
      "outputs": [
        {
          "internalType": "uint256",
          "name": "",
          "type": "uint256"
        }
      ],
      "stateMutability": "view",
      "type": "function"
    },
    {
      "inputs": [
        {
          "internalType": "address",
          "name": "",
          "type": "address"
        },
        {
          "internalType": "uint256",
          "name": "",
          "type": "uint256"
        }
      ],
      "name": "userPendingRelays",
      "outputs": [
        {
          "internalType": "bytes32",
          "name": "",
          "type": "bytes32"
        }
      ],
      "stateMutability": "view",
      "type": "function"
    },
    {
      "inputs": [
        {
          "internalType": "address",
          "name": "",
          "type": "address"
        }
      ],
      "name": "viewerIds",
      "outputs": [
        {
          "internalType": "uint256",
          "name": "",
          "type": "uint256"
        }
      ],
      "stateMutability": "view",
      "type": "function"
    },
    {
      "inputs": [],
      "name": "viewerRewardsEnabled",
      "outputs": [
        {
          "internalType": "bool",
          "name": "",
          "type": "bool"
        }
      ],
      "stateMutability": "view",
      "type": "function"
    },
    {
      "inputs": [
        {
          "internalType": "uint256",
          "name": "",
          "type": "uint256"
        }
      ],
      "name": "viewers",
      "outputs": [
        {
          "internalType": "address",
          "name": "",
          "type": "address"
        }
      ],
      "stateMutability": "view",
      "type": "function"
    },
    {
      "inputs": [
        {
          "internalType": "address",
          "name": "",
          "type": "address"
        }
      ],
      "name": "walletToCreatorId",
      "outputs": [
        {
          "internalType": "uint256",
          "name": "",
          "type": "uint256"
        }
      ],
      "stateMutability": "view",
      "type": "function"
    },
    {
      "inputs": [],
      "name": "withdrawETH",
      "outputs": [],
      "stateMutability": "nonpayable",
      "type": "function"
    },
    {
      "inputs": [
        {
          "internalType": "address",
          "name": "token",
          "type": "address"
        }
      ],
      "name": "withdrawToken",
      "outputs": [],
      "stateMutability": "nonpayable",
      "type": "function"
    },
    {
      "inputs": [],
      "name": "withdrawUSDC",
      "outputs": [],
      "stateMutability": "nonpayable",
      "type": "function"
    },
    {
      "inputs": [
        {
          "internalType": "uint256",
          "name": "amount",
          "type": "uint256"
        }
      ],
      "name": "withdrawUSDCAmount",
      "outputs": [],
      "stateMutability": "nonpayable",
      "type": "function"
    }
  ],
  "bytecode": "0x604060e0815234620003c557620064ea803803806200001e81620003ca565b92833981019060c081830312620003c5576200003a8162000406565b906020906200004b82820162000406565b906200005986820162000406565b606082015190946001600160401b03929091838111620003c55787620000819183016200041b565b96620000906080830162000406565b9360a0830151908111620003c557620000aa92016200041b565b9160019660009188835560018060a01b039586891615620003ad57620000d089620004de565b89600d5560ff19948a8660215416176021558a60255587811615620003695787821615620003325760805260a0524660c052600680546001600160a81b03191660089290921b610100600160a81b031691909117891790556007889055818052600486528882206117709055878252888220611b58905560028252888220611f409055600382528882206123289055879082825b620002f0575b505081905b6200026e575b886200018188620004de565b51615f9f90816200054b823960805181818161089d0152818161095401528181610b67015281816114e20152818161173701528181611cff01528181611dd90152818161217601528181612cd0015281816139390152614d4a015260a0518181816108640152818161090101528181610c3801528181610ef501528181611ca601528181611d8801528181612050015281816120ed0152818161224801528181612ad001528181612bc6015281816132dd0152818161335101528181613c0c01528181613e3301528181613f210152614d74015260c0518181816115630152818161405e01526157ff0152f35b8351811015620002ea5790620002df82866200028f8796958c9998620004b3565b51168352601a88528a8320878582541617905585620002af8287620004b3565b51167f5afe4db7a7f6fb62654cf58aa1c5b48bf792e80667fd0480625d1e5d52744937898d518a8152a26200048d565b90919293946200016f565b62000175565b81518110156200032c5780876200030c620003259385620004b3565b51168552601289528b852084878254161790556200048d565b8262000164565b6200016a565b8b5162461bcd60e51b8152600481018a9052601060248201526f496e76616c696420747265617375727960801b6044820152606490fd5b8b5162461bcd60e51b8152600481018a9052601660248201527f496e76616c696420627573696e657373206f776e6572000000000000000000006044820152606490fd5b8a51631e4fbdf760e01b815260048101859052602490fd5b600080fd5b6040519190601f01601f191682016001600160401b03811183821017620003f057604052565b634e487b7160e01b600052604160045260246000fd5b51906001600160a01b0382168203620003c557565b81601f82011215620003c5578051916001600160401b038311620003f0578260051b60209283806200044f818501620003ca565b809781520192820101928311620003c5578301905b82821062000473575050505090565b838091620004818462000406565b81520191019062000464565b60001981146200049d5760010190565b634e487b7160e01b600052601160045260246000fd5b8051821015620004c85760209160051b010190565b634e487b7160e01b600052603260045260246000fd5b600280546001600160a01b031916905560018054610100600160a81b03198116600884811b610100600160a81b0316919091179092556001600160a01b0392831692911c167f8be0079c531659141344cd1fd0a4f28419497f9722a3daafe3b4186f6b6457e0600080a356fe60808060405260048036101561001457600080fd5b60003560e01c918263036210901461453e57508163083b7bd81461439d578163086533da146143435781630e7016f5146142e05781630f43b38c146140f057816312e4cd95146140c6578163136d8883146140815781631544298e1461404657816317e931cf1461402957816318a37ab414613fc257816318c48d2b14613c6057816319738b9214613a9d57816324d7806c146130185781632516f8e6146139f357816326ab875f1461392557816326b5ee0d1461390257816326de5488146138b2578163273d424114613862578163275dec081461374b57816329e295c51461370c5781632b95af25146136c25781632d345670146136195781632ea169c8146135aa57816330e38a67146135745781633308d35f1461353a57816335bb3e161461345157816339c09315146134225781633a57cb32146133ae5781633b78012e146131395781633df77f1e1461311c5781633f4ba83a146130c5578163404379001461309e578163405dc7c714613074578163429895ac14613057578163429b62e51461301857816345163c5414612fa05781634623c81e14612f825781634687d39314612f485781634bb22c72146126635781634cbb306614612dcd5781634d3fd50614612da35781634eacff2014612ca95781635155cb1614612c775781635603fe5f146128e95781635943da56146126fa5781635a71e2f81461284d5781635a9f462f146127575781635c975abb14612734578163663222c5146126fa57816366b55126146126c557816368c4ac261461268657816369a27756146126685781636c590e6f146126635781636d69fcaf1461261e5781636fa75ec514612600578163715018a6146125a1578163763191901461255f57816379ba5097146124d25781638456cb5914612479578163845e4fc0146122a557816385b574111461226f57816389476069146121455781638ad3ffe214611e6b5781638cdb0b7014611a825781638da5cb5b14611a555781638f747f7b146118b85781639559896f146117de57816396a8374b146116ba578163981886a71461168d5781639961bbf3146115f357816399a95de0146115b95781639a069046146112fd578163a0dddf951461159b578163a1b13f591461154b578163a6a7829514611511578163a73ebd71146114cc578163a99c68c514611492578163aa2b440214611463578163ae8cea1414611440578163b5af960d14611406578163bde4839714611371578163beaba56c14611354578163bf67cd1a14611337578163c0cad1fd146112fd578163c137ae6e146112a7578163c489744b14611256578163c69641c214610ff5578163c84aae1714610fae578163cd53d08e14610f42578163cf51bfdd14610f24578163d5760a4114610edf578163d8fc063d14610e30578163db2e21bc14610d9b578163dda0053f14610c7e578163df9e842214610c60578163e086e5ec14610b44578163e18b8e6f14610ae5578163e1f1c4a714610ac8578163e30569e5146109d6578163e30c3978146109ad578163e49107ad146106bc578163efe8c0841461069e578163f05db44f14610680578163f2fde38b1461060d578163f60db437146105ef578163f8277b141461053657508063f8325606146104fc5763fbed8fce146104c557600080fd5b346104f75760003660031901126104f757606060205460ff602154166040519182521515602082015260646040820152f35b600080fd5b346104f75760203660031901126104f7576001600160a01b0361051d614762565b16600052601d6020526020604060002054604051908152f35b346104f75761054436614afa565b9091821515806105e4575b61055890614ff0565b6101f4908183029183830414831517156105cf576105cb916105bf916105846127108093048096614d21565b95600052600a60205260ff600360406000200154166105a2816147ca565b6000526020526105b7604060002054866150b5565b048094614d21565b60405193849384614ae4565b0390f35b601190634e487b7160e01b6000525260246000fd5b50600d54831061054f565b346104f75760003660031901126104f7576020600d54604051908152f35b346104f75760203660031901126104f757610626614762565b61062e614b6f565b600280546001600160a01b0319166001600160a01b03928316908117909155600154909160089190911c167f38d16b8cac22d99fc7c124b9cd0de2d3fa1faef420bfe791d8c362d765e22700600080a3005b346104f75760003660031901126104f7576020602554604051908152f35b346104f75760003660031901126104f7576020601554604051908152f35b6020806003193601126104f7578135906106d461511d565b6106dc6150ff565b811515806109a2575b6106ee90614ff0565b81600052600a815261070a60ff60406000205460a01c16615031565b6107186103e8341015615072565b81600052600a815260018060a01b038060406000205416916101f49081340291348304143415171561098d5794600080516020615eea833981519152929160009661079b6127108093049261076d8434614d21565b94898b52600a845260ff600360408d20015416610789816147ca565b8b5283526105b760408b2054866150b5565b9588946006548160ff8216918261097e575b50506108f2575b9160189161084394938715610861575b5050888a52600a8152600160408b20016107df3482546150c8565b9055888a52600a8152600260408b20016107f98154614cbe565b9055610807346015546150c8565b601555610815601654614cbe565b601655338a5252836040892061082b8154614cbe565b905561084d575b6040519384933397429334876150d5565b0390a46001600055005b610859346017546150c8565b601755610832565b807f0000000000000000000000000000000000000000000000000000000000000000168c526013835260408c206108998682546150c8565b90557f0000000000000000000000000000000000000000000000000000000000000000168b526013825260408b206108d28a82546150c8565b90558a526013815260408a206108e98682546150c8565b90558a806107c4565b945061084392916018916109267f00000000000000000000000000000000000000000000000000000000000000008561534c565b8061094e575b8061093e575b969193945091506107b4565b50610949818761534c565b610932565b506109797f00000000000000000000000000000000000000000000000000000000000000008a61534c565b61092c565b60081c1615159050818c6107ad565b601186634e487b7160e01b6000525260246000fd5b50600d5482106106e5565b346104f75760003660031901126104f7576002546040516001600160a01b039091168152602090f35b346104f757602090816003193601126104f7573560005260038152604060002081815491600180820190604051938492600092815491610a1583614b10565b80875292828116908115610aa75750600114610a6b575b50505050610a5f92610a4460ff9360029303866149b5565b01541691606060405195869586528501526060840190614b4a565b90151560408301520390f35b6000908152838120939450925b828410610a915750505082010185610a44836002610a2c565b8054888501860152879550928401928101610a78565b60ff191685880152505050151560051b830101905085610a44836002610a2c565b346104f75760003660031901126104f75760206040516127108152f35b346104f757610b1e610b2c610b3a610b05610aff36614afa565b90615c5d565b93929490916040519687966080885260808801906148be565b908682036020880152614aa7565b9084820360408601526148be565b9060608301520390f35b346104f75760003660031901126104f757610b5d61511d565b60018060a01b03807f0000000000000000000000000000000000000000000000000000000000000000163314908115610c34575b508015610c1c575b610ba290614f70565b33600052601360205260008080806040812054610bc0811515615856565b3382526013602052816040812055335af1610bd961531c565b5015610be6576001600055005b60649060206040519162461bcd60e51b8352820152600f60248201526e151c985b9cd9995c8819985a5b1959608a1b6044820152fd5b50336000908152600b60205260409020541515610b99565b90507f000000000000000000000000000000000000000000000000000000000000000016331482610b91565b346104f75760003660031901126104f7576020602654604051908152f35b346104f757610c8c3661487f565b90916001600160a01b0316610ca2811515614fab565b8060005260209260238452610cbc60406000205415614c2a565b7f66b7819a3ec972e9aa3637fad1f894ccb6ee5db81053440f50180cfa9d5e24668315159182610d78575b602554948593610cf685614cbe565b602555600085815260228952604080822080546001600160a01b0319168917905587825260238a529020859055610d5d575b610d33602654614cbe565b602655610d4d604051928392604084526040840191615a5c565b42888301520390a3604051908152f35b83604051828482378881848101602481520301902055610d28565b610d9660405186838237878188810160248152030190205415614c72565b610ce7565b346104f75760003660031901126104f757610db4614b6f565b610dbc615be1565b600080808047610dcd811515615856565b60015460081c6001600160a01b03165af1610de661531c565b5015610dee57005b60649060206040519162461bcd60e51b8352820152601b60248201527a115b595c99d95b98de481dda5d1a191c985dd85b0819985a5b1959602a1b6044820152fd5b346104f75760003660031901126104f757610e4961511d565b610e516150ff565b336000526019602052604060002054908115610ea9575033600052601960205260006040812055610e82813361588f565b604051908152426020820152600080516020615f2a83398151915260403392a26001600055005b60649060206040519162461bcd60e51b8352820152600f60248201526e4e6f20555344432062616c616e636560881b6044820152fd5b346104f75760003660031901126104f7576040517f00000000000000000000000000000000000000000000000000000000000000006001600160a01b03168152602090f35b346104f75760003660031901126104f7576020601b54604051908152f35b346104f75760203660031901126104f75735600052600a60205260a0604060002080549060018101549060ff60036002830154920154169160ff60405194600180881b0381168652861c161515602085015260408401526060830152610fa7816147ca565b6080820152f35b346104f75760203660031901126104f7576001600160a01b03610fcf614762565b166000526013602052604080600020546019602052816000205482519182526020820152f35b346104f757602090816003193601126104f757611010614762565b611018614b6f565b604051632fd232ed60e01b848201526001600160a01b0382166024808301919091528152916001600160401b039160608401838111858210176112415760408190526f39b2ba2932b630bca932b1b2b4bb32b960811b6080860190815260609290921b6001600160601b03191660908601524260a48601526044815261109d8161499a565b5190209260405192606084018481108282111761122c576040524284528584019182526040840192600084528560005260038752604060002094518555600190818601935190815193841161121757506110f78454614b10565b601f81116111ce575b508790601f841160011461115f57928060029593819361114c999896600094611154575b50501b916000199060031b1c19161790555b51151591019060ff801983541691151516179055565b604051908152f35b015192508b80611124565b90601f9392931983169185600052896000209260005b8b8282106111ba5750509161114c9897959391856002989694106111a1575b505050811b019055611136565b015160001960f88460031b161c19169055898080611194565b838501518655948701949384019301611175565b8460005288600020601f850160051c8101918a861061120d575b601f0160051c019083905b828110611201575050611100565b600081550183906111f3565b90915081906111e8565b604190634e487b7160e01b6000525260246000fd5b604184634e487b7160e01b6000525260246000fd5b604183634e487b7160e01b6000525260246000fd5b346104f75760403660031901126104f75761126f614762565b611277614778565b9060018060a01b038091166000526014602052604060002091166000526020526020604060002054604051908152f35b346104f75760203660031901126104f7576001600160a01b036112c8614762565b16600052601d602052604060002054601e60205260406000205490601f6020526105cb60406000205460405193849384614ae4565b346104f75760203660031901126104f7576001600160a01b0361131e614762565b1660005260236020526020604060002054604051908152f35b346104f75760003660031901126104f75760208054604051908152f35b346104f75760003660031901126104f75760206040516181738152f35b346104f75760603660031901126104f75761138a614762565b60243590828210156104f757604435916001600160401b0383116104f7576113e86113bd60209561114c9536910161478e565b6001543360089190911c6001600160a01b03161480156113ee575b6113e190614b9e565b36916149f3565b91614d2e565b5033600090815260278852604090205460ff166113d8565b346104f75760203660031901126104f7576001600160a01b03611427614762565b16600052601f6020526020604060002054604051908152f35b346104f75760003660031901126104f757602060ff600654166040519015158152f35b346104f75760003660031901126104f757602060405173f5042e6ffac5a625d4e7848e0b01373d8eb9e2228152f35b346104f75760203660031901126104f7576001600160a01b036114b3614762565b1660005260196020526020604060002054604051908152f35b346104f75760003660031901126104f7576040517f00000000000000000000000000000000000000000000000000000000000000006001600160a01b03168152602090f35b346104f75760206115388161152536614a2a565b8160405193828580945193849201614a68565b8101600c81520301902054604051908152f35b346104f75760003660031901126104f7576040601b547f0000000000000000000000000000000000000000000000000000000000000000600052601c602052816000205482519182526020820152f35b346104f75760003660031901126104f7576020601654604051908152f35b346104f75760203660031901126104f7578035818110156104f7576115dd816147ca565b6000526020526020604060002054604051908152f35b346104f75760603660031901126104f757803561160e614778565b6044359182151583036104f7576116769381600052600a60205260018060a01b0391826040600020541633148015611678575b61164a90614f70565b600052600a602052604060002001911660005260205260406000209060ff801983541691151516179055565b005b5061164a8360015460081c1633149050611641565b346104f75760003660031901126104f75760065460405160089190911c6001600160a01b03168152602090f35b346104f75760403660031901126104f757356116d4614778565b9080600052602090600a82527fd724124b989ca2e386201a32c8915b75b3a4aaa37cbf16d69d79d886646c439760018060a01b0380948160406000205416331480156117c9575b61172490614f70565b1693611731851515614fab565b61175f817f000000000000000000000000000000000000000000000000000000000000000016861415614bdf565b84600052600b845261177660406000205415614c2a565b82600052600a8452604060002054169283600052600b81526000604081205582600052600a815260406000208560018060a01b031982541617905584600052600b815282604060002055604051428152a4005b506117248260015460081c163314905061171b565b346104f75760403660031901126104f757803590602435908110156104f757611805614b6f565b811515806118ad575b61181790614ff0565b81600052600a60205260ff6003604060002001541690611836816147ca565b61183f826147ca565b80820361184857005b7f09008ba0853e609e7a75bea6fc2d06cef00276c9ff99b3fae802e293164408ee9160609184600052600a602052611887816003604060002001614ce3565b60405191611894816147ca565b825261189f816147ca565b6020820152426040820152a2005b50600d54821061180e565b346104f75760403660031901126104f75780356118d3614778565b9080151580611a4a575b6118e690615dca565b806000526020916022835260018060a01b039081604060002054163303611a155781169384156119dc57846000526023845260406000205461199857507f587b8d1a4c4a4a9fefa5c2f976a033ea6b0525861ae3bc112b3f8ba6206ba7c49082600052602284526040600020541692836000526023815260006040812055826000526022815260406000208560018060a01b0319825416179055846000526023815282604060002055604051428152a4005b60405162461bcd60e51b8152908101849052601d60248201527f4e65772077616c6c657420616c726561647920726567697374657265640000006044820152606490fd5b60405162461bcd60e51b81529081018490526012602482015271125b9d985b1a59081b995dc81dd85b1b195d60721b6044820152606490fd5b60405162461bcd60e51b8152808601859052600e60248201526d139bdd08185d5d1a1bdc9a5e995960921b6044820152606490fd5b5060255481106118dd565b346104f75760003660031901126104f75760015460405160089190911c6001600160a01b03168152602090f35b346104f75760603660031901126104f757611a9b614778565b611aa361511d565b611aab6150ff565b8135151580611e5f575b611abe90614ff0565b8135600052600a602052611adc60ff60406000205460a01c16615031565b611af06001600160a01b0382161515615140565b611b006103e86044351015615072565b6001600160a01b03811660009081526012602052604090205460ff168015611e2f575b611b2c90615184565b8135600052600a60205260018060a01b036040600020541690611b5b604435303360018060a01b0385166151c6565b6101f4806044350290604435820414604435151715611e1a57600080516020615eea8339815191529061271092610843611b99858404604435614d21565b928735600052600a60205260ff60036040600020015416611bb9816147ca565b60005287602052611bdb86611bd3604060002054876150b5565b048095614d21565b9660009060065460ff81169081611e04575b50611d81575b8115611c9d575b508835600052600a6020526001604060002001611c1a60443582546150c8565b90558835600052600a6020526002604060002001611c388154614cbe565b9055611c45601654614cbe565b601655336000526018602052806040600020611c618154614cbe565b9055611c87575b60405194859460018060a01b03169935983398429404604435876150d5565b611c956044356017546150c8565b601755611c68565b60018060a01b037f0000000000000000000000000000000000000000000000000000000000000000166000526014602052604060002060018060a01b0386166000526020526040600020611cf489850482546150c8565b905560018060a01b037f0000000000000000000000000000000000000000000000000000000000000000166000526014602052604060002060018060a01b0386166000526020526040600020611d4b8a82546150c8565b90556000526014602052604060002060018060a01b0385166000526020526040600020611d798682546150c8565b905589611bfa565b9050611db07f000000000000000000000000000000000000000000000000000000000000000088840486615548565b80611dd3575b80611dc2575b90611bf3565b50611dce818686615548565b611dbc565b50611dff7f00000000000000000000000000000000000000000000000000000000000000008986615548565b611db6565b60081c6001600160a01b0316151590508b611bed565b601184634e487b7160e01b6000525260246000fd5b5081356000908152600a602090815260408083206001600160a01b0385168452850190915290205460ff16611b23565b50600d54823510611ab5565b346104f75760803660031901126104f757611e84614762565b90611e8d614778565b604435929091906064356001600160401b0381116104f757611eb2903690840161478e565b9091611ebc61511d565b611ec46150ff565b33600052602095600b8752604060002054611ee0811515615906565b600052600a8752611efb60ff60406000205460a01c16615031565b611f0960ff6021541661594d565b6001600160a01b038281169790611f21891515615993565b611f2d338a14156159d8565b80881696611f3c881515615140565b611f496064851015615a1d565b8760005260128352611f6260ff60406000205416615184565b611f6e8430338b6151c6565b6064840290848204606414851517156105cf5750916120b4959391612710600080516020615e4a833981519152999896940493611fab8585614d21565b9a33600052601d84526040600020611fc48682546150c8565b90558c600052601e84526040600020611fde8d82546150c8565b905533600052601f84526040600020611ff78154614cbe565b90556120048585546150c8565b84556000916006548460ff82169182612136575b50506120e4575b505015998a156120ce578b60005260148352604060002089600052835261204c60406000209182546150c8565b90557f00000000000000000000000000000000000000000000000000000000000000001660005260148152604060002087600052815260406000206120928482546150c8565b90555b604051968752860152604085015260c0606085015260c0840191615a5c565b921560808201524260a08201528033930390a36001600055005b50506120dc826017546150c8565b601755612095565b9091508b6121137f00000000000000000000000000000000000000000000000000000000000000008885615548565b9283612124575b5050508c8061201f565b61212e9350615548565b8c8b8161211a565b60081c16151590508438612018565b346104f7576020806003193601126104f75761222690612163614762565b61216b61511d565b6001600160a01b03337f00000000000000000000000000000000000000000000000000000000000000008216148015612244575b801561222d575b6121af90614f70565b33600052601483526040600020911690816000528252612221604060002054926121da841515615856565b336000526014815260406000208360005281526000604081205561221360405194859263a9059cbb60e01b90840152336024840161552d565b03601f1981018452836149b5565b615272565b6001600055005b50336000908152600b8452604090205415156121a6565b50807f000000000000000000000000000000000000000000000000000000000000000016331461219f565b346104f75760203660031901126104f7576122886147bb565b612290614b6f565b60ff8019600654169115151617600655600080f35b346104f757602090816003193601126104f75780356001600160401b0381116104f7576122d590369083016147ea565b9160648311612437575091906122ea81615c17565b916122f482615c17565b6122fd83615c00565b9461230b60405196876149b5565b83865261231784615c00565b8684019490601f190136863760005b81811061239657505050938161235a61234d966040519788976060895260608901906148be565b9087820384890152614aa7565b918583036040870152519182815201929160005b82811061237d57505050500390f35b835115158552869550938101939281019260010161236e565b806123a96123be9284869b999a9b615b39565b358015158061242c575b6123c7575b50614cbe565b96959496612326565b80600052600a908188526001604060002001546123e4848d615c49565b52600081815282895260409020546001600160a01b03166124058489615c49565b52600052865260ff60406000205460a01c166124218289615c49565b9015159052896123b8565b50600d5481106123b3565b60405162461bcd60e51b8152908101849052601b60248201527a151bdbc81b585b9e4818dc99585d1bdc9cc81c995c5d595cdd1959602a1b6044820152606490fd5b346104f75760003660031901126104f757612492614b6f565b61249a6150ff565b600160ff19815416176001557f62e78cea01bee320cd4e420270b5ea74000d11b0c9f74754ebdbfc544b05a2586020604051338152a1005b346104f75760003660031901126104f7576002546001600160a01b0391338383160361254757506001600160a01b03191660025560018054610100600160a81b0319811633600881811b610100600160a81b0316929092179093559192911c16600080516020615f0a833981519152600080a3005b6024906040519063118cdaa760e01b82523390820152fd5b346104f75760203660031901126104f757612578614762565b612580614b6f565b6001600160a01b03166000908152601260205260409020805460ff19169055005b346104f75760003660031901126104f7576125ba614b6f565b600280546001600160a01b031916905560018054610100600160a81b0319811690915560009060081c6001600160a01b0316600080516020615f0a8339815191528280a3005b346104f75760003660031901126104f7576020600f54604051908152f35b346104f75760203660031901126104f757612637614762565b61263f614b6f565b6001600160a01b03166000908152601260205260409020805460ff19166001179055005b614a8b565b346104f75760003660031901126104f7576020601754604051908152f35b346104f75760203660031901126104f7576001600160a01b036126a7614762565b166000526012602052602060ff604060002054166040519015158152f35b346104f75760203660031901126104f757356010548110156104f7576126ec6020916148f2565b90546040519160031b1c8152f35b346104f75760203660031901126104f7576001600160a01b0361271b614762565b16600052600b6020526020604060002054604051908152f35b346104f75760003660031901126104f757602060ff600154166040519015158152f35b346104f7576020806003193601126104f75781359161277461511d565b61277c6150ff565b821561281a57336000526019825282604060002054106127e15750336000526019815260406000206127af838254614d21565b90556127bb823361588f565b6040519182524290820152600080516020615f2a83398151915260403392a26001600055005b6064916040519162461bcd60e51b83528201526014602482015273496e73756666696369656e742062616c616e636560601b6044820152fd5b6064916040519162461bcd60e51b8352820152600e60248201526d125b9d985b1a5908185b5bdd5b9d60921b6044820152fd5b346104f75760203660031901126104f757612866614762565b61286e614b6f565b6001600160a01b03169081156128b3575080600052601a6020526040600020600160ff19825416179055600080516020615f4a833981519152602060405160018152a2005b60649060206040519162461bcd60e51b8352820152600f60248201526e24b73b30b634b2103932b630bcb2b960891b6044820152fd5b6128f23661481a565b94929093959161290061511d565b6129086150ff565b33600052602095600b8752604060002054612924811515615906565b600052600a875260ff916129418360406000205460a01c16615031565b61294e836021541661594d565b612959818a14615ab6565b612964828a14615ab6565b61297160328a1115615afa565b6000805b828210612c525761298891503414615b49565b60005b8981106129b45789601f8a33600052526129ab60406000209182546150c8565b90556001600055005b6129bf818b89615b39565b35151580612c37575b6129d190615dca565b6129dc818b89615b39565b35600090815260228a5260409020546001600160a01b0390811690612a02821515615e0a565b612a0e338314156159d8565b6064612a2781612a1f86888c615b39565b351015615a1d565b612a3284868a615b39565b35818102918183041490151715612c2257600080516020615e4a8339815191528b859493898f94978a8a8e612710612b869c0498612a7b8a612a75878686615b39565b35614d21565b8b8b6000988a6006549182169182612c13575b5050612bad575b9287969592612b649592612b6b99958b9c612b7e9c15600014612b8b57826000526013908186526040600020612acc8682546150c8565b90557f0000000000000000000000000000000000000000000000000000000000000000166000528452612b0560406000209182546150c8565b90555b612b13868686615b39565b3533600052601d8452612b2c60406000209182546150c8565b9055600052601e8252612b4560406000209182546150c8565b9055612b5d612b55858585615b39565b3582546150c8565b9055615b39565b3595615ba0565b9390926040519485943398429487615a7d565b0390a3614cbe565b61298b565b5050612b98868686615b39565b35612ba660179182546150c8565b9055612b08565b612b7e98509287969592612b649592612b6b9995612beb7f00000000000000000000000000000000000000000000000000000000000000008261534c565b80612c03575b9b509295509295509295969750612a95565b50612c0e828461534c565b612bf1565b60081c16151590508a38612a8e565b601189634e487b7160e01b6000525260246000fd5b506129d1612c46828c8a615b39565b356025541190506129c8565b612c6b612c7191612c6484868a615b39565b35906150c8565b91614cbe565b90612975565b346104f75760203660031901126104f757356000526022602052602060018060a01b0360406000205416604051908152f35b346104f757602090816003193601126104f757612cc4614762565b906001600160a01b03337f00000000000000000000000000000000000000000000000000000000000000008216148015612d8c575b612d0290614f70565b3360005260148452604060002090831690816000528452604060002054918215612d5557611676612d5085858589336000526014815260406000209160005252600060408120553391615548565b6158c4565b60405162461bcd60e51b8152908101859052601060248201526f4e6f20746f6b656e2062616c616e636560801b6044820152606490fd5b50336000908152600b855260409020541515612cf9565b346104f75760203660031901126104f7573560005260116020526020604060002054604051908152f35b346104f75760403660031901126104f757612de6614762565b60243591612df2614b6f565b826000526020906003825260406000205415612f0f57836000526003825260ff60026040600020015416612ed35783600052600382526040600020546202a3008101809111612ebe574210612e8557506000928352600390526040909120600201805460ff1916600117905560068054610100600160a81b03191660089290921b610100600160a81b0316919091179055005b6064916040519162461bcd60e51b83528201526014602482015273151a5b595b1bd8dac81b9bdd08195e1c1a5c995960621b6044820152fd5b601182634e487b7160e01b6000525260246000fd5b6064916040519162461bcd60e51b835282015260176024820152761058dd1a5bdb88185b1c9958591e48195e1958dd5d1959604a1b6044820152fd5b6064916040519162461bcd60e51b835282015260146024820152731058dd1a5bdb881b9bdd081cd8da19591d5b195960621b6044820152fd5b346104f75760203660031901126104f7576001600160a01b03612f69614762565b16600052601e6020526020604060002054604051908152f35b346104f75760003660031901126104f75760206040516202a3008152f35b346104f75760203660031901126104f7577f127e7000860e147537565064385997c3085650c31b251451c0c7e198613e74d3613013612fdd6147bb565b612fe5614b6f565b60ff196021541660ff8215151617602155604051918291429083602090939291936040810194151581520152565b0390a1005b346104f75760203660031901126104f7576001600160a01b03613039614762565b166000526027602052602060ff604060002054166040519015158152f35b346104f75760003660031901126104f75760206040516103e88152f35b346104f75760203660031901126104f75735600052600e6020526020604060002054604051908152f35b346104f75760206130b28161152536614a2a565b8101602481520301902054604051908152f35b346104f75760003660031901126104f7576130de614b6f565b6130e6615be1565b60ff19600154166001557f5db9ee0a495bf2e6ff9c91a7834c1ba4fdd244a5e8aa4e537bd38aeae4b073aa6020604051338152a1005b346104f75760003660031901126104f75760206040516101f48152f35b60403660031901126104f75780356024356001600160401b0381116104f757613165903690840161478e565b9161316e61511d565b6131766150ff565b33600052602090600b8252604060002054613192811515615906565b600052600a82526131ad60ff60406000205460a01c16615031565b6131bb60ff6021541661594d565b801515806133a3575b6131cd90615dca565b6000526022815260018060a01b03908160406000205416936131f0851515615e0a565b6131fc338614156159d8565b6132096064341015615a1d565b6064340295348704606414341517156105cf5750612710600080516020615e4a8339815191529495960461323d8134614d21565b33600052601d845260406000206132553482546150c8565b905587600052601e8452604060002061326f8282546150c8565b905533600052601f845260406000206132888154614cbe565b90556132953485546150c8565b84556000936006548660ff82169182613394575b5050613346575b849561332594951560001461332f576013928a6000528383526132d960406000209182546150c8565b90557f0000000000000000000000000000000000000000000000000000000000000000166000525260406000206133118282546150c8565b90555b604051938493339742933487615a7d565b0390a36001600055005b50505061333e346017546150c8565b601755613314565b6133259394506133767f00000000000000000000000000000000000000000000000000000000000000008461534c565b80613384575b9493506132b0565b5061338f898361534c565b61337c565b60081c1615159050868b6132a9565b5060255481106131c4565b346104f75760403660031901126104f7576001600160a01b036133cf614778565b169081600052601260205260ff604060002054169081156133f8575b6020826040519015158152f35b80915035600052600a60205260406000200190600052602052602060ff60406000205416826133eb565b346104f75760003660031901126104f7576020604051733c499c542cef5e3811e1192ce70d8cc03d5c33598152f35b346104f7576020806003193601126104f75761346b614762565b613473614b6f565b6001600160a01b031691821561350057826000526027825260ff604060002054166134cb5750600080516020615eaa8339815191529082600052602781526040600020600160ff1982541617905560405160018152a2005b6064916040519162461bcd60e51b8352820152601060248201526f20b63932b0b23c9030b71030b236b4b760811b6044820152fd5b6064916040519162461bcd60e51b83528201526015602482015274496e76616c69642061646d696e206164647265737360581b6044820152fd5b346104f75760203660031901126104f7576001600160a01b0361355b614762565b1660005260186020526020604060002054604051908152f35b346104f75760203660031901126104f757356000526005602052602060ff60406000205416604051906135a6816147ca565b8152f35b346104f75760003660031901126104f757604051806010548082528260208093016010600052836000209260005b85828210613603575050506135ef925003836149b5565b6105cb6040519282849384528301906148be565b85548452600195860195889550930192016135d8565b346104f75760203660031901126104f757613632614762565b61363a614b6f565b6001600160a01b031660008181526027602052604090205490919060ff161561368f5750806000526027602052604060002060ff198154169055600080516020615eaa833981519152602060405160008152a2005b60649060206040519162461bcd60e51b8352820152600c60248201526b2737ba1030b71030b236b4b760a11b6044820152fd5b346104f75760403660031901126104f7576136db614762565b6001600160a01b03166000908152600960205260409020805460243591908210156104f7576020916126ec91614923565b346104f75760203660031901126104f7576001600160a01b0361372d614762565b16600052601a602052602060ff604060002054166040519015158152f35b346104f75760403660031901126104f7576001600160401b0381358181116104f75761377a90369084016147ea565b916024359081116104f75761379290369085016147ea565b6001549194913360089190911c6001600160a01b0316148015613849575b6137b990614b9e565b6137c4818514615ab6565b6137cd84615c17565b9360005b8181106137ee57604051602080825281906105cb908201896148be565b6138016137fc828488615b39565b615b8c565b9061380d81858a615b39565b35858110156104f75761384492613834916040519161382b8361497f565b60008352614d2e565b61383e8289615c49565b52614cbe565b6137d1565b503360009081526027602052604090205460ff166137b0565b346104f75760203660031901126104f7578035906001600160401b0382116104f757602061389481928436910161478e565b91908260405193849283378101600c81520301902054604051908152f35b346104f75760203660031901126104f7578035906001600160401b0382116104f75760206138e481928436910161478e565b91908260405193849283378101602481520301902054604051908152f35b346104f75760003660031901126104f757602060ff602154166040519015158152f35b346104f75760003660031901126104f757337f00000000000000000000000000000000000000000000000000000000000000006001600160a01b03161480156139db575b61397290614f70565b3360005260136020526040600020549081156139a657611676612d508333600052601360205260006040812055339061534c565b60649060206040519162461bcd60e51b8352820152600e60248201526d4e6f204554482062616c616e636560901b6044820152fd5b50336000908152600b60205260409020541515613969565b346104f75760203660031901126104f7578060c0913580151580613a92575b613a1b90614ff0565b600052600a60205260406000209060ff60038301541690613a3b826147ca565b8160005260205260406000205490825492600260018201549101549060ff6040519560018060a01b038116875260a01c161515602086015260408501526060840152613a86816147ca565b608083015260a0820152f35b50600d548110613a12565b613aa63661487f565b613aae61511d565b613ab66150ff565b33600052602092600b8452604060002054613ad2811515615906565b600052600a8452613aed60ff60406000205460a01c16615031565b613afb60ff6021541661594d565b6001600160a01b0381811694909290613b15861515615993565b613b21338714156159d8565b613b2e6064341015615a1d565b6064340296348804606414341517156105cf5750612710600080516020615e4a8339815191529596970490613b638234614d21565b9033600052601d81526040600020613b7c3482546150c8565b905588600052601e81526040600020613b968382546150c8565b905533600052601f81526040600020613baf8154614cbe565b9055613bbc3482546150c8565b81556000946006548760ff82169182613c51575b5050613c01575b50849561332594951560001461332f576013928a6000528383526132d960406000209182546150c8565b613325949550613c317f00000000000000000000000000000000000000000000000000000000000000008561534c565b9081613c40575b509493613bd7565b613c4b91508361534c565b8a613c38565b60081c1615159050878c613bd0565b613c693661481a565b9192613c78969195949661511d565b613c806150ff565b33600052602095600b8752604060002054613c9c811515615906565b600052600a875260ff93613cb98560406000205460a01c16615031565b613cc6856021541661594d565b613cd1868a14615ab6565b613cdc818a14615ab6565b613ce960328a1115615afa565b6000805b878210613faa57613d0091503414615b49565b60005b898110613d235789601f8a33600052526129ab60406000209182546150c8565b80613d62898c613d5a6137fc60018060a01b039583613d5388613d4b6137fc8583998b615b39565b161515615993565b3395615b39565b1614156159d8565b6064613d7381612a1f858c8a615b39565b613d7e838a88615b39565b35818102918183041490151715613f95578a8a93928a8e6127108c9504938a613dac86612a758a8785615b39565b600097866006549182169182613f86575b5050613f09575b613eb76137fc8a868d612b7e97613edf9f612b558f8f9d600080516020615e4a8339815191529f9e9b8f9b829f9c613ebe9e818c9f612b5d998e809915600014613ee457613e15926137fc92615b39565b166000526013808a526040600020613e2e8582546150c8565b9055827f0000000000000000000000000000000000000000000000000000000000000000166000528952613e6860406000209182546150c8565b90555b613e76858585615b39565b3533600052601d8952613e8f60406000209182546150c8565b9055613e9f6137fc868c8c615b39565b16600052601e8752612b5d60406000209182546150c8565b938d615b39565b35613eca888b8d615ba0565b60409891985195869516983398429487615a7d565b613d03565b92505050613ef491508585615b39565b35613f0260179182546150c8565b9055613e6b565b9493965097878484828a968584978c9784808e613f467f00000000000000000000000000000000000000000000000000000000000000008d61534c565b9081613f67575b509f5050505097509d959a9b505050949550959050613dc4565b613f809150613f7a6137fc848a88615b39565b9061534c565b8f613f4d565b60081c16151590508638613dbd565b601187634e487b7160e01b6000525260246000fd5b612c6b613fbc91612c64848b89615b39565b90613ced565b346104f75760203660031901126104f7578060a091356000526008602052604060002090600180841b039182815416926001820154169160ff60028301549160038401549301541692604051948552602085015260408401526060830152610fa7816147ca565b346104f75760003660031901126104f7576020604051610e108152f35b346104f75760003660031901126104f75760206040517f00000000000000000000000000000000000000000000000000000000000000008152f35b346104f75760003660031901126104f75760a0601554601654601754600f549060ff600654169260405194855260208501526040840152606083015215156080820152f35b346104f75760203660031901126104f75735600052601c6020526020604060002054604051908152f35b346104f75760403660031901126104f757803590602435908115158083036104f75761411a614b6f565b831515806142d5575b61412c90614ff0565b83600052600a6020526040600020908154908060ff8360a01c1615150361414f57005b60ff60a01b1990911660a09190911b60ff60a01b1617905581156141d657614178600f54614cbe565b600f5561418483614cfb565b6010546000198101919082116105cf5750600080516020615e6a833981519152916141d1918460005260116020526040600020555b60408051911515825242602083015290918291820190565b0390a2005b600f549081156105cf57600019809201600f558360005260116020526040600020546010548381019081116142c057808203614275575b5050601054908115614260575091816141d192600080516020615e6a83398151915294019061423b826148f2565b909182549160031b1b19169055601055836000526011602052600060408120556141b9565b603190634e487b7160e01b6000525260246000fd5b61427e906148f2565b90549060031b1c806142a9614292846148f2565b819391549060031b91821b91600019901b19161790565b90556000526011602052604060002055848061420d565b601183634e487b7160e01b6000525260246000fd5b50600d548410614123565b346104f75760203660031901126104f7576001543360089190911c6001600160a01b031614801561432a575b61431590614b9e565b35600052600e60205242604060002055600080f35b503360009081526027602052604090205460ff1661430c565b346104f75760203660031901126104f75761435c614762565b614364614b6f565b6001600160a01b03166000818152601a60209081526040808320805460ff1916905551918252600080516020615f4a83398151915291a2005b346104f75760803660031901126104f7576143b6614762565b602435828110156104f7576044356001600160401b0381116104f7576143df903690850161478e565b6001543360089190911c6001600160a01b0316148015614525575b61440390614b9e565b604051606085901b6001600160601b03191660208083019182529691614428866147ca565b8560f81b60348201528385603583013761445760558286810160643560358201520360358101845201826149b5565b5190209081600052600e8752604060002054156144eb5781600052600e8752604060002054610e108101809111612ebe5742116144af5750916113e89161114c959493600052600e87526000604081205536916149f3565b60405162461bcd60e51b8152908101879052601560248201527414995d99585b081dda5b991bddc8195e1c1a5c9959605a1b6044820152606490fd5b60405162461bcd60e51b81529081018790526013602482015272139bc818dbdb5b5a5d1b595b9d08199bdd5b99606a1b6044820152606490fd5b503360009081526027602052604090205460ff166143fa565b90346104f75760803660031901126104f757614558614762565b906024359163ffffffff83168093036104f7576044359360649283359233600052602092601a845260ff604060002054161561472d575061459761511d565b61459f6150ff565b83156146f0576001600160a01b039081169485156146bb5791604093916146127f9d580963f6995529c22257725491b9d27d903d9b0901dca02b6599964b6933d396948651906323b872dd60e01b868301523360248301523060448301528681830152815261460d8161493b565b61520a565b8660005260198352846000206146298582546150c8565b905561463784601b546150c8565b601b5587600052601c8352846000206146518582546150c8565b905588600052600883528685600020918254161461467e575b505082519182524290820152a46001600055005b01600260ff1982541617905584877f40dc907f38581aa7b281d8997d806ded774fd794a57ed9f247a51e79578aaa6b838651868152a3878061466a565b60405162461bcd60e51b81528084018590526011602482015270125b9d985b1a59081c9958da5c1a595b9d607a1b6044820152fd5b5091506040519162461bcd60e51b83528201526018602482015277139bc81554d110c8185b5bdd5b9d081cdc1958da599a595960421b6044820152fd5b93505062461bcd60e51b835282015260146024820152732ab730baba3437b934bd32b2103932b630bcb2b960611b6044820152fd5b600435906001600160a01b03821682036104f757565b602435906001600160a01b03821682036104f757565b9181601f840112156104f7578235916001600160401b0383116104f757602083818601950101116104f757565b6004359081151582036104f757565b600411156147d457565b634e487b7160e01b600052602160045260246000fd5b9181601f840112156104f7578235916001600160401b0383116104f7576020808501948460051b0101116104f757565b9060606003198301126104f7576001600160401b036004358181116104f75783614846916004016147ea565b939093926024358381116104f75782614861916004016147ea565b939093926044359182116104f75761487b916004016147ea565b9091565b9060406003198301126104f7576004356001600160a01b03811681036104f75791602435906001600160401b0382116104f75761487b9160040161478e565b90815180825260208080930193019160005b8281106148de575050505090565b8351855293810193928101926001016148d0565b60105481101561490d57601060005260206000200190600090565b634e487b7160e01b600052603260045260246000fd5b805482101561490d5760005260206000200190600090565b60a081019081106001600160401b0382111761495657604052565b634e487b7160e01b600052604160045260246000fd5b6001600160401b03811161495657604052565b602081019081106001600160401b0382111761495657604052565b608081019081106001600160401b0382111761495657604052565b601f909101601f19168101906001600160401b0382119082101761495657604052565b6001600160401b03811161495657601f01601f191660200190565b9291926149ff826149d8565b91614a0d60405193846149b5565b8294818452818301116104f7578281602093846000960137010152565b60206003198201126104f757600435906001600160401b0382116104f757806023830112156104f757816024614a65936004013591016149f3565b90565b60005b838110614a7b5750506000910152565b8181015183820152602001614a6b565b346104f75760003660031901126104f757602060405160648152f35b90815180825260208080930193019160005b828110614ac7575050505090565b83516001600160a01b031685529381019392810192600101614ab9565b6040919493926060820195825260208201520152565b60409060031901126104f7576004359060243590565b90600182811c92168015614b40575b6020831014614b2a57565b634e487b7160e01b600052602260045260246000fd5b91607f1691614b1f565b90602091614b6381518092818552858086019101614a68565b601f01601f1916010190565b60015460081c6001600160a01b03163303614b8657565b60405163118cdaa760e01b8152336004820152602490fd5b15614ba557565b60405162461bcd60e51b81526020600482015260126024820152712737ba1037bbb732b91037b91030b236b4b760711b6044820152606490fd5b15614be657565b606460405162461bcd60e51b815260206004820152602060248201527f43726561746f722063616e6e6f7420626520627573696e657373206f776e65726044820152fd5b15614c3157565b60405162461bcd60e51b815260206004820152601960248201527815d85b1b195d08185b1c9958591e481c9959da5cdd195c9959603a1b6044820152606490fd5b15614c7957565b60405162461bcd60e51b815260206004820152601e60248201527f546869726477656220494420616c7265616479207265676973746572656400006044820152606490fd5b6000198114614ccd5760010190565b634e487b7160e01b600052601160045260246000fd5b90614ced816147ca565b60ff80198354169116179055565b601054600160401b81101561495657614292816001614d1d93016010556148f2565b9055565b91908203918211614ccd57565b919290916001600160a01b03908116908115614f3257614d72817f000000000000000000000000000000000000000000000000000000000000000016831415614bdf565b7f0000000000000000000000000000000000000000000000000000000000000000168114614ef057600093818552602090600b82526040614db68188205415614c2a565b815180614ec3575b50600d5492614dcc84614cbe565b600d55838852600a815281882080546001600160a81b0319168617600160a01b17815593968794614e009190600301614ce3565b848852600b8152838289205583835180614e9f575b5050614e22600f54614cbe565b600f55614e2e84614cfb565b6010546000198101908111614e8b578289867f90ea86c33c9ce72bef7f8f17db2963616fc000739b9079b4c54d06467c8473639798999a9b52601184522055614e808251938385948552840190614b4a565b9042908301520390a3565b634e487b7160e01b89526011600452602489fd5b82845182614eb1829483858b01614a68565b8101600c815203019020558338614e15565b614eea9084835182614ed9829483858a01614a68565b8101600c8152030190205415614c72565b38614dbe565b60405162461bcd60e51b815260206004820152601a60248201527943726561746f722063616e6e6f7420626520747265617375727960301b6044820152606490fd5b60405162461bcd60e51b8152602060048201526016602482015275125b9d985b1a590818dc99585d1bdc881dd85b1b195d60521b6044820152606490fd5b15614f7757565b60405162461bcd60e51b815260206004820152600c60248201526b155b985d5d1a1bdc9a5e995960a21b6044820152606490fd5b15614fb257565b60405162461bcd60e51b8152602060048201526016602482015275496e76616c69642077616c6c6574206164647265737360501b6044820152606490fd5b15614ff757565b60405162461bcd60e51b8152602060048201526012602482015271125b9d985b1a590818dc99585d1bdc88125160721b6044820152606490fd5b1561503857565b60405162461bcd60e51b815260206004820152601260248201527143726561746f72206e6f742061637469766560701b6044820152606490fd5b1561507957565b60405162461bcd60e51b8152602060048201526014602482015273151a5c08185b5bdd5b9d081d1bdbc81cdb585b1b60621b6044820152606490fd5b81810292918115918404141715614ccd57565b91908201809211614ccd57565b9260a094919796959260c08501988552602085015260408401526060830152151560808201520152565b60ff6001541661510b57565b60405163d93c066560e01b8152600490fd5b60026000541461512e576002600055565b604051633ee5aeb560e01b8152600490fd5b1561514757565b60405162461bcd60e51b8152602060048201526015602482015274496e76616c696420746f6b656e206164647265737360581b6044820152606490fd5b1561518b57565b60405162461bcd60e51b8152602060048201526013602482015272151bdad95b881b9bdd081cdd5c1c1bdc9d1959606a1b6044820152606490fd5b6040516323b872dd60e01b60208201526001600160a01b039283166024820152929091166044830152606480830193909352918152615208916122218261493b565b565b60206000825182733c499c542cef5e3811e1192ce70d8cc03d5c3359940182855af115615266576000513d61525d5750803b155b6152455750565b60249060405190635274afe760e01b82526004820152fd5b6001141561523e565b6040513d6000823e3d90fd5b906000602091828151910182855af115615266576000513d6152c557506001600160a01b0381163b155b6152a35750565b604051635274afe760e01b81526001600160a01b039091166004820152602490fd5b6001141561529c565b805490600160401b8210156149565781614292916001614d1d94018155614923565b614a659392608092618173835260018060a01b0316602083015260408201528160608201520190614b4a565b3d15615347573d9061532d826149d8565b9161533b60405193846149b5565b82523d6000602084013e565b606090565b906006549060009160ff811615908115615518575b506155125761536e6157e0565b9260409081519161537e8361493b565b60018060a01b03809416938484526153fc602094600489878a8185018181528789808801938c8552600860608a019642885260808b019860018a528352522096511660018060a01b0319908188541617875588600188019251169082541617905551600285015551600384015551916153f6836147ca565b01614ce3565b8486526009845261540f878388206152ce565b60065460081c1681519063cd18f0bd60e01b858301528560248301528760448301526044825261543e8261499a565b73f5042e6ffac5a625d4e7848e0b01373d8eb9e22290813b1561550e57918791858061548095875196879586948593632260147f60e11b8552600485016152f0565b03925af190816154fb575b506154e057906154da8596600080516020615e8a83398151915294936154af61531c565b91885260088552600481892001600360ff198254161790558080519586958652850152830190614b4a565b0390a390565b51908152600080516020615eca8339815191529190a4600190565b6155079096919661496c565b943861548b565b8780fd5b50905090565b60081c6001600160a01b031615905038615361565b6001600160a01b039091168152602081019190915260400190565b90916006549260009360ff8116159081156157cb575b506157c55761556b6157e0565b9060409182519261557b8461493b565b60018060a01b03809516948585526155f7602095600485888c868286019d169c8d81528789808801938d8552600860608a019642885260808b019860018a528352522096511660018060a01b0319908188541617875588600188019251169082541617905551600285015551600384015551916153f6836147ca565b8588526009855261560a83838a206152ce565b81519063095ea7b360e01b825273f5042e6ffac5a625d4e7848e0b01373d8eb9e2229182600482015285602482015286816044818d8d5af180156157bb57615780575b5060065460081c1690825191631a0177e960e11b87840152886024840152876044840152856064840152733c499c542cef5e3811e1192ce70d8cc03d5c335960848401528460a484015260a4835260e083019280841060018060401b0385111761576c57838552823b156157685791838b81938195632260147f60e11b84526156de818c60df199460e483016152f0565b0301925af19081615755575b5061573857600080516020615e8a8339815191529392916154da9161570d61531c565b918952600885526004818a2001600360ff198254161790558080519586958652850152830190614b4a565b519182529450600080516020615eca8339815191529190a4600190565b6157619098919861496c565b96386156ea565b8a80fd5b634e487b7160e01b8b52604160045260248bfd5b8681813d83116157b4575b61579581836149b5565b810103126157b05751801515036157ac573861564d565b8880fd5b8980fd5b503d61578b565b84513d8c823e3d90fd5b50505090565b60081c6001600160a01b03161590503861555e565b6007546157ec81614cbe565b60075560405160208101913060601b83527f0000000000000000000000000000000000000000000000000000000000000000603483015242605483015243607483015260948201526094815260c0810181811060018060401b038211176149565760405251902090565b1561585d57565b60405162461bcd60e51b815260206004820152600a6024820152694e6f2062616c616e636560b01b6044820152606490fd5b9061460d615208926158b660405193849263a9059cbb60e01b60208501526024840161552d565b03601f1981018352826149b5565b156158cb57565b60405162461bcd60e51b815260206004820152601360248201527213585b9d585b081c995b185e4819985a5b1959606a1b6044820152606490fd5b1561590d57565b60405162461bcd60e51b81526020600482015260186024820152772737ba1030903932b3b4b9ba32b932b21031b932b0ba37b960411b6044820152606490fd5b1561595457565b60405162461bcd60e51b8152602060048201526017602482015276159a595dd95c881c995dd85c991cc8191a5cd8589b1959604a1b6044820152606490fd5b1561599a57565b60405162461bcd60e51b8152602060048201526016602482015275496e76616c696420766965776572206164647265737360501b6044820152606490fd5b156159df57565b60405162461bcd60e51b815260206004820152601660248201527521b0b73737ba103932bbb0b932103cb7bab939b2b63360511b6044820152606490fd5b15615a2457565b60405162461bcd60e51b815260206004820152601060248201526f14995dd85c99081d1bdbc81cdb585b1b60821b6044820152606490fd5b908060209392818452848401376000828201840152601f01601f1916010190565b929093615aaa9260a09598979698600086526020860152604085015260c0606085015260c0840191615a5c565b94151560808201520152565b15615abd57565b60405162461bcd60e51b8152602060048201526015602482015274082e4e4c2f240d8cadccee8d040dad2e6dac2e8c6d605b1b6044820152606490fd5b15615b0157565b60405162461bcd60e51b815260206004820152601060248201526f546f6f206d616e79207669657765727360801b6044820152606490fd5b919081101561490d5760051b0190565b15615b5057565b60405162461bcd60e51b8152602060048201526014602482015273125b98dbdc9c9958dd0811551208185b5bdd5b9d60621b6044820152606490fd5b356001600160a01b03811681036104f75790565b919081101561490d5760051b81013590601e19813603018212156104f75701803591906001600160401b0383116104f75760200182360381136104f7579190565b60ff6001541615615bee57565b604051638dfc202b60e01b8152600490fd5b6001600160401b0381116149565760051b60200190565b90615c2182615c00565b615c2e60405191826149b5565b8281528092615c3f601f1991615c00565b0190602036910137565b805182101561490d5760209160051b010190565b81151580615dbf575b15615d7a576010549182158015615d70575b615d3057615c868284614d21565b9080821015615d285750915b615c9b83615c17565b93615ca584615c17565b93615caf81615c17565b9360005b828110615cbf57505050565b806001615cd7615cd2615d2394866150c8565b6148f2565b90549060031b1c80615ce9848d615c49565b5280600052600a60208181526040928c615d0f87878060a01b0387600020541692615c49565b5260005252600020015461383e8289615c49565b615cb3565b905091615c92565b505060405190615d3f8261497f565b6000825260405192615d508461497f565b6000845260405192615d618461497f565b60008452600036813793929190565b5082821015615c78565b60405162461bcd60e51b815260206004820152601f60248201527f4c696d6974206d757374206265206265747765656e203120616e6420313030006044820152606490fd5b506064821115615c66565b15615dd157565b60405162461bcd60e51b8152602060048201526011602482015270125b9d985b1a59081d9a595dd95c881251607a1b6044820152606490fd5b15615e1157565b60405162461bcd60e51b815260206004820152601060248201526f159a595dd95c881b9bdd08199bdd5b9960821b6044820152606490fdfeaf11b1af7805b69d336f156459fa0d2b2d9d8667f59d8e09daf371b8a6803c10d9518d7736fcf52ce591f2d7253f1a915bc7badc5bb6d8fd12e82b558740c2f8810138935087cd01a0f779bb09731b8983197ec5525fba5930153152102cb830c63c72d6995119c079ef24c02679d49838905c8e81df9e632011b914e6f592f6f29fd77720852d18ddbb832831b2035a198271cad48b8ec9a15865b4946b4690410afedaeb9f0af3ce32a27e5bde5901396e730489fe03cadeeafbb0a0345f988be0079c531659141344cd1fd0a4f28419497f9722a3daafe3b4186f6b6457e06694a0cb8a19b254bcf47ffa7eb3894be05cb092d54823f77c3523b4c373b1665afe4db7a7f6fb62654cf58aa1c5b48bf792e80667fd0480625d1e5d52744937a264697066735822122013d7ebd2eeb7c5f63e8a5345c30f56b43c097c74346d854d7aa8fc2dbad68a2764736f6c63430008140033",
  "linkReferences": {},
  "deployedLinkReferences": {}
}